{
	"data": {
		"bytecode": {
			"linkReferences": {},
			"object": "608060405234801561000f575f80fd5b50600180819055506100295f801b336101a860201b60201c565b50600160085f6101000a81548160ff021916908360ff16021790555042600860016101000a81548163ffffffff021916908363ffffffff1602179055506040518060c001604052804263ffffffff168152602001620151804261008c9190610343565b63ffffffff1681526020015f61ffff1681526020015f61ffff1681526020015f61ffff1681526020016001151581525060065f600160ff1681526020019081526020015f205f820151815f015f6101000a81548163ffffffff021916908363ffffffff1602179055506020820151815f0160046101000a81548163ffffffff021916908363ffffffff1602179055506040820151815f0160086101000a81548161ffff021916908361ffff1602179055506060820151815f01600a6101000a81548161ffff021916908361ffff1602179055506080820151815f01600c6101000a81548161ffff021916908361ffff16021790555060a0820151815f01600e6101000a81548160ff02191690831515021790555090505061037a565b5f6101b9838361029d60201b60201c565b6102935760015f808581526020019081526020015f205f015f8473ffffffffffffffffffffffffffffffffffffffff1673ffffffffffffffffffffffffffffffffffffffff1681526020019081526020015f205f6101000a81548160ff02191690831515021790555061023061030060201b60201c565b73ffffffffffffffffffffffffffffffffffffffff168273ffffffffffffffffffffffffffffffffffffffff16847f2f8788117e7eff1d82e926ec794901d17c78024a50270940304540a733656f0d60405160405180910390a460019050610297565b5f90505b92915050565b5f805f8481526020019081526020015f205f015f8373ffffffffffffffffffffffffffffffffffffffff1673ffffffffffffffffffffffffffffffffffffffff1681526020019081526020015f205f9054906101000a900460ff16905092915050565b5f33905090565b5f63ffffffff82169050919050565b7f4e487b71000000000000000000000000000000000000000000000000000000005f52601160045260245ffd5b5f61034d82610307565b915061035883610307565b9250828201905063ffffffff81111561037457610373610316565b5b92915050565b61594c806103875f395ff3fe608060405234801561000f575f80fd5b5060043610610225575f3560e01c806383868a681161012e578063bfdb6b04116100b6578063dea931c11161007a578063dea931c1146106d6578063df886f6f1461070b578063e312148d1461073b578063e6da378114610759578063ed69c6041461078957610225565b8063bfdb6b0414610614578063c396cbf414610649578063d1a1b99914610667578063d547741f1461069e578063d634e854146106ba57610225565b806391d14854116100fd57806391d148541461055a578063989b75311461058a578063a217fddf146105ba578063b6df0348146105d8578063b87832af146105f857610225565b806383868a68146104a257806387886960146104d55780638d977672146104f35780638f91cc551461052a57610225565b806336568abe116101b1578063586717301161018057806358671730146103f857806369de70cd146104165780636fbc62401461043457806370dda1c414610450578063822fb61a1461047257610225565b806336568abe1461037257806341c8c32d1461038e5780634e2b46fc146103be57806350dddc49146103dc57610225565b80632849463e116101f85780632849463e146102c557806329dea1b5146102fa5780632f2ff15d146103165780632fcc207b146103325780632fec31751461035657610225565b806301ffc9a714610229578063058dd22e1461025957806319ad44fc14610277578063248a9ca314610295575b5f80fd5b610243600480360381019061023e9190613e42565b6107a5565b6040516102509190613e87565b60405180910390f35b61026161081e565b60405161026e9190613ebb565b60405180910390f35b61027f610830565b60405161028c9190613eec565b60405180910390f35b6102af60048036038101906102aa9190613f2f565b610854565b6040516102bc9190613eec565b60405180910390f35b6102df60048036038101906102da9190613fb4565b610870565b6040516102f196959493929190614053565b60405180910390f35b610314600480360381019061030f91906140e5565b6108f4565b005b610330600480360381019061032b9190614135565b610ac5565b005b61033a610ae7565b60405161034d9796959493929190614173565b60405180910390f35b610370600480360381019061036b91906144d3565b610bab565b005b61038c60048036038101906103879190614135565b611350565b005b6103a860048036038101906103a39190614627565b6113cb565b6040516103b591906146b6565b60405180910390f35b6103c6611726565b6040516103d39190613eec565b60405180910390f35b6103f660048036038101906103f191906146cf565b61174a565b005b610400611cae565b60405161040d91906146b6565b60405180910390f35b61041e611cb4565b60405161042b9190613eec565b60405180910390f35b61044e600480360381019061044991906147df565b611cd8565b005b610458612019565b60405161046995949392919061488e565b60405180910390f35b61048c600480360381019061048791906148df565b6120b0565b6040516104999190614919565b60405180910390f35b6104bc60048036038101906104b79190613f2f565b6120eb565b6040516104cc9493929190614932565b60405180910390f35b6104dd61213f565b6040516104ea9190614975565b60405180910390f35b61050d600480360381019061050891906148df565b612155565b60405161052198979695949392919061498e565b60405180910390f35b610544600480360381019061053f91906148df565b6121fb565b6040516105519190614919565b60405180910390f35b610574600480360381019061056f9190614135565b612236565b6040516105819190613e87565b60405180910390f35b6105a4600480360381019061059f91906148df565b612299565b6040516105b19190614919565b60405180910390f35b6105c26122d4565b6040516105cf9190613eec565b60405180910390f35b6105e06122da565b6040516105ef93929190614a0a565b60405180910390f35b610612600480360381019061060d9190614add565b6122fa565b005b61062e60048036038101906106299190613fb4565b61244f565b60405161064096959493929190614053565b60405180910390f35b610651612514565b60405161065e9190613eec565b60405180910390f35b610681600480360381019061067c91906148df565b612538565b60405161069598979695949392919061498e565b60405180910390f35b6106b860048036038101906106b39190614135565b6125f9565b005b6106d460048036038101906106cf9190614add565b61261b565b005b6106f060048036038101906106eb9190614b8f565b612b2f565b60405161070296959493929190614bba565b60405180910390f35b61072560048036038101906107209190614c19565b612bb8565b6040516107329190614cfb565b60405180910390f35b610743612dd6565b6040516107509190614975565b60405180910390f35b610773600480360381019061076e9190613fb4565b612dec565b6040516107809190613eec565b60405180910390f35b6107a3600480360381019061079e9190613fb4565b612e01565b005b5f7f7965db0b000000000000000000000000000000000000000000000000000000007bffffffffffffffffffffffffffffffffffffffffffffffffffffffff1916827bffffffffffffffffffffffffffffffffffffffffffffffffffffffff19161480610817575061081682612fbf565b5b9050919050565b60085f9054906101000a900460ff1681565b7fe294e0330230cf86c7cc450e63c26273fd5db16b0833af197ccc2575f058a3a281565b5f805f8381526020019081526020015f20600101549050919050565b6002602052805f5260405f205f91509050805f015f9054906101000a900463ffffffff1690805f0160049054906101000a900461ffff1690805f0160069054906101000a900460ff1690805f0160079054906101000a900460ff1690805f0160089054906101000a900460ff1690805f0160099054906101000a900460601b905086565b7f1cc919c29f80ec17d5122d6094a38c779a69e67adb66dad9ef82d2b34c27e84861091e81613028565b60025f8573ffffffffffffffffffffffffffffffffffffffff1673ffffffffffffffffffffffffffffffffffffffff1681526020019081526020015f205f0160089054906101000a900460ff166109aa576040517f08c379a00000000000000000000000000000000000000000000000000000000081526004016109a190614d75565b60405180910390fd5b60ff83116109b857826109bb565b60ff5b60025f8673ffffffffffffffffffffffffffffffffffffffff1673ffffffffffffffffffffffffffffffffffffffff1681526020019081526020015f205f0160066101000a81548160ff021916908360ff1602179055504260025f8673ffffffffffffffffffffffffffffffffffffffff1673ffffffffffffffffffffffffffffffffffffffff1681526020019081526020015f205f015f6101000a81548163ffffffff021916908363ffffffff1602179055508373ffffffffffffffffffffffffffffffffffffffff167f48ef8c71c1e674858a17471917e624909774724a74d13f930ef050bb56a83ffd8484604051610ab7929190614d93565b60405180910390a250505050565b610ace82610854565b610ad781613028565b610ae1838361303c565b50505050565b5f805f805f805f8060065f60085f9054906101000a900460ff1660ff1660ff1681526020019081526020015f20905060085f9054906101000a900460ff16815f015f9054906101000a900463ffffffff16825f0160049054906101000a900463ffffffff16835f0160089054906101000a900461ffff16845f01600a9054906101000a900461ffff16855f01600c9054906101000a900461ffff16865f01600e9054906101000a900460ff1697509750975097509750975097505090919293949596565b5f801b610bb781613028565b8251845114610bfb576040517f08c379a0000000000000000000000000000000000000000000000000000000008152600401610bf290614e04565b60405180910390fd5b8151845114610c3f576040517f08c379a0000000000000000000000000000000000000000000000000000000008152600401610c3690614e04565b60405180910390fd5b601961ffff1684511115610c88576040517f08c379a0000000000000000000000000000000000000000000000000000000008152600401610c7f90614e6c565b60405180910390fd5b5f5a90505f5b85518110156112755760025f878381518110610cad57610cac614e8a565b5b602002602001015173ffffffffffffffffffffffffffffffffffffffff1673ffffffffffffffffffffffffffffffffffffffff1681526020019081526020015f205f0160089054906101000a900460ff16611268575f848281518110610d1657610d15614e8a565b5b602002602001015190505f60025f898581518110610d3757610d36614e8a565b5b602002602001015173ffffffffffffffffffffffffffffffffffffffff1673ffffffffffffffffffffffffffffffffffffffff1681526020019081526020015f20905042815f015f6101000a81548163ffffffff021916908363ffffffff1602179055505f815f0160046101000a81548161ffff021916908361ffff1602179055506032815f0160066101000a81548160ff021916908360ff160217905550868381518110610de957610de8614e8a565b5b60200260200101516002811115610e0357610e02614eb7565b5b815f0160076101000a81548160ff021916908360ff1602179055506001815f0160086101000a81548160ff02191690831515021790555081815f0160096101000a81548173ffffffffffffffffffffffffffffffffffffffff021916908360601c02179055505f6002811115610e7c57610e7b614eb7565b5b878481518110610e8f57610e8e614e8a565b5b60200260200101516002811115610ea957610ea8614eb7565b5b03610f72576009888481518110610ec357610ec2614e8a565b5b6020026020010151908060018154018082558091505060019003905f5260205f20015f9091909190916101000a81548173ffffffffffffffffffffffffffffffffffffffff021916908373ffffffffffffffffffffffffffffffffffffffff160217905550610f6c7f5164d5c7193030abda56ab2da6b1ecfb83373a1a97075675ab8548ca2be633d9898581518110610f5f57610f5e614e8a565b5b602002602001015161303c565b50611183565b60016002811115610f8657610f85614eb7565b5b878481518110610f9957610f98614e8a565b5b60200260200101516002811115610fb357610fb2614eb7565b5b0361107c57600a888481518110610fcd57610fcc614e8a565b5b6020026020010151908060018154018082558091505060019003905f5260205f20015f9091909190916101000a81548173ffffffffffffffffffffffffffffffffffffffff021916908373ffffffffffffffffffffffffffffffffffffffff1602179055506110767fe294e0330230cf86c7cc450e63c26273fd5db16b0833af197ccc2575f058a3a289858151811061106957611068614e8a565b5b602002602001015161303c565b50611182565b60028081111561108f5761108e614eb7565b5b8784815181106110a2576110a1614e8a565b5b602002602001015160028111156110bc576110bb614eb7565b5b0361118157600b8884815181106110d6576110d5614e8a565b5b6020026020010151908060018154018082558091505060019003905f5260205f20015f9091909190916101000a81548173ffffffffffffffffffffffffffffffffffffffff021916908373ffffffffffffffffffffffffffffffffffffffff16021790555061117f7f9064d2262a47540325cc06b9ba16bda3bf76c7aa861bdefef9d8ccb9efc8f25c89858151811061117257611171614e8a565b5b602002602001015161303c565b505b5b5b60065f60085f9054906101000a900460ff1660ff1660ff1681526020019081526020015f205f01600c81819054906101000a900461ffff16809291906111c890614f11565b91906101000a81548161ffff021916908361ffff160217905550508783815181106111f6576111f5614e8a565b5b602002602001015173ffffffffffffffffffffffffffffffffffffffff167fd48e1226fc442afa75c25ede158d798814fb0f85b0e1e60e2049648f2c4a5cfa88858151811061124857611247614e8a565b5b602002602001015160405161125d9190614f80565b60405180910390a250505b8080600101915050610c8e565b505f5a826112839190614f99565b90505f6201d4c087516112969190614fcc565b9050818111156113475781816112ac9190614f99565b600860058282829054906101000a900463ffffffff166112cc919061500d565b92506101000a81548163ffffffff021916908363ffffffff1602179055503373ffffffffffffffffffffffffffffffffffffffff167fa1f6272bd30cbbdca1aa08df89cb0345fca6ba3d2ab5591f820c0565bfde8635838361132e9190614f99565b600560405161133e929190615086565b60405180910390a25b50505050505050565b611358613125565b73ffffffffffffffffffffffffffffffffffffffff168173ffffffffffffffffffffffffffffffffffffffff16146113bc576040517f6697b23200000000000000000000000000000000000000000000000000000000815260040160405180910390fd5b6113c6828261312c565b505050565b5f805a90506113d942613215565b5f60075f8154809291906113ec906150ad565b9190505590505f866040516020016114049190615146565b6040516020818303038152906040528051906020012090506040518061010001604052804263ffffffff1681526020018742611440919061515c565b63ffffffff16815260200189600281111561145e5761145d614eb7565b5b61ffff1681526020015f60ff1681526020015f151581526020013373ffffffffffffffffffffffffffffffffffffffff1681526020018281526020018681525060035f8481526020019081526020015f205f820151815f015f6101000a81548163ffffffff021916908363ffffffff1602179055506020820151815f0160046101000a81548163ffffffff021916908363ffffffff1602179055506040820151815f0160086101000a81548161ffff021916908361ffff1602179055506060820151815f01600a6101000a81548160ff021916908360ff1602179055506080820151815f01600b6101000a81548160ff02191690831515021790555060a0820151815f01600c6101000a81548173ffffffffffffffffffffffffffffffffffffffff021916908373ffffffffffffffffffffffffffffffffffffffff16021790555060c0820151816001015560e0820151816002015590505060065f60085f9054906101000a900460ff1660ff1660ff1681526020019081526020015f205f01600881819054906101000a900461ffff16809291906115fc90614f11565b91906101000a81548161ffff021916908361ffff160217905550505f5a846116249190614f99565b90505f62014c089050818111156116dc5781816116419190614f99565b600860058282829054906101000a900463ffffffff16611661919061500d565b92506101000a81548163ffffffff021916908363ffffffff1602179055503373ffffffffffffffffffffffffffffffffffffffff167fa1f6272bd30cbbdca1aa08df89cb0345fca6ba3d2ab5591f820c0565bfde863583836116c39190614f99565b60026040516116d39291906151c8565b60405180910390a25b837f639cc4603566137b88bf6171c3c93bdeb551ead18a506ac99beaa5f96eb413e58b8960405161170e9291906151ef565b60405180910390a28395505050505050949350505050565b7f1cc919c29f80ec17d5122d6094a38c779a69e67adb66dad9ef82d2b34c27e84881565b5f801b61175681613028565b5f5a905060025f8673ffffffffffffffffffffffffffffffffffffffff1673ffffffffffffffffffffffffffffffffffffffff1681526020019081526020015f205f0160089054906101000a900460ff16156117e7576040517f08c379a00000000000000000000000000000000000000000000000000000000081526004016117de90615260565b60405180910390fd5b5f8390505f60025f8873ffffffffffffffffffffffffffffffffffffffff1673ffffffffffffffffffffffffffffffffffffffff1681526020019081526020015f20905042815f015f6101000a81548163ffffffff021916908363ffffffff1602179055505f815f0160046101000a81548161ffff021916908361ffff1602179055506032815f0160066101000a81548160ff021916908360ff16021790555085600281111561189a57611899614eb7565b5b815f0160076101000a81548160ff021916908360ff1602179055506001815f0160086101000a81548160ff02191690831515021790555081815f0160096101000a81548173ffffffffffffffffffffffffffffffffffffffff021916908360601c02179055505f600281111561191357611912614eb7565b5b86600281111561192657611925614eb7565b5b036119bb57600987908060018154018082558091505060019003905f5260205f20015f9091909190916101000a81548173ffffffffffffffffffffffffffffffffffffffff021916908373ffffffffffffffffffffffffffffffffffffffff1602179055506119b57f5164d5c7193030abda56ab2da6b1ecfb83373a1a97075675ab8548ca2be633d98861303c565b50611b30565b600160028111156119cf576119ce614eb7565b5b8660028111156119e2576119e1614eb7565b5b03611a7757600a87908060018154018082558091505060019003905f5260205f20015f9091909190916101000a81548173ffffffffffffffffffffffffffffffffffffffff021916908373ffffffffffffffffffffffffffffffffffffffff160217905550611a717fe294e0330230cf86c7cc450e63c26273fd5db16b0833af197ccc2575f058a3a28861303c565b50611b2f565b600280811115611a8a57611a89614eb7565b5b866002811115611a9d57611a9c614eb7565b5b03611b2e57600b87908060018154018082558091505060019003905f5260205f20015f9091909190916101000a81548173ffffffffffffffffffffffffffffffffffffffff021916908373ffffffffffffffffffffffffffffffffffffffff160217905550611b2c7f9064d2262a47540325cc06b9ba16bda3bf76c7aa861bdefef9d8ccb9efc8f25c8861303c565b505b5b5b60065f60085f9054906101000a900460ff1660ff1660ff1681526020019081526020015f205f01600c81819054906101000a900461ffff1680929190611b7590614f11565b91906101000a81548161ffff021916908361ffff160217905550505f5a84611b9d9190614f99565b90505f6201d4c0905081811115611c55578181611bba9190614f99565b600860058282829054906101000a900463ffffffff16611bda919061500d565b92506101000a81548163ffffffff021916908363ffffffff1602179055503373ffffffffffffffffffffffffffffffffffffffff167fa1f6272bd30cbbdca1aa08df89cb0345fca6ba3d2ab5591f820c0565bfde86358383611c3c9190614f99565b6001604051611c4c9291906152b7565b60405180910390a25b8873ffffffffffffffffffffffffffffffffffffffff167fd48e1226fc442afa75c25ede158d798814fb0f85b0e1e60e2049648f2c4a5cfa89604051611c9b9190614f80565b60405180910390a2505050505050505050565b60075481565b7f9064d2262a47540325cc06b9ba16bda3bf76c7aa861bdefef9d8ccb9efc8f25c81565b7f1cc919c29f80ec17d5122d6094a38c779a69e67adb66dad9ef82d2b34c27e848611d0281613028565b5f5a90505f855167ffffffffffffffff811115611d2257611d216141f4565b5b604051908082528060200260200182016040528015611d505781602001602082028036833780820191505090505b5090505f5b8651811015611ddb5761ffff878281518110611d7457611d73614e8a565b5b602002602001015111611da157868181518110611d9457611d93614e8a565b5b6020026020010151611da5565b61ffff5b828281518110611db857611db7614e8a565b5b602002602001019061ffff16908161ffff16815250508080600101915050611d55565b506040518060c00160405280898152602001888152602001828152602001866bffffffffffffffffffffffff19168152602001856bffffffffffffffffffffffff191681526020014263ffffffff1681525060045f8a81526020019081526020015f205f820151815f01556020820151816001019080519060200190611e62929190613c93565b506040820151816002019080519060200190611e7f929190613d1a565b506060820151816003015f6101000a81548173ffffffffffffffffffffffffffffffffffffffff021916908360601c02179055506080820151816004015f6101000a81548173ffffffffffffffffffffffffffffffffffffffff021916908360601c021790555060a08201518160040160146101000a81548163ffffffff021916908363ffffffff1602179055509050505f5a83611f1d9190614f99565b90505f62017318905081811115611fd5578181611f3a9190614f99565b600860058282829054906101000a900463ffffffff16611f5a919061500d565b92506101000a81548163ffffffff021916908363ffffffff1602179055503373ffffffffffffffffffffffffffffffffffffffff167fa1f6272bd30cbbdca1aa08df89cb0345fca6ba3d2ab5591f820c0565bfde86358383611fbc9190614f99565b6003604051611fcc929190615317565b60405180910390a25b897f0d811b25f46be617680172e1136ae79ebdc6f6ee0a149281b2c424c216aac4878a6040516120059190614cfb565b60405180910390a250505050505050505050565b5f805f805f8060065f60085f9054906101000a900460ff1660ff1660ff1681526020019081526020015f209050600860059054906101000a900463ffffffff1660085f9054906101000a900460ff16825f0160089054906101000a900461ffff16835f01600a9054906101000a900461ffff16845f01600c9054906101000a900461ffff1695509550955095509550509091929394565b600b81815481106120bf575f80fd5b905f5260205f20015f915054906101000a900473ffffffffffffffffffffffffffffffffffffffff1681565b6004602052805f5260405f205f91509050805f015490806003015f9054906101000a900460601b90806004015f9054906101000a900460601b908060040160149054906101000a900463ffffffff16905084565b600860019054906101000a900463ffffffff1681565b6003602052805f5260405f205f91509050805f015f9054906101000a900463ffffffff1690805f0160049054906101000a900463ffffffff1690805f0160089054906101000a900461ffff1690805f01600a9054906101000a900460ff1690805f01600b9054906101000a900460ff1690805f01600c9054906101000a900473ffffffffffffffffffffffffffffffffffffffff16908060010154908060020154905088565b6009818154811061220a575f80fd5b905f5260205f20015f915054906101000a900473ffffffffffffffffffffffffffffffffffffffff1681565b5f805f8481526020019081526020015f205f015f8373ffffffffffffffffffffffffffffffffffffffff1673ffffffffffffffffffffffffffffffffffffffff1681526020019081526020015f205f9054906101000a900460ff16905092915050565b600a81815481106122a8575f80fd5b905f5260205f20015f915054906101000a900473ffffffffffffffffffffffffffffffffffffffff1681565b5f801b81565b5f805f600980549050600a80549050600b80549050925092509250909192565b7f1cc919c29f80ec17d5122d6094a38c779a69e67adb66dad9ef82d2b34c27e84861232481613028565b60035f8581526020019081526020015f205f01600b9054906101000a900460ff1615612385576040517f08c379a000000000000000000000000000000000000000000000000000000000815260040161237c90615388565b60405180910390fd5b600160035f8681526020019081526020015f205f01600b6101000a81548160ff02191690831515021790555060065f60085f9054906101000a900460ff1660ff1660ff1681526020019081526020015f205f01600a81819054906101000a900461ffff16809291906123f690614f11565b91906101000a81548161ffff021916908361ffff16021790555050837f04576aed55ed132dfaa5e03bbc10500227270d0b188aec79a7bee1202b29396e8460405161244191906153f8565b60405180910390a250505050565b5f805f805f805f60025f8973ffffffffffffffffffffffffffffffffffffffff1673ffffffffffffffffffffffffffffffffffffffff1681526020019081526020015f209050805f015f9054906101000a900463ffffffff16815f0160049054906101000a900461ffff16825f0160069054906101000a900460ff16835f0160079054906101000a900460ff16845f0160089054906101000a900460ff16855f0160099054906101000a900460601b9650965096509650965096505091939550919395565b7f5164d5c7193030abda56ab2da6b1ecfb83373a1a97075675ab8548ca2be633d981565b5f805f805f805f805f60035f8b81526020019081526020015f209050805f015f9054906101000a900463ffffffff16815f0160049054906101000a900463ffffffff16825f0160089054906101000a900461ffff16835f01600a9054906101000a900460ff16845f01600b9054906101000a900460ff16855f01600c9054906101000a900473ffffffffffffffffffffffffffffffffffffffff16866001015487600201549850985098509850985098509850985050919395975091939597565b61260282610854565b61260b81613028565b612615838361312c565b50505050565b612623613542565b5f5a905060025f3373ffffffffffffffffffffffffffffffffffffffff1673ffffffffffffffffffffffffffffffffffffffff1681526020019081526020015f205f0160089054906101000a900460ff166126b3576040517f08c379a00000000000000000000000000000000000000000000000000000000081526004016126aa90614d75565b60405180910390fd5b60035f8581526020019081526020015f205f01600b9054906101000a900460ff1615612714576040517f08c379a000000000000000000000000000000000000000000000000000000000815260040161270b90615388565b60405180910390fd5b60035f8581526020019081526020015f205f0160049054906101000a900463ffffffff1663ffffffff16421115612780576040517f08c379a000000000000000000000000000000000000000000000000000000000815260040161277790615462565b60405180910390fd5b5f61287360025f3373ffffffffffffffffffffffffffffffffffffffff1673ffffffffffffffffffffffffffffffffffffffff1681526020019081526020015f205f015f9054906101000a900463ffffffff1660025f3373ffffffffffffffffffffffffffffffffffffffff1673ffffffffffffffffffffffffffffffffffffffff1681526020019081526020015f205f0160049054906101000a900461ffff1660025f3373ffffffffffffffffffffffffffffffffffffffff1673ffffffffffffffffffffffffffffffffffffffff1681526020019081526020015f205f0160069054906101000a900460ff16613591565b905061287f3a82613627565b6128be576040517f08c379a00000000000000000000000000000000000000000000000000000000081526004016128b5906154ca565b60405180910390fd5b5f85856040516020016128d2929190615542565b6040516020818303038152906040528051906020012090506128f5818533613656565b612934576040517f08c379a000000000000000000000000000000000000000000000000000000000815260040161292b906155b3565b60405180910390fd5b60025f3373ffffffffffffffffffffffffffffffffffffffff1673ffffffffffffffffffffffffffffffffffffffff1681526020019081526020015f205f01600481819054906101000a900461ffff168092919061299190614f11565b91906101000a81548161ffff021916908361ffff160217905550504260025f3373ffffffffffffffffffffffffffffffffffffffff1673ffffffffffffffffffffffffffffffffffffffff1681526020019081526020015f205f015f6101000a81548163ffffffff021916908363ffffffff1602179055505f5a84612a169190614f99565b90505f620124f8905081811115612ace578181612a339190614f99565b600860058282829054906101000a900463ffffffff16612a53919061500d565b92506101000a81548163ffffffff021916908363ffffffff1602179055503373ffffffffffffffffffffffffffffffffffffffff167fa1f6272bd30cbbdca1aa08df89cb0345fca6ba3d2ab5591f820c0565bfde86358383612ab59190614f99565b6004604051612ac592919061560a565b60405180910390a25b3373ffffffffffffffffffffffffffffffffffffffff16887f9f79486ad9ea94f6976d399420af3c64df0882cc5ba39b2235afbad75bdc0c8389604051612b1591906153f8565b60405180910390a35050505050612b2a6136c8565b505050565b6006602052805f5260405f205f91509050805f015f9054906101000a900463ffffffff1690805f0160049054906101000a900463ffffffff1690805f0160089054906101000a900461ffff1690805f01600a9054906101000a900461ffff1690805f01600c9054906101000a900461ffff1690805f01600e9054906101000a900460ff16905086565b6060805f6002811115612bce57612bcd614eb7565b5b836002811115612be157612be0614eb7565b5b03612c71576009805480602002602001604051908101604052809291908181526020018280548015612c6557602002820191905f5260205f20905b815f9054906101000a900473ffffffffffffffffffffffffffffffffffffffff1673ffffffffffffffffffffffffffffffffffffffff1681526020019060010190808311612c1c575b50505050509050612db0565b60016002811115612c8557612c84614eb7565b5b836002811115612c9857612c97614eb7565b5b03612d2857600a805480602002602001604051908101604052809291908181526020018280548015612d1c57602002820191905f5260205f20905b815f9054906101000a900473ffffffffffffffffffffffffffffffffffffffff1673ffffffffffffffffffffffffffffffffffffffff1681526020019060010190808311612cd3575b50505050509050612daf565b600b805480602002602001604051908101604052809291908181526020018280548015612da757602002820191905f5260205f20905b815f9054906101000a900473ffffffffffffffffffffffffffffffffffffffff1673ffffffffffffffffffffffffffffffffffffffff1681526020019060010190808311612d5e575b505050505090505b5b612dce816002856002811115612dc957612dc8614eb7565b5b6136d1565b915050919050565b600860059054906101000a900463ffffffff1681565b6005602052805f5260405f205f915090505481565b5f801b612e0d81613028565b60025f8373ffffffffffffffffffffffffffffffffffffffff1673ffffffffffffffffffffffffffffffffffffffff1681526020019081526020015f205f0160089054906101000a900460ff16612e99576040517f08c379a0000000000000000000000000000000000000000000000000000000008152600401612e9090614d75565b60405180910390fd5b5f60025f8473ffffffffffffffffffffffffffffffffffffffff1673ffffffffffffffffffffffffffffffffffffffff1681526020019081526020015f205f0160086101000a81548160ff02191690831515021790555060065f60085f9054906101000a900460ff1660ff1660ff1681526020019081526020015f205f01600c81819054906101000a900461ffff1680929190612f3590615631565b91906101000a81548161ffff021916908361ffff16021790555050612fbb8260025f8573ffffffffffffffffffffffffffffffffffffffff1673ffffffffffffffffffffffffffffffffffffffff1681526020019081526020015f205f0160079054906101000a900460ff1660ff166002811115612fb657612fb5614eb7565b5b61396e565b5050565b5f7f01ffc9a7000000000000000000000000000000000000000000000000000000007bffffffffffffffffffffffffffffffffffffffffffffffffffffffff1916827bffffffffffffffffffffffffffffffffffffffffffffffffffffffff1916149050919050565b61303981613034613125565b613b57565b50565b5f6130478383612236565b61311b5760015f808581526020019081526020015f205f015f8473ffffffffffffffffffffffffffffffffffffffff1673ffffffffffffffffffffffffffffffffffffffff1681526020019081526020015f205f6101000a81548160ff0219169083151502179055506130b8613125565b73ffffffffffffffffffffffffffffffffffffffff168273ffffffffffffffffffffffffffffffffffffffff16847f2f8788117e7eff1d82e926ec794901d17c78024a50270940304540a733656f0d60405160405180910390a46001905061311f565b5f90505b92915050565b5f33905090565b5f6131378383612236565b1561320b575f805f8581526020019081526020015f205f015f8473ffffffffffffffffffffffffffffffffffffffff1673ffffffffffffffffffffffffffffffffffffffff1681526020019081526020015f205f6101000a81548160ff0219169083151502179055506131a8613125565b73ffffffffffffffffffffffffffffffffffffffff168273ffffffffffffffffffffffffffffffffffffffff16847ff6391f5c32d9c69d2a47ea670b442974b53935d1edc7fd64eb21e047a839171b60405160405180910390a46001905061320f565b5f90505b92915050565b5f60065f60085f9054906101000a900460ff1660ff1660ff1681526020019081526020015f209050805f0160049054906101000a900463ffffffff1663ffffffff168263ffffffff16111561353e575f815f01600e6101000a81548160ff02191690831515021790555060085f81819054906101000a900460ff168092919061329d90615658565b91906101000a81548160ff021916908360ff160217905550506040518060c001604052806001835f0160049054906101000a900463ffffffff166132e1919061500d565b63ffffffff168152602001620151806001845f0160049054906101000a900463ffffffff16613310919061500d565b61331a919061500d565b63ffffffff1681526020015f61ffff1681526020015f61ffff168152602001600b80549050600a80549050600980549050613355919061515c565b61335f919061515c565b61ffff1681526020016001151581525060065f60085f9054906101000a900460ff1660ff1660ff1681526020019081526020015f205f820151815f015f6101000a81548163ffffffff021916908363ffffffff1602179055506020820151815f0160046101000a81548163ffffffff021916908363ffffffff1602179055506040820151815f0160086101000a81548161ffff021916908361ffff1602179055506060820151815f01600a6101000a81548161ffff021916908361ffff1602179055506080820151815f01600c6101000a81548161ffff021916908361ffff16021790555060a0820151815f01600e6101000a81548160ff02191690831515021790555090505081600860016101000a81548163ffffffff021916908363ffffffff1602179055507f9ae28b17c86e47121e7542173bc1dbdb1a41933f8ac1721648f6aa8baf274ca460085f9054906101000a900460ff1660065f60085f9054906101000a900460ff1660ff1660ff1681526020019081526020015f205f015f9054906101000a900463ffffffff1660065f60085f9054906101000a900460ff1660ff1660ff1681526020019081526020015f205f0160049054906101000a900463ffffffff1660405161353593929190615680565b60405180910390a15b5050565b600260015403613587576040517f08c379a000000000000000000000000000000000000000000000000000000000815260040161357e906156ff565b60405180910390fd5b6002600181905550565b5f8042905062015180816135a5919061571d565b63ffffffff168563ffffffff1611156135c2576001915050613620565b60c88360ff16106135d7576002915050613620565b6103e88461ffff1611156135ef576003915050613620565b62278d00816135fe919061571d565b63ffffffff168563ffffffff16101561361b576004915050613620565b5f9150505b9392505050565b5f640ba43b74008311801561363e57505f8260ff16145b1561364b575f9050613650565b600190505b92915050565b5f808460405160200161366991906157be565b6040516020818303038152906040528051906020012090505f61368c8286613ba8565b90508373ffffffffffffffffffffffffffffffffffffffff168173ffffffffffffffffffffffffffffffffffffffff1614925050509392505050565b60018081905550565b60605f80600a61ffff1667ffffffffffffffff8111156136f4576136f36141f4565b5b6040519080825280602002602001820160405280156137225781602001602082028036833780820191505090505b5090505f5b86518110801561373b5750600a61ffff1683105b15613894575f87828151811061375457613753614e8a565b5b602002602001015190505f875f8373ffffffffffffffffffffffffffffffffffffffff1673ffffffffffffffffffffffffffffffffffffffff1681526020019081526020015f209050805f0160089054906101000a900460ff1680156137cf57508660ff16815f0160079054906101000a900460ff1660ff16145b1561387f575f613813825f015f9054906101000a900463ffffffff16835f0160049054906101000a900461ffff16845f0160069054906101000a900460ff16613591565b905060028160ff161161387d578285878151811061383457613833614e8a565b5b602002602001019073ffffffffffffffffffffffffffffffffffffffff16908173ffffffffffffffffffffffffffffffffffffffff16815250508580613879906150ad565b9650505b505b5050808061388c906150ad565b915050613727565b505f8267ffffffffffffffff8111156138b0576138af6141f4565b5b6040519080825280602002602001820160405280156138de5781602001602082028036833780820191505090505b5090505f5b83811015613960578281815181106138fe576138fd614e8a565b5b602002602001015182828151811061391957613918614e8a565b5b602002602001019073ffffffffffffffffffffffffffffffffffffffff16908173ffffffffffffffffffffffffffffffffffffffff168152505080806001019150506138e3565b508093505050509392505050565b5f80600281111561398257613981614eb7565b5b82600281111561399557613994614eb7565b5b036139a357600990506139de565b600160028111156139b7576139b6614eb7565b5b8260028111156139ca576139c9614eb7565b5b036139d857600a90506139dd565b600b90505b5b5f5b8180549050811015613b51578373ffffffffffffffffffffffffffffffffffffffff16828281548110613a1657613a15614e8a565b5b905f5260205f20015f9054906101000a900473ffffffffffffffffffffffffffffffffffffffff1673ffffffffffffffffffffffffffffffffffffffff1603613b44578160018380549050613a6b9190614f99565b81548110613a7c57613a7b614e8a565b5b905f5260205f20015f9054906101000a900473ffffffffffffffffffffffffffffffffffffffff16828281548110613ab757613ab6614e8a565b5b905f5260205f20015f6101000a81548173ffffffffffffffffffffffffffffffffffffffff021916908373ffffffffffffffffffffffffffffffffffffffff16021790555081805480613b0d57613b0c6157e3565b5b600190038181905f5260205f20015f6101000a81549073ffffffffffffffffffffffffffffffffffffffff02191690559055613b51565b80806001019150506139e0565b50505050565b613b618282612236565b613ba45780826040517fe2517d3f000000000000000000000000000000000000000000000000000000008152600401613b9b929190615810565b60405180910390fd5b5050565b5f805f80613bb585613c12565b9250925092506001868285856040515f8152602001604052604051613bdd9493929190615837565b6020604051602081039080840390855afa158015613bfd573d5f803e3d5ffd5b50505060206040510351935050505092915050565b5f805f6041845114613c59576040517f08c379a0000000000000000000000000000000000000000000000000000000008152600401613c50906158c4565b60405180910390fd5b602084015192506040840151915060608401515f1a9050601b8160ff161015613c8c57601b81613c8991906158e2565b90505b9193909250565b828054828255905f5260205f20908101928215613d09579160200282015b82811115613d08578251825f6101000a81548173ffffffffffffffffffffffffffffffffffffffff021916908373ffffffffffffffffffffffffffffffffffffffff16021790555091602001919060010190613cb1565b5b509050613d169190613dc1565b5090565b828054828255905f5260205f2090600f01601090048101928215613db0579160200282015f5b83821115613d8057835183826101000a81548161ffff021916908361ffff1602179055509260200192600201602081600101049283019260010302613d40565b8015613dae5782816101000a81549061ffff0219169055600201602081600101049283019260010302613d80565b505b509050613dbd9190613dc1565b5090565b5b80821115613dd8575f815f905550600101613dc2565b5090565b5f604051905090565b5f80fd5b5f80fd5b5f7fffffffff0000000000000000000000000000000000000000000000000000000082169050919050565b613e2181613ded565b8114613e2b575f80fd5b50565b5f81359050613e3c81613e18565b92915050565b5f60208284031215613e5757613e56613de5565b5b5f613e6484828501613e2e565b91505092915050565b5f8115159050919050565b613e8181613e6d565b82525050565b5f602082019050613e9a5f830184613e78565b92915050565b5f60ff82169050919050565b613eb581613ea0565b82525050565b5f602082019050613ece5f830184613eac565b92915050565b5f819050919050565b613ee681613ed4565b82525050565b5f602082019050613eff5f830184613edd565b92915050565b613f0e81613ed4565b8114613f18575f80fd5b50565b5f81359050613f2981613f05565b92915050565b5f60208284031215613f4457613f43613de5565b5b5f613f5184828501613f1b565b91505092915050565b5f73ffffffffffffffffffffffffffffffffffffffff82169050919050565b5f613f8382613f5a565b9050919050565b613f9381613f79565b8114613f9d575f80fd5b50565b5f81359050613fae81613f8a565b92915050565b5f60208284031215613fc957613fc8613de5565b5b5f613fd684828501613fa0565b91505092915050565b5f63ffffffff82169050919050565b613ff781613fdf565b82525050565b5f61ffff82169050919050565b61401381613ffd565b82525050565b5f7fffffffffffffffffffffffffffffffffffffffff00000000000000000000000082169050919050565b61404d81614019565b82525050565b5f60c0820190506140665f830189613fee565b614073602083018861400a565b6140806040830187613eac565b61408d6060830186613eac565b61409a6080830185613e78565b6140a760a0830184614044565b979650505050505050565b5f819050919050565b6140c4816140b2565b81146140ce575f80fd5b50565b5f813590506140df816140bb565b92915050565b5f805f606084860312156140fc576140fb613de5565b5b5f61410986828701613fa0565b935050602061411a868287016140d1565b925050604061412b86828701613f1b565b9150509250925092565b5f806040838503121561414b5761414a613de5565b5b5f61415885828601613f1b565b925050602061416985828601613fa0565b9150509250929050565b5f60e0820190506141865f83018a613eac565b6141936020830189613fee565b6141a06040830188613fee565b6141ad606083018761400a565b6141ba608083018661400a565b6141c760a083018561400a565b6141d460c0830184613e78565b98975050505050505050565b5f80fd5b5f601f19601f8301169050919050565b7f4e487b71000000000000000000000000000000000000000000000000000000005f52604160045260245ffd5b61422a826141e4565b810181811067ffffffffffffffff82111715614249576142486141f4565b5b80604052505050565b5f61425b613ddc565b90506142678282614221565b919050565b5f67ffffffffffffffff821115614286576142856141f4565b5b602082029050602081019050919050565b5f80fd5b5f6142ad6142a88461426c565b614252565b905080838252602082019050602084028301858111156142d0576142cf614297565b5b835b818110156142f957806142e58882613fa0565b8452602084019350506020810190506142d2565b5050509392505050565b5f82601f830112614317576143166141e0565b5b813561432784826020860161429b565b91505092915050565b5f67ffffffffffffffff82111561434a576143496141f4565b5b602082029050602081019050919050565b60038110614367575f80fd5b50565b5f813590506143788161435b565b92915050565b5f61439061438b84614330565b614252565b905080838252602082019050602084028301858111156143b3576143b2614297565b5b835b818110156143dc57806143c8888261436a565b8452602084019350506020810190506143b5565b5050509392505050565b5f82601f8301126143fa576143f96141e0565b5b813561440a84826020860161437e565b91505092915050565b5f67ffffffffffffffff82111561442d5761442c6141f4565b5b602082029050602081019050919050565b5f61445061444b84614413565b614252565b9050808382526020820190506020840283018581111561447357614472614297565b5b835b8181101561449c57806144888882613f1b565b845260208401935050602081019050614475565b5050509392505050565b5f82601f8301126144ba576144b96141e0565b5b81356144ca84826020860161443e565b91505092915050565b5f805f606084860312156144ea576144e9613de5565b5b5f84013567ffffffffffffffff81111561450757614506613de9565b5b61451386828701614303565b935050602084013567ffffffffffffffff81111561453457614533613de9565b5b614540868287016143e6565b925050604084013567ffffffffffffffff81111561456157614560613de9565b5b61456d868287016144a6565b9150509250925092565b5f80fd5b5f67ffffffffffffffff821115614595576145946141f4565b5b61459e826141e4565b9050602081019050919050565b828183375f83830152505050565b5f6145cb6145c68461457b565b614252565b9050828152602081018484840111156145e7576145e6614577565b5b6145f28482856145ab565b509392505050565b5f82601f83011261460e5761460d6141e0565b5b813561461e8482602086016145b9565b91505092915050565b5f805f806080858703121561463f5761463e613de5565b5b5f61464c8782880161436a565b945050602085013567ffffffffffffffff81111561466d5761466c613de9565b5b614679878288016145fa565b935050604061468a878288016140d1565b925050606061469b87828801613f1b565b91505092959194509250565b6146b0816140b2565b82525050565b5f6020820190506146c95f8301846146a7565b92915050565b5f805f606084860312156146e6576146e5613de5565b5b5f6146f386828701613fa0565b93505060206147048682870161436a565b925050604061471586828701613f1b565b9150509250925092565b5f67ffffffffffffffff821115614739576147386141f4565b5b602082029050602081019050919050565b5f61475c6147578461471f565b614252565b9050808382526020820190506020840283018581111561477f5761477e614297565b5b835b818110156147a8578061479488826140d1565b845260208401935050602081019050614781565b5050509392505050565b5f82601f8301126147c6576147c56141e0565b5b81356147d684826020860161474a565b91505092915050565b5f805f805f60a086880312156147f8576147f7613de5565b5b5f61480588828901613f1b565b955050602086013567ffffffffffffffff81111561482657614825613de9565b5b61483288828901614303565b945050604086013567ffffffffffffffff81111561485357614852613de9565b5b61485f888289016147b2565b935050606061487088828901613f1b565b925050608061488188828901613f1b565b9150509295509295909350565b5f60a0820190506148a15f830188613fee565b6148ae6020830187613eac565b6148bb604083018661400a565b6148c8606083018561400a565b6148d5608083018461400a565b9695505050505050565b5f602082840312156148f4576148f3613de5565b5b5f614901848285016140d1565b91505092915050565b61491381613f79565b82525050565b5f60208201905061492c5f83018461490a565b92915050565b5f6080820190506149455f830187613edd565b6149526020830186614044565b61495f6040830185614044565b61496c6060830184613fee565b95945050505050565b5f6020820190506149885f830184613fee565b92915050565b5f610100820190506149a25f83018b613fee565b6149af602083018a613fee565b6149bc604083018961400a565b6149c96060830188613eac565b6149d66080830187613e78565b6149e360a083018661490a565b6149f060c0830185613edd565b6149fd60e0830184613edd565b9998505050505050505050565b5f606082019050614a1d5f8301866146a7565b614a2a60208301856146a7565b614a3760408301846146a7565b949350505050565b5f67ffffffffffffffff821115614a5957614a586141f4565b5b614a62826141e4565b9050602081019050919050565b5f614a81614a7c84614a3f565b614252565b905082815260208101848484011115614a9d57614a9c614577565b5b614aa88482856145ab565b509392505050565b5f82601f830112614ac457614ac36141e0565b5b8135614ad4848260208601614a6f565b91505092915050565b5f805f60608486031215614af457614af3613de5565b5b5f614b01868287016140d1565b935050602084013567ffffffffffffffff811115614b2257614b21613de9565b5b614b2e86828701614ab0565b925050604084013567ffffffffffffffff811115614b4f57614b4e613de9565b5b614b5b86828701614ab0565b9150509250925092565b614b6e81613ea0565b8114614b78575f80fd5b50565b5f81359050614b8981614b65565b92915050565b5f60208284031215614ba457614ba3613de5565b5b5f614bb184828501614b7b565b91505092915050565b5f60c082019050614bcd5f830189613fee565b614bda6020830188613fee565b614be7604083018761400a565b614bf4606083018661400a565b614c01608083018561400a565b614c0e60a0830184613e78565b979650505050505050565b5f60208284031215614c2e57614c2d613de5565b5b5f614c3b8482850161436a565b91505092915050565b5f81519050919050565b5f82825260208201905092915050565b5f819050602082019050919050565b614c7681613f79565b82525050565b5f614c878383614c6d565b60208301905092915050565b5f602082019050919050565b5f614ca982614c44565b614cb38185614c4e565b9350614cbe83614c5e565b805f5b83811015614cee578151614cd58882614c7c565b9750614ce083614c93565b925050600181019050614cc1565b5085935050505092915050565b5f6020820190508181035f830152614d138184614c9f565b905092915050565b5f82825260208201905092915050565b7f4f7261636c65206e6f74206163746976650000000000000000000000000000005f82015250565b5f614d5f601183614d1b565b9150614d6a82614d2b565b602082019050919050565b5f6020820190508181035f830152614d8c81614d53565b9050919050565b5f604082019050614da65f8301856146a7565b614db36020830184613edd565b9392505050565b7f4172726179206c656e677468206d69736d6174636800000000000000000000005f82015250565b5f614dee601583614d1b565b9150614df982614dba565b602082019050919050565b5f6020820190508181035f830152614e1b81614de2565b9050919050565b7f42617463682073697a65206578636565646564000000000000000000000000005f82015250565b5f614e56601383614d1b565b9150614e6182614e22565b602082019050919050565b5f6020820190508181035f830152614e8381614e4a565b9050919050565b7f4e487b71000000000000000000000000000000000000000000000000000000005f52603260045260245ffd5b7f4e487b71000000000000000000000000000000000000000000000000000000005f52602160045260245ffd5b7f4e487b71000000000000000000000000000000000000000000000000000000005f52601160045260245ffd5b5f614f1b82613ffd565b915061ffff8203614f2f57614f2e614ee4565b5b600182019050919050565b60038110614f4b57614f4a614eb7565b5b50565b5f819050614f5b82614f3a565b919050565b5f614f6a82614f4e565b9050919050565b614f7a81614f60565b82525050565b5f602082019050614f935f830184614f71565b92915050565b5f614fa3826140b2565b9150614fae836140b2565b9250828203905081811115614fc657614fc5614ee4565b5b92915050565b5f614fd6826140b2565b9150614fe1836140b2565b9250828202614fef816140b2565b9150828204841483151761500657615005614ee4565b5b5092915050565b5f61501782613fdf565b915061502283613fdf565b9250828201905063ffffffff81111561503e5761503d614ee4565b5b92915050565b5f819050919050565b5f819050919050565b5f61507061506b61506684615044565b61504d565b613ea0565b9050919050565b61508081615056565b82525050565b5f6040820190506150995f8301856146a7565b6150a66020830184615077565b9392505050565b5f6150b7826140b2565b91507fffffffffffffffffffffffffffffffffffffffffffffffffffffffffffffffff82036150e9576150e8614ee4565b5b600182019050919050565b5f81519050919050565b5f81905092915050565b8281835e5f83830152505050565b5f615120826150f4565b61512a81856150fe565b935061513a818560208601615108565b80840191505092915050565b5f6151518284615116565b915081905092915050565b5f615166826140b2565b9150615171836140b2565b925082820190508082111561518957615188614ee4565b5b92915050565b5f819050919050565b5f6151b26151ad6151a88461518f565b61504d565b613ea0565b9050919050565b6151c281615198565b82525050565b5f6040820190506151db5f8301856146a7565b6151e860208301846151b9565b9392505050565b5f6040820190506152025f830185614f71565b61520f6020830184613edd565b9392505050565b7f4f7261636c6520616c72656164792072656769737465726564000000000000005f82015250565b5f61524a601983614d1b565b915061525582615216565b602082019050919050565b5f6020820190508181035f8301526152778161523e565b9050919050565b5f819050919050565b5f6152a161529c6152978461527e565b61504d565b613ea0565b9050919050565b6152b181615287565b82525050565b5f6040820190506152ca5f8301856146a7565b6152d760208301846152a8565b9392505050565b5f819050919050565b5f6153016152fc6152f7846152de565b61504d565b613ea0565b9050919050565b615311816152e7565b82525050565b5f60408201905061532a5f8301856146a7565b6153376020830184615308565b9392505050565b7f5461736b20616c726561647920636f6d706c65746564000000000000000000005f82015250565b5f615372601683614d1b565b915061537d8261533e565b602082019050919050565b5f6020820190508181035f83015261539f81615366565b9050919050565b5f81519050919050565b5f82825260208201905092915050565b5f6153ca826153a6565b6153d481856153b0565b93506153e4818560208601615108565b6153ed816141e4565b840191505092915050565b5f6020820190508181035f83015261541081846153c0565b905092915050565b7f5461736b206578706972656400000000000000000000000000000000000000005f82015250565b5f61544c600c83614d1b565b915061545782615418565b602082019050919050565b5f6020820190508181035f83015261547981615440565b9050919050565b7f44656665727265642064756520746f20686967682067617320707269636573005f82015250565b5f6154b4601f83614d1b565b91506154bf82615480565b602082019050919050565b5f6020820190508181035f8301526154e1816154a8565b9050919050565b5f819050919050565b6155026154fd826140b2565b6154e8565b82525050565b5f81905092915050565b5f61551c826153a6565b6155268185615508565b9350615536818560208601615108565b80840191505092915050565b5f61554d82856154f1565b60208201915061555d8284615512565b91508190509392505050565b7f496e76616c6964207369676e61747572650000000000000000000000000000005f82015250565b5f61559d601183614d1b565b91506155a882615569565b602082019050919050565b5f6020820190508181035f8301526155ca81615591565b9050919050565b5f819050919050565b5f6155f46155ef6155ea846155d1565b61504d565b613ea0565b9050919050565b615604816155da565b82525050565b5f60408201905061561d5f8301856146a7565b61562a60208301846155fb565b9392505050565b5f61563b82613ffd565b91505f820361564d5761564c614ee4565b5b600182039050919050565b5f61566282613ea0565b915060ff820361567557615674614ee4565b5b600182019050919050565b5f6060820190506156935f830186613eac565b6156a06020830185613fee565b6156ad6040830184613fee565b949350505050565b7f5265656e7472616e637947756172643a207265656e7472616e742063616c6c005f82015250565b5f6156e9601f83614d1b565b91506156f4826156b5565b602082019050919050565b5f6020820190508181035f830152615716816156dd565b9050919050565b5f61572782613fdf565b915061573283613fdf565b9250828203905063ffffffff81111561574e5761574d614ee4565b5b92915050565b7f19457468657265756d205369676e6564204d6573736167653a0a3332000000005f82015250565b5f615788601c836150fe565b915061579382615754565b601c82019050919050565b5f819050919050565b6157b86157b382613ed4565b61579e565b82525050565b5f6157c88261577c565b91506157d482846157a7565b60208201915081905092915050565b7f4e487b71000000000000000000000000000000000000000000000000000000005f52603160045260245ffd5b5f6040820190506158235f83018561490a565b6158306020830184613edd565b9392505050565b5f60808201905061584a5f830187613edd565b6158576020830186613eac565b6158646040830185613edd565b6158716060830184613edd565b95945050505050565b7f496e76616c6964207369676e6174757265206c656e67746800000000000000005f82015250565b5f6158ae601883614d1b565b91506158b98261587a565b602082019050919050565b5f6020820190508181035f8301526158db816158a2565b9050919050565b5f6158ec82613ea0565b91506158f783613ea0565b9250828201905060ff8111156159105761590f614ee4565b5b9291505056fea2646970667358221220cf2147be50a50dbbc95a151f1c25cf87ed056a2f8b939533b26f70588e97ff9a64736f6c634300081a0033",
			"opcodes": "PUSH1 0x80 PUSH1 0x40 MSTORE CALLVALUE DUP1 ISZERO PUSH2 0xF JUMPI PUSH0 DUP1 REVERT JUMPDEST POP PUSH1 0x1 DUP1 DUP2 SWAP1 SSTORE POP PUSH2 0x29 PUSH0 DUP1 SHL CALLER PUSH2 0x1A8 PUSH1 0x20 SHL PUSH1 0x20 SHR JUMP JUMPDEST POP PUSH1 0x1 PUSH1 0x8 PUSH0 PUSH2 0x100 EXP DUP2 SLOAD DUP2 PUSH1 0xFF MUL NOT AND SWAP1 DUP4 PUSH1 0xFF AND MUL OR SWAP1 SSTORE POP TIMESTAMP PUSH1 0x8 PUSH1 0x1 PUSH2 0x100 EXP DUP2 SLOAD DUP2 PUSH4 0xFFFFFFFF MUL NOT AND SWAP1 DUP4 PUSH4 0xFFFFFFFF AND MUL OR SWAP1 SSTORE POP PUSH1 0x40 MLOAD DUP1 PUSH1 0xC0 ADD PUSH1 0x40 MSTORE DUP1 TIMESTAMP PUSH4 0xFFFFFFFF AND DUP2 MSTORE PUSH1 0x20 ADD PUSH3 0x15180 TIMESTAMP PUSH2 0x8C SWAP2 SWAP1 PUSH2 0x343 JUMP JUMPDEST PUSH4 0xFFFFFFFF AND DUP2 MSTORE PUSH1 0x20 ADD PUSH0 PUSH2 0xFFFF AND DUP2 MSTORE PUSH1 0x20 ADD PUSH0 PUSH2 0xFFFF AND DUP2 MSTORE PUSH1 0x20 ADD PUSH0 PUSH2 0xFFFF AND DUP2 MSTORE PUSH1 0x20 ADD PUSH1 0x1 ISZERO ISZERO DUP2 MSTORE POP PUSH1 0x6 PUSH0 PUSH1 0x1 PUSH1 0xFF AND DUP2 MSTORE PUSH1 0x20 ADD SWAP1 DUP2 MSTORE PUSH1 0x20 ADD PUSH0 KECCAK256 PUSH0 DUP3 ADD MLOAD DUP2 PUSH0 ADD PUSH0 PUSH2 0x100 EXP DUP2 SLOAD DUP2 PUSH4 0xFFFFFFFF MUL NOT AND SWAP1 DUP4 PUSH4 0xFFFFFFFF AND MUL OR SWAP1 SSTORE POP PUSH1 0x20 DUP3 ADD MLOAD DUP2 PUSH0 ADD PUSH1 0x4 PUSH2 0x100 EXP DUP2 SLOAD DUP2 PUSH4 0xFFFFFFFF MUL NOT AND SWAP1 DUP4 PUSH4 0xFFFFFFFF AND MUL OR SWAP1 SSTORE POP PUSH1 0x40 DUP3 ADD MLOAD DUP2 PUSH0 ADD PUSH1 0x8 PUSH2 0x100 EXP DUP2 SLOAD DUP2 PUSH2 0xFFFF MUL NOT AND SWAP1 DUP4 PUSH2 0xFFFF AND MUL OR SWAP1 SSTORE POP PUSH1 0x60 DUP3 ADD MLOAD DUP2 PUSH0 ADD PUSH1 0xA PUSH2 0x100 EXP DUP2 SLOAD DUP2 PUSH2 0xFFFF MUL NOT AND SWAP1 DUP4 PUSH2 0xFFFF AND MUL OR SWAP1 SSTORE POP PUSH1 0x80 DUP3 ADD MLOAD DUP2 PUSH0 ADD PUSH1 0xC PUSH2 0x100 EXP DUP2 SLOAD DUP2 PUSH2 0xFFFF MUL NOT AND SWAP1 DUP4 PUSH2 0xFFFF AND MUL OR SWAP1 SSTORE POP PUSH1 0xA0 DUP3 ADD MLOAD DUP2 PUSH0 ADD PUSH1 0xE PUSH2 0x100 EXP DUP2 SLOAD DUP2 PUSH1 0xFF MUL NOT AND SWAP1 DUP4 ISZERO ISZERO MUL OR SWAP1 SSTORE POP SWAP1 POP POP PUSH2 0x37A JUMP JUMPDEST PUSH0 PUSH2 0x1B9 DUP4 DUP4 PUSH2 0x29D PUSH1 0x20 SHL PUSH1 0x20 SHR JUMP JUMPDEST PUSH2 0x293 JUMPI PUSH1 0x1 PUSH0 DUP1 DUP6 DUP2 MSTORE PUSH1 0x20 ADD SWAP1 DUP2 MSTORE PUSH1 0x20 ADD PUSH0 KECCAK256 PUSH0 ADD PUSH0 DUP5 PUSH20 0xFFFFFFFFFFFFFFFFFFFFFFFFFFFFFFFFFFFFFFFF AND PUSH20 0xFFFFFFFFFFFFFFFFFFFFFFFFFFFFFFFFFFFFFFFF AND DUP2 MSTORE PUSH1 0x20 ADD SWAP1 DUP2 MSTORE PUSH1 0x20 ADD PUSH0 KECCAK256 PUSH0 PUSH2 0x100 EXP DUP2 SLOAD DUP2 PUSH1 0xFF MUL NOT AND SWAP1 DUP4 ISZERO ISZERO MUL OR SWAP1 SSTORE POP PUSH2 0x230 PUSH2 0x300 PUSH1 0x20 SHL PUSH1 0x20 SHR JUMP JUMPDEST PUSH20 0xFFFFFFFFFFFFFFFFFFFFFFFFFFFFFFFFFFFFFFFF AND DUP3 PUSH20 0xFFFFFFFFFFFFFFFFFFFFFFFFFFFFFFFFFFFFFFFF AND DUP5 PUSH32 0x2F8788117E7EFF1D82E926EC794901D17C78024A50270940304540A733656F0D PUSH1 0x40 MLOAD PUSH1 0x40 MLOAD DUP1 SWAP2 SUB SWAP1 LOG4 PUSH1 0x1 SWAP1 POP PUSH2 0x297 JUMP JUMPDEST PUSH0 SWAP1 POP JUMPDEST SWAP3 SWAP2 POP POP JUMP JUMPDEST PUSH0 DUP1 PUSH0 DUP5 DUP2 MSTORE PUSH1 0x20 ADD SWAP1 DUP2 MSTORE PUSH1 0x20 ADD PUSH0 KECCAK256 PUSH0 ADD PUSH0 DUP4 PUSH20 0xFFFFFFFFFFFFFFFFFFFFFFFFFFFFFFFFFFFFFFFF AND PUSH20 0xFFFFFFFFFFFFFFFFFFFFFFFFFFFFFFFFFFFFFFFF AND DUP2 MSTORE PUSH1 0x20 ADD SWAP1 DUP2 MSTORE PUSH1 0x20 ADD PUSH0 KECCAK256 PUSH0 SWAP1 SLOAD SWAP1 PUSH2 0x100 EXP SWAP1 DIV PUSH1 0xFF AND SWAP1 POP SWAP3 SWAP2 POP POP JUMP JUMPDEST PUSH0 CALLER SWAP1 POP SWAP1 JUMP JUMPDEST PUSH0 PUSH4 0xFFFFFFFF DUP3 AND SWAP1 POP SWAP2 SWAP1 POP JUMP JUMPDEST PUSH32 0x4E487B7100000000000000000000000000000000000000000000000000000000 PUSH0 MSTORE PUSH1 0x11 PUSH1 0x4 MSTORE PUSH1 0x24 PUSH0 REVERT JUMPDEST PUSH0 PUSH2 0x34D DUP3 PUSH2 0x307 JUMP JUMPDEST SWAP2 POP PUSH2 0x358 DUP4 PUSH2 0x307 JUMP JUMPDEST SWAP3 POP DUP3 DUP3 ADD SWAP1 POP PUSH4 0xFFFFFFFF DUP2 GT ISZERO PUSH2 0x374 JUMPI PUSH2 0x373 PUSH2 0x316 JUMP JUMPDEST JUMPDEST SWAP3 SWAP2 POP POP JUMP JUMPDEST PUSH2 0x594C DUP1 PUSH2 0x387 PUSH0 CODECOPY PUSH0 RETURN INVALID PUSH1 0x80 PUSH1 0x40 MSTORE CALLVALUE DUP1 ISZERO PUSH2 0xF JUMPI PUSH0 DUP1 REVERT JUMPDEST POP PUSH1 0x4 CALLDATASIZE LT PUSH2 0x225 JUMPI PUSH0 CALLDATALOAD PUSH1 0xE0 SHR DUP1 PUSH4 0x83868A68 GT PUSH2 0x12E JUMPI DUP1 PUSH4 0xBFDB6B04 GT PUSH2 0xB6 JUMPI DUP1 PUSH4 0xDEA931C1 GT PUSH2 0x7A JUMPI DUP1 PUSH4 0xDEA931C1 EQ PUSH2 0x6D6 JUMPI DUP1 PUSH4 0xDF886F6F EQ PUSH2 0x70B JUMPI DUP1 PUSH4 0xE312148D EQ PUSH2 0x73B JUMPI DUP1 PUSH4 0xE6DA3781 EQ PUSH2 0x759 JUMPI DUP1 PUSH4 0xED69C604 EQ PUSH2 0x789 JUMPI PUSH2 0x225 JUMP JUMPDEST DUP1 PUSH4 0xBFDB6B04 EQ PUSH2 0x614 JUMPI DUP1 PUSH4 0xC396CBF4 EQ PUSH2 0x649 JUMPI DUP1 PUSH4 0xD1A1B999 EQ PUSH2 0x667 JUMPI DUP1 PUSH4 0xD547741F EQ PUSH2 0x69E JUMPI DUP1 PUSH4 0xD634E854 EQ PUSH2 0x6BA JUMPI PUSH2 0x225 JUMP JUMPDEST DUP1 PUSH4 0x91D14854 GT PUSH2 0xFD JUMPI DUP1 PUSH4 0x91D14854 EQ PUSH2 0x55A JUMPI DUP1 PUSH4 0x989B7531 EQ PUSH2 0x58A JUMPI DUP1 PUSH4 0xA217FDDF EQ PUSH2 0x5BA JUMPI DUP1 PUSH4 0xB6DF0348 EQ PUSH2 0x5D8 JUMPI DUP1 PUSH4 0xB87832AF EQ PUSH2 0x5F8 JUMPI PUSH2 0x225 JUMP JUMPDEST DUP1 PUSH4 0x83868A68 EQ PUSH2 0x4A2 JUMPI DUP1 PUSH4 0x87886960 EQ PUSH2 0x4D5 JUMPI DUP1 PUSH4 0x8D977672 EQ PUSH2 0x4F3 JUMPI DUP1 PUSH4 0x8F91CC55 EQ PUSH2 0x52A JUMPI PUSH2 0x225 JUMP JUMPDEST DUP1 PUSH4 0x36568ABE GT PUSH2 0x1B1 JUMPI DUP1 PUSH4 0x58671730 GT PUSH2 0x180 JUMPI DUP1 PUSH4 0x58671730 EQ PUSH2 0x3F8 JUMPI DUP1 PUSH4 0x69DE70CD EQ PUSH2 0x416 JUMPI DUP1 PUSH4 0x6FBC6240 EQ PUSH2 0x434 JUMPI DUP1 PUSH4 0x70DDA1C4 EQ PUSH2 0x450 JUMPI DUP1 PUSH4 0x822FB61A EQ PUSH2 0x472 JUMPI PUSH2 0x225 JUMP JUMPDEST DUP1 PUSH4 0x36568ABE EQ PUSH2 0x372 JUMPI DUP1 PUSH4 0x41C8C32D EQ PUSH2 0x38E JUMPI DUP1 PUSH4 0x4E2B46FC EQ PUSH2 0x3BE JUMPI DUP1 PUSH4 0x50DDDC49 EQ PUSH2 0x3DC JUMPI PUSH2 0x225 JUMP JUMPDEST DUP1 PUSH4 0x2849463E GT PUSH2 0x1F8 JUMPI DUP1 PUSH4 0x2849463E EQ PUSH2 0x2C5 JUMPI DUP1 PUSH4 0x29DEA1B5 EQ PUSH2 0x2FA JUMPI DUP1 PUSH4 0x2F2FF15D EQ PUSH2 0x316 JUMPI DUP1 PUSH4 0x2FCC207B EQ PUSH2 0x332 JUMPI DUP1 PUSH4 0x2FEC3175 EQ PUSH2 0x356 JUMPI PUSH2 0x225 JUMP JUMPDEST DUP1 PUSH4 0x1FFC9A7 EQ PUSH2 0x229 JUMPI DUP1 PUSH4 0x58DD22E EQ PUSH2 0x259 JUMPI DUP1 PUSH4 0x19AD44FC EQ PUSH2 0x277 JUMPI DUP1 PUSH4 0x248A9CA3 EQ PUSH2 0x295 JUMPI JUMPDEST PUSH0 DUP1 REVERT JUMPDEST PUSH2 0x243 PUSH1 0x4 DUP1 CALLDATASIZE SUB DUP2 ADD SWAP1 PUSH2 0x23E SWAP2 SWAP1 PUSH2 0x3E42 JUMP JUMPDEST PUSH2 0x7A5 JUMP JUMPDEST PUSH1 0x40 MLOAD PUSH2 0x250 SWAP2 SWAP1 PUSH2 0x3E87 JUMP JUMPDEST PUSH1 0x40 MLOAD DUP1 SWAP2 SUB SWAP1 RETURN JUMPDEST PUSH2 0x261 PUSH2 0x81E JUMP JUMPDEST PUSH1 0x40 MLOAD PUSH2 0x26E SWAP2 SWAP1 PUSH2 0x3EBB JUMP JUMPDEST PUSH1 0x40 MLOAD DUP1 SWAP2 SUB SWAP1 RETURN JUMPDEST PUSH2 0x27F PUSH2 0x830 JUMP JUMPDEST PUSH1 0x40 MLOAD PUSH2 0x28C SWAP2 SWAP1 PUSH2 0x3EEC JUMP JUMPDEST PUSH1 0x40 MLOAD DUP1 SWAP2 SUB SWAP1 RETURN JUMPDEST PUSH2 0x2AF PUSH1 0x4 DUP1 CALLDATASIZE SUB DUP2 ADD SWAP1 PUSH2 0x2AA SWAP2 SWAP1 PUSH2 0x3F2F JUMP JUMPDEST PUSH2 0x854 JUMP JUMPDEST PUSH1 0x40 MLOAD PUSH2 0x2BC SWAP2 SWAP1 PUSH2 0x3EEC JUMP JUMPDEST PUSH1 0x40 MLOAD DUP1 SWAP2 SUB SWAP1 RETURN JUMPDEST PUSH2 0x2DF PUSH1 0x4 DUP1 CALLDATASIZE SUB DUP2 ADD SWAP1 PUSH2 0x2DA SWAP2 SWAP1 PUSH2 0x3FB4 JUMP JUMPDEST PUSH2 0x870 JUMP JUMPDEST PUSH1 0x40 MLOAD PUSH2 0x2F1 SWAP7 SWAP6 SWAP5 SWAP4 SWAP3 SWAP2 SWAP1 PUSH2 0x4053 JUMP JUMPDEST PUSH1 0x40 MLOAD DUP1 SWAP2 SUB SWAP1 RETURN JUMPDEST PUSH2 0x314 PUSH1 0x4 DUP1 CALLDATASIZE SUB DUP2 ADD SWAP1 PUSH2 0x30F SWAP2 SWAP1 PUSH2 0x40E5 JUMP JUMPDEST PUSH2 0x8F4 JUMP JUMPDEST STOP JUMPDEST PUSH2 0x330 PUSH1 0x4 DUP1 CALLDATASIZE SUB DUP2 ADD SWAP1 PUSH2 0x32B SWAP2 SWAP1 PUSH2 0x4135 JUMP JUMPDEST PUSH2 0xAC5 JUMP JUMPDEST STOP JUMPDEST PUSH2 0x33A PUSH2 0xAE7 JUMP JUMPDEST PUSH1 0x40 MLOAD PUSH2 0x34D SWAP8 SWAP7 SWAP6 SWAP5 SWAP4 SWAP3 SWAP2 SWAP1 PUSH2 0x4173 JUMP JUMPDEST PUSH1 0x40 MLOAD DUP1 SWAP2 SUB SWAP1 RETURN JUMPDEST PUSH2 0x370 PUSH1 0x4 DUP1 CALLDATASIZE SUB DUP2 ADD SWAP1 PUSH2 0x36B SWAP2 SWAP1 PUSH2 0x44D3 JUMP JUMPDEST PUSH2 0xBAB JUMP JUMPDEST STOP JUMPDEST PUSH2 0x38C PUSH1 0x4 DUP1 CALLDATASIZE SUB DUP2 ADD SWAP1 PUSH2 0x387 SWAP2 SWAP1 PUSH2 0x4135 JUMP JUMPDEST PUSH2 0x1350 JUMP JUMPDEST STOP JUMPDEST PUSH2 0x3A8 PUSH1 0x4 DUP1 CALLDATASIZE SUB DUP2 ADD SWAP1 PUSH2 0x3A3 SWAP2 SWAP1 PUSH2 0x4627 JUMP JUMPDEST PUSH2 0x13CB JUMP JUMPDEST PUSH1 0x40 MLOAD PUSH2 0x3B5 SWAP2 SWAP1 PUSH2 0x46B6 JUMP JUMPDEST PUSH1 0x40 MLOAD DUP1 SWAP2 SUB SWAP1 RETURN JUMPDEST PUSH2 0x3C6 PUSH2 0x1726 JUMP JUMPDEST PUSH1 0x40 MLOAD PUSH2 0x3D3 SWAP2 SWAP1 PUSH2 0x3EEC JUMP JUMPDEST PUSH1 0x40 MLOAD DUP1 SWAP2 SUB SWAP1 RETURN JUMPDEST PUSH2 0x3F6 PUSH1 0x4 DUP1 CALLDATASIZE SUB DUP2 ADD SWAP1 PUSH2 0x3F1 SWAP2 SWAP1 PUSH2 0x46CF JUMP JUMPDEST PUSH2 0x174A JUMP JUMPDEST STOP JUMPDEST PUSH2 0x400 PUSH2 0x1CAE JUMP JUMPDEST PUSH1 0x40 MLOAD PUSH2 0x40D SWAP2 SWAP1 PUSH2 0x46B6 JUMP JUMPDEST PUSH1 0x40 MLOAD DUP1 SWAP2 SUB SWAP1 RETURN JUMPDEST PUSH2 0x41E PUSH2 0x1CB4 JUMP JUMPDEST PUSH1 0x40 MLOAD PUSH2 0x42B SWAP2 SWAP1 PUSH2 0x3EEC JUMP JUMPDEST PUSH1 0x40 MLOAD DUP1 SWAP2 SUB SWAP1 RETURN JUMPDEST PUSH2 0x44E PUSH1 0x4 DUP1 CALLDATASIZE SUB DUP2 ADD SWAP1 PUSH2 0x449 SWAP2 SWAP1 PUSH2 0x47DF JUMP JUMPDEST PUSH2 0x1CD8 JUMP JUMPDEST STOP JUMPDEST PUSH2 0x458 PUSH2 0x2019 JUMP JUMPDEST PUSH1 0x40 MLOAD PUSH2 0x469 SWAP6 SWAP5 SWAP4 SWAP3 SWAP2 SWAP1 PUSH2 0x488E JUMP JUMPDEST PUSH1 0x40 MLOAD DUP1 SWAP2 SUB SWAP1 RETURN JUMPDEST PUSH2 0x48C PUSH1 0x4 DUP1 CALLDATASIZE SUB DUP2 ADD SWAP1 PUSH2 0x487 SWAP2 SWAP1 PUSH2 0x48DF JUMP JUMPDEST PUSH2 0x20B0 JUMP JUMPDEST PUSH1 0x40 MLOAD PUSH2 0x499 SWAP2 SWAP1 PUSH2 0x4919 JUMP JUMPDEST PUSH1 0x40 MLOAD DUP1 SWAP2 SUB SWAP1 RETURN JUMPDEST PUSH2 0x4BC PUSH1 0x4 DUP1 CALLDATASIZE SUB DUP2 ADD SWAP1 PUSH2 0x4B7 SWAP2 SWAP1 PUSH2 0x3F2F JUMP JUMPDEST PUSH2 0x20EB JUMP JUMPDEST PUSH1 0x40 MLOAD PUSH2 0x4CC SWAP5 SWAP4 SWAP3 SWAP2 SWAP1 PUSH2 0x4932 JUMP JUMPDEST PUSH1 0x40 MLOAD DUP1 SWAP2 SUB SWAP1 RETURN JUMPDEST PUSH2 0x4DD PUSH2 0x213F JUMP JUMPDEST PUSH1 0x40 MLOAD PUSH2 0x4EA SWAP2 SWAP1 PUSH2 0x4975 JUMP JUMPDEST PUSH1 0x40 MLOAD DUP1 SWAP2 SUB SWAP1 RETURN JUMPDEST PUSH2 0x50D PUSH1 0x4 DUP1 CALLDATASIZE SUB DUP2 ADD SWAP1 PUSH2 0x508 SWAP2 SWAP1 PUSH2 0x48DF JUMP JUMPDEST PUSH2 0x2155 JUMP JUMPDEST PUSH1 0x40 MLOAD PUSH2 0x521 SWAP9 SWAP8 SWAP7 SWAP6 SWAP5 SWAP4 SWAP3 SWAP2 SWAP1 PUSH2 0x498E JUMP JUMPDEST PUSH1 0x40 MLOAD DUP1 SWAP2 SUB SWAP1 RETURN JUMPDEST PUSH2 0x544 PUSH1 0x4 DUP1 CALLDATASIZE SUB DUP2 ADD SWAP1 PUSH2 0x53F SWAP2 SWAP1 PUSH2 0x48DF JUMP JUMPDEST PUSH2 0x21FB JUMP JUMPDEST PUSH1 0x40 MLOAD PUSH2 0x551 SWAP2 SWAP1 PUSH2 0x4919 JUMP JUMPDEST PUSH1 0x40 MLOAD DUP1 SWAP2 SUB SWAP1 RETURN JUMPDEST PUSH2 0x574 PUSH1 0x4 DUP1 CALLDATASIZE SUB DUP2 ADD SWAP1 PUSH2 0x56F SWAP2 SWAP1 PUSH2 0x4135 JUMP JUMPDEST PUSH2 0x2236 JUMP JUMPDEST PUSH1 0x40 MLOAD PUSH2 0x581 SWAP2 SWAP1 PUSH2 0x3E87 JUMP JUMPDEST PUSH1 0x40 MLOAD DUP1 SWAP2 SUB SWAP1 RETURN JUMPDEST PUSH2 0x5A4 PUSH1 0x4 DUP1 CALLDATASIZE SUB DUP2 ADD SWAP1 PUSH2 0x59F SWAP2 SWAP1 PUSH2 0x48DF JUMP JUMPDEST PUSH2 0x2299 JUMP JUMPDEST PUSH1 0x40 MLOAD PUSH2 0x5B1 SWAP2 SWAP1 PUSH2 0x4919 JUMP JUMPDEST PUSH1 0x40 MLOAD DUP1 SWAP2 SUB SWAP1 RETURN JUMPDEST PUSH2 0x5C2 PUSH2 0x22D4 JUMP JUMPDEST PUSH1 0x40 MLOAD PUSH2 0x5CF SWAP2 SWAP1 PUSH2 0x3EEC JUMP JUMPDEST PUSH1 0x40 MLOAD DUP1 SWAP2 SUB SWAP1 RETURN JUMPDEST PUSH2 0x5E0 PUSH2 0x22DA JUMP JUMPDEST PUSH1 0x40 MLOAD PUSH2 0x5EF SWAP4 SWAP3 SWAP2 SWAP1 PUSH2 0x4A0A JUMP JUMPDEST PUSH1 0x40 MLOAD DUP1 SWAP2 SUB SWAP1 RETURN JUMPDEST PUSH2 0x612 PUSH1 0x4 DUP1 CALLDATASIZE SUB DUP2 ADD SWAP1 PUSH2 0x60D SWAP2 SWAP1 PUSH2 0x4ADD JUMP JUMPDEST PUSH2 0x22FA JUMP JUMPDEST STOP JUMPDEST PUSH2 0x62E PUSH1 0x4 DUP1 CALLDATASIZE SUB DUP2 ADD SWAP1 PUSH2 0x629 SWAP2 SWAP1 PUSH2 0x3FB4 JUMP JUMPDEST PUSH2 0x244F JUMP JUMPDEST PUSH1 0x40 MLOAD PUSH2 0x640 SWAP7 SWAP6 SWAP5 SWAP4 SWAP3 SWAP2 SWAP1 PUSH2 0x4053 JUMP JUMPDEST PUSH1 0x40 MLOAD DUP1 SWAP2 SUB SWAP1 RETURN JUMPDEST PUSH2 0x651 PUSH2 0x2514 JUMP JUMPDEST PUSH1 0x40 MLOAD PUSH2 0x65E SWAP2 SWAP1 PUSH2 0x3EEC JUMP JUMPDEST PUSH1 0x40 MLOAD DUP1 SWAP2 SUB SWAP1 RETURN JUMPDEST PUSH2 0x681 PUSH1 0x4 DUP1 CALLDATASIZE SUB DUP2 ADD SWAP1 PUSH2 0x67C SWAP2 SWAP1 PUSH2 0x48DF JUMP JUMPDEST PUSH2 0x2538 JUMP JUMPDEST PUSH1 0x40 MLOAD PUSH2 0x695 SWAP9 SWAP8 SWAP7 SWAP6 SWAP5 SWAP4 SWAP3 SWAP2 SWAP1 PUSH2 0x498E JUMP JUMPDEST PUSH1 0x40 MLOAD DUP1 SWAP2 SUB SWAP1 RETURN JUMPDEST PUSH2 0x6B8 PUSH1 0x4 DUP1 CALLDATASIZE SUB DUP2 ADD SWAP1 PUSH2 0x6B3 SWAP2 SWAP1 PUSH2 0x4135 JUMP JUMPDEST PUSH2 0x25F9 JUMP JUMPDEST STOP JUMPDEST PUSH2 0x6D4 PUSH1 0x4 DUP1 CALLDATASIZE SUB DUP2 ADD SWAP1 PUSH2 0x6CF SWAP2 SWAP1 PUSH2 0x4ADD JUMP JUMPDEST PUSH2 0x261B JUMP JUMPDEST STOP JUMPDEST PUSH2 0x6F0 PUSH1 0x4 DUP1 CALLDATASIZE SUB DUP2 ADD SWAP1 PUSH2 0x6EB SWAP2 SWAP1 PUSH2 0x4B8F JUMP JUMPDEST PUSH2 0x2B2F JUMP JUMPDEST PUSH1 0x40 MLOAD PUSH2 0x702 SWAP7 SWAP6 SWAP5 SWAP4 SWAP3 SWAP2 SWAP1 PUSH2 0x4BBA JUMP JUMPDEST PUSH1 0x40 MLOAD DUP1 SWAP2 SUB SWAP1 RETURN JUMPDEST PUSH2 0x725 PUSH1 0x4 DUP1 CALLDATASIZE SUB DUP2 ADD SWAP1 PUSH2 0x720 SWAP2 SWAP1 PUSH2 0x4C19 JUMP JUMPDEST PUSH2 0x2BB8 JUMP JUMPDEST PUSH1 0x40 MLOAD PUSH2 0x732 SWAP2 SWAP1 PUSH2 0x4CFB JUMP JUMPDEST PUSH1 0x40 MLOAD DUP1 SWAP2 SUB SWAP1 RETURN JUMPDEST PUSH2 0x743 PUSH2 0x2DD6 JUMP JUMPDEST PUSH1 0x40 MLOAD PUSH2 0x750 SWAP2 SWAP1 PUSH2 0x4975 JUMP JUMPDEST PUSH1 0x40 MLOAD DUP1 SWAP2 SUB SWAP1 RETURN JUMPDEST PUSH2 0x773 PUSH1 0x4 DUP1 CALLDATASIZE SUB DUP2 ADD SWAP1 PUSH2 0x76E SWAP2 SWAP1 PUSH2 0x3FB4 JUMP JUMPDEST PUSH2 0x2DEC JUMP JUMPDEST PUSH1 0x40 MLOAD PUSH2 0x780 SWAP2 SWAP1 PUSH2 0x3EEC JUMP JUMPDEST PUSH1 0x40 MLOAD DUP1 SWAP2 SUB SWAP1 RETURN JUMPDEST PUSH2 0x7A3 PUSH1 0x4 DUP1 CALLDATASIZE SUB DUP2 ADD SWAP1 PUSH2 0x79E SWAP2 SWAP1 PUSH2 0x3FB4 JUMP JUMPDEST PUSH2 0x2E01 JUMP JUMPDEST STOP JUMPDEST PUSH0 PUSH32 0x7965DB0B00000000000000000000000000000000000000000000000000000000 PUSH28 0xFFFFFFFFFFFFFFFFFFFFFFFFFFFFFFFFFFFFFFFFFFFFFFFFFFFFFFFF NOT AND DUP3 PUSH28 0xFFFFFFFFFFFFFFFFFFFFFFFFFFFFFFFFFFFFFFFFFFFFFFFFFFFFFFFF NOT AND EQ DUP1 PUSH2 0x817 JUMPI POP PUSH2 0x816 DUP3 PUSH2 0x2FBF JUMP JUMPDEST JUMPDEST SWAP1 POP SWAP2 SWAP1 POP JUMP JUMPDEST PUSH1 0x8 PUSH0 SWAP1 SLOAD SWAP1 PUSH2 0x100 EXP SWAP1 DIV PUSH1 0xFF AND DUP2 JUMP JUMPDEST PUSH32 0xE294E0330230CF86C7CC450E63C26273FD5DB16B0833AF197CCC2575F058A3A2 DUP2 JUMP JUMPDEST PUSH0 DUP1 PUSH0 DUP4 DUP2 MSTORE PUSH1 0x20 ADD SWAP1 DUP2 MSTORE PUSH1 0x20 ADD PUSH0 KECCAK256 PUSH1 0x1 ADD SLOAD SWAP1 POP SWAP2 SWAP1 POP JUMP JUMPDEST PUSH1 0x2 PUSH1 0x20 MSTORE DUP1 PUSH0 MSTORE PUSH1 0x40 PUSH0 KECCAK256 PUSH0 SWAP2 POP SWAP1 POP DUP1 PUSH0 ADD PUSH0 SWAP1 SLOAD SWAP1 PUSH2 0x100 EXP SWAP1 DIV PUSH4 0xFFFFFFFF AND SWAP1 DUP1 PUSH0 ADD PUSH1 0x4 SWAP1 SLOAD SWAP1 PUSH2 0x100 EXP SWAP1 DIV PUSH2 0xFFFF AND SWAP1 DUP1 PUSH0 ADD PUSH1 0x6 SWAP1 SLOAD SWAP1 PUSH2 0x100 EXP SWAP1 DIV PUSH1 0xFF AND SWAP1 DUP1 PUSH0 ADD PUSH1 0x7 SWAP1 SLOAD SWAP1 PUSH2 0x100 EXP SWAP1 DIV PUSH1 0xFF AND SWAP1 DUP1 PUSH0 ADD PUSH1 0x8 SWAP1 SLOAD SWAP1 PUSH2 0x100 EXP SWAP1 DIV PUSH1 0xFF AND SWAP1 DUP1 PUSH0 ADD PUSH1 0x9 SWAP1 SLOAD SWAP1 PUSH2 0x100 EXP SWAP1 DIV PUSH1 0x60 SHL SWAP1 POP DUP7 JUMP JUMPDEST PUSH32 0x1CC919C29F80EC17D5122D6094A38C779A69E67ADB66DAD9EF82D2B34C27E848 PUSH2 0x91E DUP2 PUSH2 0x3028 JUMP JUMPDEST PUSH1 0x2 PUSH0 DUP6 PUSH20 0xFFFFFFFFFFFFFFFFFFFFFFFFFFFFFFFFFFFFFFFF AND PUSH20 0xFFFFFFFFFFFFFFFFFFFFFFFFFFFFFFFFFFFFFFFF AND DUP2 MSTORE PUSH1 0x20 ADD SWAP1 DUP2 MSTORE PUSH1 0x20 ADD PUSH0 KECCAK256 PUSH0 ADD PUSH1 0x8 SWAP1 SLOAD SWAP1 PUSH2 0x100 EXP SWAP1 DIV PUSH1 0xFF AND PUSH2 0x9AA JUMPI PUSH1 0x40 MLOAD PUSH32 0x8C379A000000000000000000000000000000000000000000000000000000000 DUP2 MSTORE PUSH1 0x4 ADD PUSH2 0x9A1 SWAP1 PUSH2 0x4D75 JUMP JUMPDEST PUSH1 0x40 MLOAD DUP1 SWAP2 SUB SWAP1 REVERT JUMPDEST PUSH1 0xFF DUP4 GT PUSH2 0x9B8 JUMPI DUP3 PUSH2 0x9BB JUMP JUMPDEST PUSH1 0xFF JUMPDEST PUSH1 0x2 PUSH0 DUP7 PUSH20 0xFFFFFFFFFFFFFFFFFFFFFFFFFFFFFFFFFFFFFFFF AND PUSH20 0xFFFFFFFFFFFFFFFFFFFFFFFFFFFFFFFFFFFFFFFF AND DUP2 MSTORE PUSH1 0x20 ADD SWAP1 DUP2 MSTORE PUSH1 0x20 ADD PUSH0 KECCAK256 PUSH0 ADD PUSH1 0x6 PUSH2 0x100 EXP DUP2 SLOAD DUP2 PUSH1 0xFF MUL NOT AND SWAP1 DUP4 PUSH1 0xFF AND MUL OR SWAP1 SSTORE POP TIMESTAMP PUSH1 0x2 PUSH0 DUP7 PUSH20 0xFFFFFFFFFFFFFFFFFFFFFFFFFFFFFFFFFFFFFFFF AND PUSH20 0xFFFFFFFFFFFFFFFFFFFFFFFFFFFFFFFFFFFFFFFF AND DUP2 MSTORE PUSH1 0x20 ADD SWAP1 DUP2 MSTORE PUSH1 0x20 ADD PUSH0 KECCAK256 PUSH0 ADD PUSH0 PUSH2 0x100 EXP DUP2 SLOAD DUP2 PUSH4 0xFFFFFFFF MUL NOT AND SWAP1 DUP4 PUSH4 0xFFFFFFFF AND MUL OR SWAP1 SSTORE POP DUP4 PUSH20 0xFFFFFFFFFFFFFFFFFFFFFFFFFFFFFFFFFFFFFFFF AND PUSH32 0x48EF8C71C1E674858A17471917E624909774724A74D13F930EF050BB56A83FFD DUP5 DUP5 PUSH1 0x40 MLOAD PUSH2 0xAB7 SWAP3 SWAP2 SWAP1 PUSH2 0x4D93 JUMP JUMPDEST PUSH1 0x40 MLOAD DUP1 SWAP2 SUB SWAP1 LOG2 POP POP POP POP JUMP JUMPDEST PUSH2 0xACE DUP3 PUSH2 0x854 JUMP JUMPDEST PUSH2 0xAD7 DUP2 PUSH2 0x3028 JUMP JUMPDEST PUSH2 0xAE1 DUP4 DUP4 PUSH2 0x303C JUMP JUMPDEST POP POP POP POP JUMP JUMPDEST PUSH0 DUP1 PUSH0 DUP1 PUSH0 DUP1 PUSH0 DUP1 PUSH1 0x6 PUSH0 PUSH1 0x8 PUSH0 SWAP1 SLOAD SWAP1 PUSH2 0x100 EXP SWAP1 DIV PUSH1 0xFF AND PUSH1 0xFF AND PUSH1 0xFF AND DUP2 MSTORE PUSH1 0x20 ADD SWAP1 DUP2 MSTORE PUSH1 0x20 ADD PUSH0 KECCAK256 SWAP1 POP PUSH1 0x8 PUSH0 SWAP1 SLOAD SWAP1 PUSH2 0x100 EXP SWAP1 DIV PUSH1 0xFF AND DUP2 PUSH0 ADD PUSH0 SWAP1 SLOAD SWAP1 PUSH2 0x100 EXP SWAP1 DIV PUSH4 0xFFFFFFFF AND DUP3 PUSH0 ADD PUSH1 0x4 SWAP1 SLOAD SWAP1 PUSH2 0x100 EXP SWAP1 DIV PUSH4 0xFFFFFFFF AND DUP4 PUSH0 ADD PUSH1 0x8 SWAP1 SLOAD SWAP1 PUSH2 0x100 EXP SWAP1 DIV PUSH2 0xFFFF AND DUP5 PUSH0 ADD PUSH1 0xA SWAP1 SLOAD SWAP1 PUSH2 0x100 EXP SWAP1 DIV PUSH2 0xFFFF AND DUP6 PUSH0 ADD PUSH1 0xC SWAP1 SLOAD SWAP1 PUSH2 0x100 EXP SWAP1 DIV PUSH2 0xFFFF AND DUP7 PUSH0 ADD PUSH1 0xE SWAP1 SLOAD SWAP1 PUSH2 0x100 EXP SWAP1 DIV PUSH1 0xFF AND SWAP8 POP SWAP8 POP SWAP8 POP SWAP8 POP SWAP8 POP SWAP8 POP SWAP8 POP POP SWAP1 SWAP2 SWAP3 SWAP4 SWAP5 SWAP6 SWAP7 JUMP JUMPDEST PUSH0 DUP1 SHL PUSH2 0xBB7 DUP2 PUSH2 0x3028 JUMP JUMPDEST DUP3 MLOAD DUP5 MLOAD EQ PUSH2 0xBFB JUMPI PUSH1 0x40 MLOAD PUSH32 0x8C379A000000000000000000000000000000000000000000000000000000000 DUP2 MSTORE PUSH1 0x4 ADD PUSH2 0xBF2 SWAP1 PUSH2 0x4E04 JUMP JUMPDEST PUSH1 0x40 MLOAD DUP1 SWAP2 SUB SWAP1 REVERT JUMPDEST DUP2 MLOAD DUP5 MLOAD EQ PUSH2 0xC3F JUMPI PUSH1 0x40 MLOAD PUSH32 0x8C379A000000000000000000000000000000000000000000000000000000000 DUP2 MSTORE PUSH1 0x4 ADD PUSH2 0xC36 SWAP1 PUSH2 0x4E04 JUMP JUMPDEST PUSH1 0x40 MLOAD DUP1 SWAP2 SUB SWAP1 REVERT JUMPDEST PUSH1 0x19 PUSH2 0xFFFF AND DUP5 MLOAD GT ISZERO PUSH2 0xC88 JUMPI PUSH1 0x40 MLOAD PUSH32 0x8C379A000000000000000000000000000000000000000000000000000000000 DUP2 MSTORE PUSH1 0x4 ADD PUSH2 0xC7F SWAP1 PUSH2 0x4E6C JUMP JUMPDEST PUSH1 0x40 MLOAD DUP1 SWAP2 SUB SWAP1 REVERT JUMPDEST PUSH0 GAS SWAP1 POP PUSH0 JUMPDEST DUP6 MLOAD DUP2 LT ISZERO PUSH2 0x1275 JUMPI PUSH1 0x2 PUSH0 DUP8 DUP4 DUP2 MLOAD DUP2 LT PUSH2 0xCAD JUMPI PUSH2 0xCAC PUSH2 0x4E8A JUMP JUMPDEST JUMPDEST PUSH1 0x20 MUL PUSH1 0x20 ADD ADD MLOAD PUSH20 0xFFFFFFFFFFFFFFFFFFFFFFFFFFFFFFFFFFFFFFFF AND PUSH20 0xFFFFFFFFFFFFFFFFFFFFFFFFFFFFFFFFFFFFFFFF AND DUP2 MSTORE PUSH1 0x20 ADD SWAP1 DUP2 MSTORE PUSH1 0x20 ADD PUSH0 KECCAK256 PUSH0 ADD PUSH1 0x8 SWAP1 SLOAD SWAP1 PUSH2 0x100 EXP SWAP1 DIV PUSH1 0xFF AND PUSH2 0x1268 JUMPI PUSH0 DUP5 DUP3 DUP2 MLOAD DUP2 LT PUSH2 0xD16 JUMPI PUSH2 0xD15 PUSH2 0x4E8A JUMP JUMPDEST JUMPDEST PUSH1 0x20 MUL PUSH1 0x20 ADD ADD MLOAD SWAP1 POP PUSH0 PUSH1 0x2 PUSH0 DUP10 DUP6 DUP2 MLOAD DUP2 LT PUSH2 0xD37 JUMPI PUSH2 0xD36 PUSH2 0x4E8A JUMP JUMPDEST JUMPDEST PUSH1 0x20 MUL PUSH1 0x20 ADD ADD MLOAD PUSH20 0xFFFFFFFFFFFFFFFFFFFFFFFFFFFFFFFFFFFFFFFF AND PUSH20 0xFFFFFFFFFFFFFFFFFFFFFFFFFFFFFFFFFFFFFFFF AND DUP2 MSTORE PUSH1 0x20 ADD SWAP1 DUP2 MSTORE PUSH1 0x20 ADD PUSH0 KECCAK256 SWAP1 POP TIMESTAMP DUP2 PUSH0 ADD PUSH0 PUSH2 0x100 EXP DUP2 SLOAD DUP2 PUSH4 0xFFFFFFFF MUL NOT AND SWAP1 DUP4 PUSH4 0xFFFFFFFF AND MUL OR SWAP1 SSTORE POP PUSH0 DUP2 PUSH0 ADD PUSH1 0x4 PUSH2 0x100 EXP DUP2 SLOAD DUP2 PUSH2 0xFFFF MUL NOT AND SWAP1 DUP4 PUSH2 0xFFFF AND MUL OR SWAP1 SSTORE POP PUSH1 0x32 DUP2 PUSH0 ADD PUSH1 0x6 PUSH2 0x100 EXP DUP2 SLOAD DUP2 PUSH1 0xFF MUL NOT AND SWAP1 DUP4 PUSH1 0xFF AND MUL OR SWAP1 SSTORE POP DUP7 DUP4 DUP2 MLOAD DUP2 LT PUSH2 0xDE9 JUMPI PUSH2 0xDE8 PUSH2 0x4E8A JUMP JUMPDEST JUMPDEST PUSH1 0x20 MUL PUSH1 0x20 ADD ADD MLOAD PUSH1 0x2 DUP2 GT ISZERO PUSH2 0xE03 JUMPI PUSH2 0xE02 PUSH2 0x4EB7 JUMP JUMPDEST JUMPDEST DUP2 PUSH0 ADD PUSH1 0x7 PUSH2 0x100 EXP DUP2 SLOAD DUP2 PUSH1 0xFF MUL NOT AND SWAP1 DUP4 PUSH1 0xFF AND MUL OR SWAP1 SSTORE POP PUSH1 0x1 DUP2 PUSH0 ADD PUSH1 0x8 PUSH2 0x100 EXP DUP2 SLOAD DUP2 PUSH1 0xFF MUL NOT AND SWAP1 DUP4 ISZERO ISZERO MUL OR SWAP1 SSTORE POP DUP2 DUP2 PUSH0 ADD PUSH1 0x9 PUSH2 0x100 EXP DUP2 SLOAD DUP2 PUSH20 0xFFFFFFFFFFFFFFFFFFFFFFFFFFFFFFFFFFFFFFFF MUL NOT AND SWAP1 DUP4 PUSH1 0x60 SHR MUL OR SWAP1 SSTORE POP PUSH0 PUSH1 0x2 DUP2 GT ISZERO PUSH2 0xE7C JUMPI PUSH2 0xE7B PUSH2 0x4EB7 JUMP JUMPDEST JUMPDEST DUP8 DUP5 DUP2 MLOAD DUP2 LT PUSH2 0xE8F JUMPI PUSH2 0xE8E PUSH2 0x4E8A JUMP JUMPDEST JUMPDEST PUSH1 0x20 MUL PUSH1 0x20 ADD ADD MLOAD PUSH1 0x2 DUP2 GT ISZERO PUSH2 0xEA9 JUMPI PUSH2 0xEA8 PUSH2 0x4EB7 JUMP JUMPDEST JUMPDEST SUB PUSH2 0xF72 JUMPI PUSH1 0x9 DUP9 DUP5 DUP2 MLOAD DUP2 LT PUSH2 0xEC3 JUMPI PUSH2 0xEC2 PUSH2 0x4E8A JUMP JUMPDEST JUMPDEST PUSH1 0x20 MUL PUSH1 0x20 ADD ADD MLOAD SWAP1 DUP1 PUSH1 0x1 DUP2 SLOAD ADD DUP1 DUP3 SSTORE DUP1 SWAP2 POP POP PUSH1 0x1 SWAP1 SUB SWAP1 PUSH0 MSTORE PUSH1 0x20 PUSH0 KECCAK256 ADD PUSH0 SWAP1 SWAP2 SWAP1 SWAP2 SWAP1 SWAP2 PUSH2 0x100 EXP DUP2 SLOAD DUP2 PUSH20 0xFFFFFFFFFFFFFFFFFFFFFFFFFFFFFFFFFFFFFFFF MUL NOT AND SWAP1 DUP4 PUSH20 0xFFFFFFFFFFFFFFFFFFFFFFFFFFFFFFFFFFFFFFFF AND MUL OR SWAP1 SSTORE POP PUSH2 0xF6C PUSH32 0x5164D5C7193030ABDA56AB2DA6B1ECFB83373A1A97075675AB8548CA2BE633D9 DUP10 DUP6 DUP2 MLOAD DUP2 LT PUSH2 0xF5F JUMPI PUSH2 0xF5E PUSH2 0x4E8A JUMP JUMPDEST JUMPDEST PUSH1 0x20 MUL PUSH1 0x20 ADD ADD MLOAD PUSH2 0x303C JUMP JUMPDEST POP PUSH2 0x1183 JUMP JUMPDEST PUSH1 0x1 PUSH1 0x2 DUP2 GT ISZERO PUSH2 0xF86 JUMPI PUSH2 0xF85 PUSH2 0x4EB7 JUMP JUMPDEST JUMPDEST DUP8 DUP5 DUP2 MLOAD DUP2 LT PUSH2 0xF99 JUMPI PUSH2 0xF98 PUSH2 0x4E8A JUMP JUMPDEST JUMPDEST PUSH1 0x20 MUL PUSH1 0x20 ADD ADD MLOAD PUSH1 0x2 DUP2 GT ISZERO PUSH2 0xFB3 JUMPI PUSH2 0xFB2 PUSH2 0x4EB7 JUMP JUMPDEST JUMPDEST SUB PUSH2 0x107C JUMPI PUSH1 0xA DUP9 DUP5 DUP2 MLOAD DUP2 LT PUSH2 0xFCD JUMPI PUSH2 0xFCC PUSH2 0x4E8A JUMP JUMPDEST JUMPDEST PUSH1 0x20 MUL PUSH1 0x20 ADD ADD MLOAD SWAP1 DUP1 PUSH1 0x1 DUP2 SLOAD ADD DUP1 DUP3 SSTORE DUP1 SWAP2 POP POP PUSH1 0x1 SWAP1 SUB SWAP1 PUSH0 MSTORE PUSH1 0x20 PUSH0 KECCAK256 ADD PUSH0 SWAP1 SWAP2 SWAP1 SWAP2 SWAP1 SWAP2 PUSH2 0x100 EXP DUP2 SLOAD DUP2 PUSH20 0xFFFFFFFFFFFFFFFFFFFFFFFFFFFFFFFFFFFFFFFF MUL NOT AND SWAP1 DUP4 PUSH20 0xFFFFFFFFFFFFFFFFFFFFFFFFFFFFFFFFFFFFFFFF AND MUL OR SWAP1 SSTORE POP PUSH2 0x1076 PUSH32 0xE294E0330230CF86C7CC450E63C26273FD5DB16B0833AF197CCC2575F058A3A2 DUP10 DUP6 DUP2 MLOAD DUP2 LT PUSH2 0x1069 JUMPI PUSH2 0x1068 PUSH2 0x4E8A JUMP JUMPDEST JUMPDEST PUSH1 0x20 MUL PUSH1 0x20 ADD ADD MLOAD PUSH2 0x303C JUMP JUMPDEST POP PUSH2 0x1182 JUMP JUMPDEST PUSH1 0x2 DUP1 DUP2 GT ISZERO PUSH2 0x108F JUMPI PUSH2 0x108E PUSH2 0x4EB7 JUMP JUMPDEST JUMPDEST DUP8 DUP5 DUP2 MLOAD DUP2 LT PUSH2 0x10A2 JUMPI PUSH2 0x10A1 PUSH2 0x4E8A JUMP JUMPDEST JUMPDEST PUSH1 0x20 MUL PUSH1 0x20 ADD ADD MLOAD PUSH1 0x2 DUP2 GT ISZERO PUSH2 0x10BC JUMPI PUSH2 0x10BB PUSH2 0x4EB7 JUMP JUMPDEST JUMPDEST SUB PUSH2 0x1181 JUMPI PUSH1 0xB DUP9 DUP5 DUP2 MLOAD DUP2 LT PUSH2 0x10D6 JUMPI PUSH2 0x10D5 PUSH2 0x4E8A JUMP JUMPDEST JUMPDEST PUSH1 0x20 MUL PUSH1 0x20 ADD ADD MLOAD SWAP1 DUP1 PUSH1 0x1 DUP2 SLOAD ADD DUP1 DUP3 SSTORE DUP1 SWAP2 POP POP PUSH1 0x1 SWAP1 SUB SWAP1 PUSH0 MSTORE PUSH1 0x20 PUSH0 KECCAK256 ADD PUSH0 SWAP1 SWAP2 SWAP1 SWAP2 SWAP1 SWAP2 PUSH2 0x100 EXP DUP2 SLOAD DUP2 PUSH20 0xFFFFFFFFFFFFFFFFFFFFFFFFFFFFFFFFFFFFFFFF MUL NOT AND SWAP1 DUP4 PUSH20 0xFFFFFFFFFFFFFFFFFFFFFFFFFFFFFFFFFFFFFFFF AND MUL OR SWAP1 SSTORE POP PUSH2 0x117F PUSH32 0x9064D2262A47540325CC06B9BA16BDA3BF76C7AA861BDEFEF9D8CCB9EFC8F25C DUP10 DUP6 DUP2 MLOAD DUP2 LT PUSH2 0x1172 JUMPI PUSH2 0x1171 PUSH2 0x4E8A JUMP JUMPDEST JUMPDEST PUSH1 0x20 MUL PUSH1 0x20 ADD ADD MLOAD PUSH2 0x303C JUMP JUMPDEST POP JUMPDEST JUMPDEST JUMPDEST PUSH1 0x6 PUSH0 PUSH1 0x8 PUSH0 SWAP1 SLOAD SWAP1 PUSH2 0x100 EXP SWAP1 DIV PUSH1 0xFF AND PUSH1 0xFF AND PUSH1 0xFF AND DUP2 MSTORE PUSH1 0x20 ADD SWAP1 DUP2 MSTORE PUSH1 0x20 ADD PUSH0 KECCAK256 PUSH0 ADD PUSH1 0xC DUP2 DUP2 SWAP1 SLOAD SWAP1 PUSH2 0x100 EXP SWAP1 DIV PUSH2 0xFFFF AND DUP1 SWAP3 SWAP2 SWAP1 PUSH2 0x11C8 SWAP1 PUSH2 0x4F11 JUMP JUMPDEST SWAP2 SWAP1 PUSH2 0x100 EXP DUP2 SLOAD DUP2 PUSH2 0xFFFF MUL NOT AND SWAP1 DUP4 PUSH2 0xFFFF AND MUL OR SWAP1 SSTORE POP POP DUP8 DUP4 DUP2 MLOAD DUP2 LT PUSH2 0x11F6 JUMPI PUSH2 0x11F5 PUSH2 0x4E8A JUMP JUMPDEST JUMPDEST PUSH1 0x20 MUL PUSH1 0x20 ADD ADD MLOAD PUSH20 0xFFFFFFFFFFFFFFFFFFFFFFFFFFFFFFFFFFFFFFFF AND PUSH32 0xD48E1226FC442AFA75C25EDE158D798814FB0F85B0E1E60E2049648F2C4A5CFA DUP9 DUP6 DUP2 MLOAD DUP2 LT PUSH2 0x1248 JUMPI PUSH2 0x1247 PUSH2 0x4E8A JUMP JUMPDEST JUMPDEST PUSH1 0x20 MUL PUSH1 0x20 ADD ADD MLOAD PUSH1 0x40 MLOAD PUSH2 0x125D SWAP2 SWAP1 PUSH2 0x4F80 JUMP JUMPDEST PUSH1 0x40 MLOAD DUP1 SWAP2 SUB SWAP1 LOG2 POP POP JUMPDEST DUP1 DUP1 PUSH1 0x1 ADD SWAP2 POP POP PUSH2 0xC8E JUMP JUMPDEST POP PUSH0 GAS DUP3 PUSH2 0x1283 SWAP2 SWAP1 PUSH2 0x4F99 JUMP JUMPDEST SWAP1 POP PUSH0 PUSH3 0x1D4C0 DUP8 MLOAD PUSH2 0x1296 SWAP2 SWAP1 PUSH2 0x4FCC JUMP JUMPDEST SWAP1 POP DUP2 DUP2 GT ISZERO PUSH2 0x1347 JUMPI DUP2 DUP2 PUSH2 0x12AC SWAP2 SWAP1 PUSH2 0x4F99 JUMP JUMPDEST PUSH1 0x8 PUSH1 0x5 DUP3 DUP3 DUP3 SWAP1 SLOAD SWAP1 PUSH2 0x100 EXP SWAP1 DIV PUSH4 0xFFFFFFFF AND PUSH2 0x12CC SWAP2 SWAP1 PUSH2 0x500D JUMP JUMPDEST SWAP3 POP PUSH2 0x100 EXP DUP2 SLOAD DUP2 PUSH4 0xFFFFFFFF MUL NOT AND SWAP1 DUP4 PUSH4 0xFFFFFFFF AND MUL OR SWAP1 SSTORE POP CALLER PUSH20 0xFFFFFFFFFFFFFFFFFFFFFFFFFFFFFFFFFFFFFFFF AND PUSH32 0xA1F6272BD30CBBDCA1AA08DF89CB0345FCA6BA3D2AB5591F820C0565BFDE8635 DUP4 DUP4 PUSH2 0x132E SWAP2 SWAP1 PUSH2 0x4F99 JUMP JUMPDEST PUSH1 0x5 PUSH1 0x40 MLOAD PUSH2 0x133E SWAP3 SWAP2 SWAP1 PUSH2 0x5086 JUMP JUMPDEST PUSH1 0x40 MLOAD DUP1 SWAP2 SUB SWAP1 LOG2 JUMPDEST POP POP POP POP POP POP POP JUMP JUMPDEST PUSH2 0x1358 PUSH2 0x3125 JUMP JUMPDEST PUSH20 0xFFFFFFFFFFFFFFFFFFFFFFFFFFFFFFFFFFFFFFFF AND DUP2 PUSH20 0xFFFFFFFFFFFFFFFFFFFFFFFFFFFFFFFFFFFFFFFF AND EQ PUSH2 0x13BC JUMPI PUSH1 0x40 MLOAD PUSH32 0x6697B23200000000000000000000000000000000000000000000000000000000 DUP2 MSTORE PUSH1 0x4 ADD PUSH1 0x40 MLOAD DUP1 SWAP2 SUB SWAP1 REVERT JUMPDEST PUSH2 0x13C6 DUP3 DUP3 PUSH2 0x312C JUMP JUMPDEST POP POP POP JUMP JUMPDEST PUSH0 DUP1 GAS SWAP1 POP PUSH2 0x13D9 TIMESTAMP PUSH2 0x3215 JUMP JUMPDEST PUSH0 PUSH1 0x7 PUSH0 DUP2 SLOAD DUP1 SWAP3 SWAP2 SWAP1 PUSH2 0x13EC SWAP1 PUSH2 0x50AD JUMP JUMPDEST SWAP2 SWAP1 POP SSTORE SWAP1 POP PUSH0 DUP7 PUSH1 0x40 MLOAD PUSH1 0x20 ADD PUSH2 0x1404 SWAP2 SWAP1 PUSH2 0x5146 JUMP JUMPDEST PUSH1 0x40 MLOAD PUSH1 0x20 DUP2 DUP4 SUB SUB DUP2 MSTORE SWAP1 PUSH1 0x40 MSTORE DUP1 MLOAD SWAP1 PUSH1 0x20 ADD KECCAK256 SWAP1 POP PUSH1 0x40 MLOAD DUP1 PUSH2 0x100 ADD PUSH1 0x40 MSTORE DUP1 TIMESTAMP PUSH4 0xFFFFFFFF AND DUP2 MSTORE PUSH1 0x20 ADD DUP8 TIMESTAMP PUSH2 0x1440 SWAP2 SWAP1 PUSH2 0x515C JUMP JUMPDEST PUSH4 0xFFFFFFFF AND DUP2 MSTORE PUSH1 0x20 ADD DUP10 PUSH1 0x2 DUP2 GT ISZERO PUSH2 0x145E JUMPI PUSH2 0x145D PUSH2 0x4EB7 JUMP JUMPDEST JUMPDEST PUSH2 0xFFFF AND DUP2 MSTORE PUSH1 0x20 ADD PUSH0 PUSH1 0xFF AND DUP2 MSTORE PUSH1 0x20 ADD PUSH0 ISZERO ISZERO DUP2 MSTORE PUSH1 0x20 ADD CALLER PUSH20 0xFFFFFFFFFFFFFFFFFFFFFFFFFFFFFFFFFFFFFFFF AND DUP2 MSTORE PUSH1 0x20 ADD DUP3 DUP2 MSTORE PUSH1 0x20 ADD DUP7 DUP2 MSTORE POP PUSH1 0x3 PUSH0 DUP5 DUP2 MSTORE PUSH1 0x20 ADD SWAP1 DUP2 MSTORE PUSH1 0x20 ADD PUSH0 KECCAK256 PUSH0 DUP3 ADD MLOAD DUP2 PUSH0 ADD PUSH0 PUSH2 0x100 EXP DUP2 SLOAD DUP2 PUSH4 0xFFFFFFFF MUL NOT AND SWAP1 DUP4 PUSH4 0xFFFFFFFF AND MUL OR SWAP1 SSTORE POP PUSH1 0x20 DUP3 ADD MLOAD DUP2 PUSH0 ADD PUSH1 0x4 PUSH2 0x100 EXP DUP2 SLOAD DUP2 PUSH4 0xFFFFFFFF MUL NOT AND SWAP1 DUP4 PUSH4 0xFFFFFFFF AND MUL OR SWAP1 SSTORE POP PUSH1 0x40 DUP3 ADD MLOAD DUP2 PUSH0 ADD PUSH1 0x8 PUSH2 0x100 EXP DUP2 SLOAD DUP2 PUSH2 0xFFFF MUL NOT AND SWAP1 DUP4 PUSH2 0xFFFF AND MUL OR SWAP1 SSTORE POP PUSH1 0x60 DUP3 ADD MLOAD DUP2 PUSH0 ADD PUSH1 0xA PUSH2 0x100 EXP DUP2 SLOAD DUP2 PUSH1 0xFF MUL NOT AND SWAP1 DUP4 PUSH1 0xFF AND MUL OR SWAP1 SSTORE POP PUSH1 0x80 DUP3 ADD MLOAD DUP2 PUSH0 ADD PUSH1 0xB PUSH2 0x100 EXP DUP2 SLOAD DUP2 PUSH1 0xFF MUL NOT AND SWAP1 DUP4 ISZERO ISZERO MUL OR SWAP1 SSTORE POP PUSH1 0xA0 DUP3 ADD MLOAD DUP2 PUSH0 ADD PUSH1 0xC PUSH2 0x100 EXP DUP2 SLOAD DUP2 PUSH20 0xFFFFFFFFFFFFFFFFFFFFFFFFFFFFFFFFFFFFFFFF MUL NOT AND SWAP1 DUP4 PUSH20 0xFFFFFFFFFFFFFFFFFFFFFFFFFFFFFFFFFFFFFFFF AND MUL OR SWAP1 SSTORE POP PUSH1 0xC0 DUP3 ADD MLOAD DUP2 PUSH1 0x1 ADD SSTORE PUSH1 0xE0 DUP3 ADD MLOAD DUP2 PUSH1 0x2 ADD SSTORE SWAP1 POP POP PUSH1 0x6 PUSH0 PUSH1 0x8 PUSH0 SWAP1 SLOAD SWAP1 PUSH2 0x100 EXP SWAP1 DIV PUSH1 0xFF AND PUSH1 0xFF AND PUSH1 0xFF AND DUP2 MSTORE PUSH1 0x20 ADD SWAP1 DUP2 MSTORE PUSH1 0x20 ADD PUSH0 KECCAK256 PUSH0 ADD PUSH1 0x8 DUP2 DUP2 SWAP1 SLOAD SWAP1 PUSH2 0x100 EXP SWAP1 DIV PUSH2 0xFFFF AND DUP1 SWAP3 SWAP2 SWAP1 PUSH2 0x15FC SWAP1 PUSH2 0x4F11 JUMP JUMPDEST SWAP2 SWAP1 PUSH2 0x100 EXP DUP2 SLOAD DUP2 PUSH2 0xFFFF MUL NOT AND SWAP1 DUP4 PUSH2 0xFFFF AND MUL OR SWAP1 SSTORE POP POP PUSH0 GAS DUP5 PUSH2 0x1624 SWAP2 SWAP1 PUSH2 0x4F99 JUMP JUMPDEST SWAP1 POP PUSH0 PUSH3 0x14C08 SWAP1 POP DUP2 DUP2 GT ISZERO PUSH2 0x16DC JUMPI DUP2 DUP2 PUSH2 0x1641 SWAP2 SWAP1 PUSH2 0x4F99 JUMP JUMPDEST PUSH1 0x8 PUSH1 0x5 DUP3 DUP3 DUP3 SWAP1 SLOAD SWAP1 PUSH2 0x100 EXP SWAP1 DIV PUSH4 0xFFFFFFFF AND PUSH2 0x1661 SWAP2 SWAP1 PUSH2 0x500D JUMP JUMPDEST SWAP3 POP PUSH2 0x100 EXP DUP2 SLOAD DUP2 PUSH4 0xFFFFFFFF MUL NOT AND SWAP1 DUP4 PUSH4 0xFFFFFFFF AND MUL OR SWAP1 SSTORE POP CALLER PUSH20 0xFFFFFFFFFFFFFFFFFFFFFFFFFFFFFFFFFFFFFFFF AND PUSH32 0xA1F6272BD30CBBDCA1AA08DF89CB0345FCA6BA3D2AB5591F820C0565BFDE8635 DUP4 DUP4 PUSH2 0x16C3 SWAP2 SWAP1 PUSH2 0x4F99 JUMP JUMPDEST PUSH1 0x2 PUSH1 0x40 MLOAD PUSH2 0x16D3 SWAP3 SWAP2 SWAP1 PUSH2 0x51C8 JUMP JUMPDEST PUSH1 0x40 MLOAD DUP1 SWAP2 SUB SWAP1 LOG2 JUMPDEST DUP4 PUSH32 0x639CC4603566137B88BF6171C3C93BDEB551EAD18A506AC99BEAA5F96EB413E5 DUP12 DUP10 PUSH1 0x40 MLOAD PUSH2 0x170E SWAP3 SWAP2 SWAP1 PUSH2 0x51EF JUMP JUMPDEST PUSH1 0x40 MLOAD DUP1 SWAP2 SUB SWAP1 LOG2 DUP4 SWAP6 POP POP POP POP POP POP SWAP5 SWAP4 POP POP POP POP JUMP JUMPDEST PUSH32 0x1CC919C29F80EC17D5122D6094A38C779A69E67ADB66DAD9EF82D2B34C27E848 DUP2 JUMP JUMPDEST PUSH0 DUP1 SHL PUSH2 0x1756 DUP2 PUSH2 0x3028 JUMP JUMPDEST PUSH0 GAS SWAP1 POP PUSH1 0x2 PUSH0 DUP7 PUSH20 0xFFFFFFFFFFFFFFFFFFFFFFFFFFFFFFFFFFFFFFFF AND PUSH20 0xFFFFFFFFFFFFFFFFFFFFFFFFFFFFFFFFFFFFFFFF AND DUP2 MSTORE PUSH1 0x20 ADD SWAP1 DUP2 MSTORE PUSH1 0x20 ADD PUSH0 KECCAK256 PUSH0 ADD PUSH1 0x8 SWAP1 SLOAD SWAP1 PUSH2 0x100 EXP SWAP1 DIV PUSH1 0xFF AND ISZERO PUSH2 0x17E7 JUMPI PUSH1 0x40 MLOAD PUSH32 0x8C379A000000000000000000000000000000000000000000000000000000000 DUP2 MSTORE PUSH1 0x4 ADD PUSH2 0x17DE SWAP1 PUSH2 0x5260 JUMP JUMPDEST PUSH1 0x40 MLOAD DUP1 SWAP2 SUB SWAP1 REVERT JUMPDEST PUSH0 DUP4 SWAP1 POP PUSH0 PUSH1 0x2 PUSH0 DUP9 PUSH20 0xFFFFFFFFFFFFFFFFFFFFFFFFFFFFFFFFFFFFFFFF AND PUSH20 0xFFFFFFFFFFFFFFFFFFFFFFFFFFFFFFFFFFFFFFFF AND DUP2 MSTORE PUSH1 0x20 ADD SWAP1 DUP2 MSTORE PUSH1 0x20 ADD PUSH0 KECCAK256 SWAP1 POP TIMESTAMP DUP2 PUSH0 ADD PUSH0 PUSH2 0x100 EXP DUP2 SLOAD DUP2 PUSH4 0xFFFFFFFF MUL NOT AND SWAP1 DUP4 PUSH4 0xFFFFFFFF AND MUL OR SWAP1 SSTORE POP PUSH0 DUP2 PUSH0 ADD PUSH1 0x4 PUSH2 0x100 EXP DUP2 SLOAD DUP2 PUSH2 0xFFFF MUL NOT AND SWAP1 DUP4 PUSH2 0xFFFF AND MUL OR SWAP1 SSTORE POP PUSH1 0x32 DUP2 PUSH0 ADD PUSH1 0x6 PUSH2 0x100 EXP DUP2 SLOAD DUP2 PUSH1 0xFF MUL NOT AND SWAP1 DUP4 PUSH1 0xFF AND MUL OR SWAP1 SSTORE POP DUP6 PUSH1 0x2 DUP2 GT ISZERO PUSH2 0x189A JUMPI PUSH2 0x1899 PUSH2 0x4EB7 JUMP JUMPDEST JUMPDEST DUP2 PUSH0 ADD PUSH1 0x7 PUSH2 0x100 EXP DUP2 SLOAD DUP2 PUSH1 0xFF MUL NOT AND SWAP1 DUP4 PUSH1 0xFF AND MUL OR SWAP1 SSTORE POP PUSH1 0x1 DUP2 PUSH0 ADD PUSH1 0x8 PUSH2 0x100 EXP DUP2 SLOAD DUP2 PUSH1 0xFF MUL NOT AND SWAP1 DUP4 ISZERO ISZERO MUL OR SWAP1 SSTORE POP DUP2 DUP2 PUSH0 ADD PUSH1 0x9 PUSH2 0x100 EXP DUP2 SLOAD DUP2 PUSH20 0xFFFFFFFFFFFFFFFFFFFFFFFFFFFFFFFFFFFFFFFF MUL NOT AND SWAP1 DUP4 PUSH1 0x60 SHR MUL OR SWAP1 SSTORE POP PUSH0 PUSH1 0x2 DUP2 GT ISZERO PUSH2 0x1913 JUMPI PUSH2 0x1912 PUSH2 0x4EB7 JUMP JUMPDEST JUMPDEST DUP7 PUSH1 0x2 DUP2 GT ISZERO PUSH2 0x1926 JUMPI PUSH2 0x1925 PUSH2 0x4EB7 JUMP JUMPDEST JUMPDEST SUB PUSH2 0x19BB JUMPI PUSH1 0x9 DUP8 SWAP1 DUP1 PUSH1 0x1 DUP2 SLOAD ADD DUP1 DUP3 SSTORE DUP1 SWAP2 POP POP PUSH1 0x1 SWAP1 SUB SWAP1 PUSH0 MSTORE PUSH1 0x20 PUSH0 KECCAK256 ADD PUSH0 SWAP1 SWAP2 SWAP1 SWAP2 SWAP1 SWAP2 PUSH2 0x100 EXP DUP2 SLOAD DUP2 PUSH20 0xFFFFFFFFFFFFFFFFFFFFFFFFFFFFFFFFFFFFFFFF MUL NOT AND SWAP1 DUP4 PUSH20 0xFFFFFFFFFFFFFFFFFFFFFFFFFFFFFFFFFFFFFFFF AND MUL OR SWAP1 SSTORE POP PUSH2 0x19B5 PUSH32 0x5164D5C7193030ABDA56AB2DA6B1ECFB83373A1A97075675AB8548CA2BE633D9 DUP9 PUSH2 0x303C JUMP JUMPDEST POP PUSH2 0x1B30 JUMP JUMPDEST PUSH1 0x1 PUSH1 0x2 DUP2 GT ISZERO PUSH2 0x19CF JUMPI PUSH2 0x19CE PUSH2 0x4EB7 JUMP JUMPDEST JUMPDEST DUP7 PUSH1 0x2 DUP2 GT ISZERO PUSH2 0x19E2 JUMPI PUSH2 0x19E1 PUSH2 0x4EB7 JUMP JUMPDEST JUMPDEST SUB PUSH2 0x1A77 JUMPI PUSH1 0xA DUP8 SWAP1 DUP1 PUSH1 0x1 DUP2 SLOAD ADD DUP1 DUP3 SSTORE DUP1 SWAP2 POP POP PUSH1 0x1 SWAP1 SUB SWAP1 PUSH0 MSTORE PUSH1 0x20 PUSH0 KECCAK256 ADD PUSH0 SWAP1 SWAP2 SWAP1 SWAP2 SWAP1 SWAP2 PUSH2 0x100 EXP DUP2 SLOAD DUP2 PUSH20 0xFFFFFFFFFFFFFFFFFFFFFFFFFFFFFFFFFFFFFFFF MUL NOT AND SWAP1 DUP4 PUSH20 0xFFFFFFFFFFFFFFFFFFFFFFFFFFFFFFFFFFFFFFFF AND MUL OR SWAP1 SSTORE POP PUSH2 0x1A71 PUSH32 0xE294E0330230CF86C7CC450E63C26273FD5DB16B0833AF197CCC2575F058A3A2 DUP9 PUSH2 0x303C JUMP JUMPDEST POP PUSH2 0x1B2F JUMP JUMPDEST PUSH1 0x2 DUP1 DUP2 GT ISZERO PUSH2 0x1A8A JUMPI PUSH2 0x1A89 PUSH2 0x4EB7 JUMP JUMPDEST JUMPDEST DUP7 PUSH1 0x2 DUP2 GT ISZERO PUSH2 0x1A9D JUMPI PUSH2 0x1A9C PUSH2 0x4EB7 JUMP JUMPDEST JUMPDEST SUB PUSH2 0x1B2E JUMPI PUSH1 0xB DUP8 SWAP1 DUP1 PUSH1 0x1 DUP2 SLOAD ADD DUP1 DUP3 SSTORE DUP1 SWAP2 POP POP PUSH1 0x1 SWAP1 SUB SWAP1 PUSH0 MSTORE PUSH1 0x20 PUSH0 KECCAK256 ADD PUSH0 SWAP1 SWAP2 SWAP1 SWAP2 SWAP1 SWAP2 PUSH2 0x100 EXP DUP2 SLOAD DUP2 PUSH20 0xFFFFFFFFFFFFFFFFFFFFFFFFFFFFFFFFFFFFFFFF MUL NOT AND SWAP1 DUP4 PUSH20 0xFFFFFFFFFFFFFFFFFFFFFFFFFFFFFFFFFFFFFFFF AND MUL OR SWAP1 SSTORE POP PUSH2 0x1B2C PUSH32 0x9064D2262A47540325CC06B9BA16BDA3BF76C7AA861BDEFEF9D8CCB9EFC8F25C DUP9 PUSH2 0x303C JUMP JUMPDEST POP JUMPDEST JUMPDEST JUMPDEST PUSH1 0x6 PUSH0 PUSH1 0x8 PUSH0 SWAP1 SLOAD SWAP1 PUSH2 0x100 EXP SWAP1 DIV PUSH1 0xFF AND PUSH1 0xFF AND PUSH1 0xFF AND DUP2 MSTORE PUSH1 0x20 ADD SWAP1 DUP2 MSTORE PUSH1 0x20 ADD PUSH0 KECCAK256 PUSH0 ADD PUSH1 0xC DUP2 DUP2 SWAP1 SLOAD SWAP1 PUSH2 0x100 EXP SWAP1 DIV PUSH2 0xFFFF AND DUP1 SWAP3 SWAP2 SWAP1 PUSH2 0x1B75 SWAP1 PUSH2 0x4F11 JUMP JUMPDEST SWAP2 SWAP1 PUSH2 0x100 EXP DUP2 SLOAD DUP2 PUSH2 0xFFFF MUL NOT AND SWAP1 DUP4 PUSH2 0xFFFF AND MUL OR SWAP1 SSTORE POP POP PUSH0 GAS DUP5 PUSH2 0x1B9D SWAP2 SWAP1 PUSH2 0x4F99 JUMP JUMPDEST SWAP1 POP PUSH0 PUSH3 0x1D4C0 SWAP1 POP DUP2 DUP2 GT ISZERO PUSH2 0x1C55 JUMPI DUP2 DUP2 PUSH2 0x1BBA SWAP2 SWAP1 PUSH2 0x4F99 JUMP JUMPDEST PUSH1 0x8 PUSH1 0x5 DUP3 DUP3 DUP3 SWAP1 SLOAD SWAP1 PUSH2 0x100 EXP SWAP1 DIV PUSH4 0xFFFFFFFF AND PUSH2 0x1BDA SWAP2 SWAP1 PUSH2 0x500D JUMP JUMPDEST SWAP3 POP PUSH2 0x100 EXP DUP2 SLOAD DUP2 PUSH4 0xFFFFFFFF MUL NOT AND SWAP1 DUP4 PUSH4 0xFFFFFFFF AND MUL OR SWAP1 SSTORE POP CALLER PUSH20 0xFFFFFFFFFFFFFFFFFFFFFFFFFFFFFFFFFFFFFFFF AND PUSH32 0xA1F6272BD30CBBDCA1AA08DF89CB0345FCA6BA3D2AB5591F820C0565BFDE8635 DUP4 DUP4 PUSH2 0x1C3C SWAP2 SWAP1 PUSH2 0x4F99 JUMP JUMPDEST PUSH1 0x1 PUSH1 0x40 MLOAD PUSH2 0x1C4C SWAP3 SWAP2 SWAP1 PUSH2 0x52B7 JUMP JUMPDEST PUSH1 0x40 MLOAD DUP1 SWAP2 SUB SWAP1 LOG2 JUMPDEST DUP9 PUSH20 0xFFFFFFFFFFFFFFFFFFFFFFFFFFFFFFFFFFFFFFFF AND PUSH32 0xD48E1226FC442AFA75C25EDE158D798814FB0F85B0E1E60E2049648F2C4A5CFA DUP10 PUSH1 0x40 MLOAD PUSH2 0x1C9B SWAP2 SWAP1 PUSH2 0x4F80 JUMP JUMPDEST PUSH1 0x40 MLOAD DUP1 SWAP2 SUB SWAP1 LOG2 POP POP POP POP POP POP POP POP POP JUMP JUMPDEST PUSH1 0x7 SLOAD DUP2 JUMP JUMPDEST PUSH32 0x9064D2262A47540325CC06B9BA16BDA3BF76C7AA861BDEFEF9D8CCB9EFC8F25C DUP2 JUMP JUMPDEST PUSH32 0x1CC919C29F80EC17D5122D6094A38C779A69E67ADB66DAD9EF82D2B34C27E848 PUSH2 0x1D02 DUP2 PUSH2 0x3028 JUMP JUMPDEST PUSH0 GAS SWAP1 POP PUSH0 DUP6 MLOAD PUSH8 0xFFFFFFFFFFFFFFFF DUP2 GT ISZERO PUSH2 0x1D22 JUMPI PUSH2 0x1D21 PUSH2 0x41F4 JUMP JUMPDEST JUMPDEST PUSH1 0x40 MLOAD SWAP1 DUP1 DUP3 MSTORE DUP1 PUSH1 0x20 MUL PUSH1 0x20 ADD DUP3 ADD PUSH1 0x40 MSTORE DUP1 ISZERO PUSH2 0x1D50 JUMPI DUP2 PUSH1 0x20 ADD PUSH1 0x20 DUP3 MUL DUP1 CALLDATASIZE DUP4 CALLDATACOPY DUP1 DUP3 ADD SWAP2 POP POP SWAP1 POP JUMPDEST POP SWAP1 POP PUSH0 JUMPDEST DUP7 MLOAD DUP2 LT ISZERO PUSH2 0x1DDB JUMPI PUSH2 0xFFFF DUP8 DUP3 DUP2 MLOAD DUP2 LT PUSH2 0x1D74 JUMPI PUSH2 0x1D73 PUSH2 0x4E8A JUMP JUMPDEST JUMPDEST PUSH1 0x20 MUL PUSH1 0x20 ADD ADD MLOAD GT PUSH2 0x1DA1 JUMPI DUP7 DUP2 DUP2 MLOAD DUP2 LT PUSH2 0x1D94 JUMPI PUSH2 0x1D93 PUSH2 0x4E8A JUMP JUMPDEST JUMPDEST PUSH1 0x20 MUL PUSH1 0x20 ADD ADD MLOAD PUSH2 0x1DA5 JUMP JUMPDEST PUSH2 0xFFFF JUMPDEST DUP3 DUP3 DUP2 MLOAD DUP2 LT PUSH2 0x1DB8 JUMPI PUSH2 0x1DB7 PUSH2 0x4E8A JUMP JUMPDEST JUMPDEST PUSH1 0x20 MUL PUSH1 0x20 ADD ADD SWAP1 PUSH2 0xFFFF AND SWAP1 DUP2 PUSH2 0xFFFF AND DUP2 MSTORE POP POP DUP1 DUP1 PUSH1 0x1 ADD SWAP2 POP POP PUSH2 0x1D55 JUMP JUMPDEST POP PUSH1 0x40 MLOAD DUP1 PUSH1 0xC0 ADD PUSH1 0x40 MSTORE DUP1 DUP10 DUP2 MSTORE PUSH1 0x20 ADD DUP9 DUP2 MSTORE PUSH1 0x20 ADD DUP3 DUP2 MSTORE PUSH1 0x20 ADD DUP7 PUSH12 0xFFFFFFFFFFFFFFFFFFFFFFFF NOT AND DUP2 MSTORE PUSH1 0x20 ADD DUP6 PUSH12 0xFFFFFFFFFFFFFFFFFFFFFFFF NOT AND DUP2 MSTORE PUSH1 0x20 ADD TIMESTAMP PUSH4 0xFFFFFFFF AND DUP2 MSTORE POP PUSH1 0x4 PUSH0 DUP11 DUP2 MSTORE PUSH1 0x20 ADD SWAP1 DUP2 MSTORE PUSH1 0x20 ADD PUSH0 KECCAK256 PUSH0 DUP3 ADD MLOAD DUP2 PUSH0 ADD SSTORE PUSH1 0x20 DUP3 ADD MLOAD DUP2 PUSH1 0x1 ADD SWAP1 DUP1 MLOAD SWAP1 PUSH1 0x20 ADD SWAP1 PUSH2 0x1E62 SWAP3 SWAP2 SWAP1 PUSH2 0x3C93 JUMP JUMPDEST POP PUSH1 0x40 DUP3 ADD MLOAD DUP2 PUSH1 0x2 ADD SWAP1 DUP1 MLOAD SWAP1 PUSH1 0x20 ADD SWAP1 PUSH2 0x1E7F SWAP3 SWAP2 SWAP1 PUSH2 0x3D1A JUMP JUMPDEST POP PUSH1 0x60 DUP3 ADD MLOAD DUP2 PUSH1 0x3 ADD PUSH0 PUSH2 0x100 EXP DUP2 SLOAD DUP2 PUSH20 0xFFFFFFFFFFFFFFFFFFFFFFFFFFFFFFFFFFFFFFFF MUL NOT AND SWAP1 DUP4 PUSH1 0x60 SHR MUL OR SWAP1 SSTORE POP PUSH1 0x80 DUP3 ADD MLOAD DUP2 PUSH1 0x4 ADD PUSH0 PUSH2 0x100 EXP DUP2 SLOAD DUP2 PUSH20 0xFFFFFFFFFFFFFFFFFFFFFFFFFFFFFFFFFFFFFFFF MUL NOT AND SWAP1 DUP4 PUSH1 0x60 SHR MUL OR SWAP1 SSTORE POP PUSH1 0xA0 DUP3 ADD MLOAD DUP2 PUSH1 0x4 ADD PUSH1 0x14 PUSH2 0x100 EXP DUP2 SLOAD DUP2 PUSH4 0xFFFFFFFF MUL NOT AND SWAP1 DUP4 PUSH4 0xFFFFFFFF AND MUL OR SWAP1 SSTORE POP SWAP1 POP POP PUSH0 GAS DUP4 PUSH2 0x1F1D SWAP2 SWAP1 PUSH2 0x4F99 JUMP JUMPDEST SWAP1 POP PUSH0 PUSH3 0x17318 SWAP1 POP DUP2 DUP2 GT ISZERO PUSH2 0x1FD5 JUMPI DUP2 DUP2 PUSH2 0x1F3A SWAP2 SWAP1 PUSH2 0x4F99 JUMP JUMPDEST PUSH1 0x8 PUSH1 0x5 DUP3 DUP3 DUP3 SWAP1 SLOAD SWAP1 PUSH2 0x100 EXP SWAP1 DIV PUSH4 0xFFFFFFFF AND PUSH2 0x1F5A SWAP2 SWAP1 PUSH2 0x500D JUMP JUMPDEST SWAP3 POP PUSH2 0x100 EXP DUP2 SLOAD DUP2 PUSH4 0xFFFFFFFF MUL NOT AND SWAP1 DUP4 PUSH4 0xFFFFFFFF AND MUL OR SWAP1 SSTORE POP CALLER PUSH20 0xFFFFFFFFFFFFFFFFFFFFFFFFFFFFFFFFFFFFFFFF AND PUSH32 0xA1F6272BD30CBBDCA1AA08DF89CB0345FCA6BA3D2AB5591F820C0565BFDE8635 DUP4 DUP4 PUSH2 0x1FBC SWAP2 SWAP1 PUSH2 0x4F99 JUMP JUMPDEST PUSH1 0x3 PUSH1 0x40 MLOAD PUSH2 0x1FCC SWAP3 SWAP2 SWAP1 PUSH2 0x5317 JUMP JUMPDEST PUSH1 0x40 MLOAD DUP1 SWAP2 SUB SWAP1 LOG2 JUMPDEST DUP10 PUSH32 0xD811B25F46BE617680172E1136AE79EBDC6F6EE0A149281B2C424C216AAC487 DUP11 PUSH1 0x40 MLOAD PUSH2 0x2005 SWAP2 SWAP1 PUSH2 0x4CFB JUMP JUMPDEST PUSH1 0x40 MLOAD DUP1 SWAP2 SUB SWAP1 LOG2 POP POP POP POP POP POP POP POP POP POP JUMP JUMPDEST PUSH0 DUP1 PUSH0 DUP1 PUSH0 DUP1 PUSH1 0x6 PUSH0 PUSH1 0x8 PUSH0 SWAP1 SLOAD SWAP1 PUSH2 0x100 EXP SWAP1 DIV PUSH1 0xFF AND PUSH1 0xFF AND PUSH1 0xFF AND DUP2 MSTORE PUSH1 0x20 ADD SWAP1 DUP2 MSTORE PUSH1 0x20 ADD PUSH0 KECCAK256 SWAP1 POP PUSH1 0x8 PUSH1 0x5 SWAP1 SLOAD SWAP1 PUSH2 0x100 EXP SWAP1 DIV PUSH4 0xFFFFFFFF AND PUSH1 0x8 PUSH0 SWAP1 SLOAD SWAP1 PUSH2 0x100 EXP SWAP1 DIV PUSH1 0xFF AND DUP3 PUSH0 ADD PUSH1 0x8 SWAP1 SLOAD SWAP1 PUSH2 0x100 EXP SWAP1 DIV PUSH2 0xFFFF AND DUP4 PUSH0 ADD PUSH1 0xA SWAP1 SLOAD SWAP1 PUSH2 0x100 EXP SWAP1 DIV PUSH2 0xFFFF AND DUP5 PUSH0 ADD PUSH1 0xC SWAP1 SLOAD SWAP1 PUSH2 0x100 EXP SWAP1 DIV PUSH2 0xFFFF AND SWAP6 POP SWAP6 POP SWAP6 POP SWAP6 POP SWAP6 POP POP SWAP1 SWAP2 SWAP3 SWAP4 SWAP5 JUMP JUMPDEST PUSH1 0xB DUP2 DUP2 SLOAD DUP2 LT PUSH2 0x20BF JUMPI PUSH0 DUP1 REVERT JUMPDEST SWAP1 PUSH0 MSTORE PUSH1 0x20 PUSH0 KECCAK256 ADD PUSH0 SWAP2 POP SLOAD SWAP1 PUSH2 0x100 EXP SWAP1 DIV PUSH20 0xFFFFFFFFFFFFFFFFFFFFFFFFFFFFFFFFFFFFFFFF AND DUP2 JUMP JUMPDEST PUSH1 0x4 PUSH1 0x20 MSTORE DUP1 PUSH0 MSTORE PUSH1 0x40 PUSH0 KECCAK256 PUSH0 SWAP2 POP SWAP1 POP DUP1 PUSH0 ADD SLOAD SWAP1 DUP1 PUSH1 0x3 ADD PUSH0 SWAP1 SLOAD SWAP1 PUSH2 0x100 EXP SWAP1 DIV PUSH1 0x60 SHL SWAP1 DUP1 PUSH1 0x4 ADD PUSH0 SWAP1 SLOAD SWAP1 PUSH2 0x100 EXP SWAP1 DIV PUSH1 0x60 SHL SWAP1 DUP1 PUSH1 0x4 ADD PUSH1 0x14 SWAP1 SLOAD SWAP1 PUSH2 0x100 EXP SWAP1 DIV PUSH4 0xFFFFFFFF AND SWAP1 POP DUP5 JUMP JUMPDEST PUSH1 0x8 PUSH1 0x1 SWAP1 SLOAD SWAP1 PUSH2 0x100 EXP SWAP1 DIV PUSH4 0xFFFFFFFF AND DUP2 JUMP JUMPDEST PUSH1 0x3 PUSH1 0x20 MSTORE DUP1 PUSH0 MSTORE PUSH1 0x40 PUSH0 KECCAK256 PUSH0 SWAP2 POP SWAP1 POP DUP1 PUSH0 ADD PUSH0 SWAP1 SLOAD SWAP1 PUSH2 0x100 EXP SWAP1 DIV PUSH4 0xFFFFFFFF AND SWAP1 DUP1 PUSH0 ADD PUSH1 0x4 SWAP1 SLOAD SWAP1 PUSH2 0x100 EXP SWAP1 DIV PUSH4 0xFFFFFFFF AND SWAP1 DUP1 PUSH0 ADD PUSH1 0x8 SWAP1 SLOAD SWAP1 PUSH2 0x100 EXP SWAP1 DIV PUSH2 0xFFFF AND SWAP1 DUP1 PUSH0 ADD PUSH1 0xA SWAP1 SLOAD SWAP1 PUSH2 0x100 EXP SWAP1 DIV PUSH1 0xFF AND SWAP1 DUP1 PUSH0 ADD PUSH1 0xB SWAP1 SLOAD SWAP1 PUSH2 0x100 EXP SWAP1 DIV PUSH1 0xFF AND SWAP1 DUP1 PUSH0 ADD PUSH1 0xC SWAP1 SLOAD SWAP1 PUSH2 0x100 EXP SWAP1 DIV PUSH20 0xFFFFFFFFFFFFFFFFFFFFFFFFFFFFFFFFFFFFFFFF AND SWAP1 DUP1 PUSH1 0x1 ADD SLOAD SWAP1 DUP1 PUSH1 0x2 ADD SLOAD SWAP1 POP DUP9 JUMP JUMPDEST PUSH1 0x9 DUP2 DUP2 SLOAD DUP2 LT PUSH2 0x220A JUMPI PUSH0 DUP1 REVERT JUMPDEST SWAP1 PUSH0 MSTORE PUSH1 0x20 PUSH0 KECCAK256 ADD PUSH0 SWAP2 POP SLOAD SWAP1 PUSH2 0x100 EXP SWAP1 DIV PUSH20 0xFFFFFFFFFFFFFFFFFFFFFFFFFFFFFFFFFFFFFFFF AND DUP2 JUMP JUMPDEST PUSH0 DUP1 PUSH0 DUP5 DUP2 MSTORE PUSH1 0x20 ADD SWAP1 DUP2 MSTORE PUSH1 0x20 ADD PUSH0 KECCAK256 PUSH0 ADD PUSH0 DUP4 PUSH20 0xFFFFFFFFFFFFFFFFFFFFFFFFFFFFFFFFFFFFFFFF AND PUSH20 0xFFFFFFFFFFFFFFFFFFFFFFFFFFFFFFFFFFFFFFFF AND DUP2 MSTORE PUSH1 0x20 ADD SWAP1 DUP2 MSTORE PUSH1 0x20 ADD PUSH0 KECCAK256 PUSH0 SWAP1 SLOAD SWAP1 PUSH2 0x100 EXP SWAP1 DIV PUSH1 0xFF AND SWAP1 POP SWAP3 SWAP2 POP POP JUMP JUMPDEST PUSH1 0xA DUP2 DUP2 SLOAD DUP2 LT PUSH2 0x22A8 JUMPI PUSH0 DUP1 REVERT JUMPDEST SWAP1 PUSH0 MSTORE PUSH1 0x20 PUSH0 KECCAK256 ADD PUSH0 SWAP2 POP SLOAD SWAP1 PUSH2 0x100 EXP SWAP1 DIV PUSH20 0xFFFFFFFFFFFFFFFFFFFFFFFFFFFFFFFFFFFFFFFF AND DUP2 JUMP JUMPDEST PUSH0 DUP1 SHL DUP2 JUMP JUMPDEST PUSH0 DUP1 PUSH0 PUSH1 0x9 DUP1 SLOAD SWAP1 POP PUSH1 0xA DUP1 SLOAD SWAP1 POP PUSH1 0xB DUP1 SLOAD SWAP1 POP SWAP3 POP SWAP3 POP SWAP3 POP SWAP1 SWAP2 SWAP3 JUMP JUMPDEST PUSH32 0x1CC919C29F80EC17D5122D6094A38C779A69E67ADB66DAD9EF82D2B34C27E848 PUSH2 0x2324 DUP2 PUSH2 0x3028 JUMP JUMPDEST PUSH1 0x3 PUSH0 DUP6 DUP2 MSTORE PUSH1 0x20 ADD SWAP1 DUP2 MSTORE PUSH1 0x20 ADD PUSH0 KECCAK256 PUSH0 ADD PUSH1 0xB SWAP1 SLOAD SWAP1 PUSH2 0x100 EXP SWAP1 DIV PUSH1 0xFF AND ISZERO PUSH2 0x2385 JUMPI PUSH1 0x40 MLOAD PUSH32 0x8C379A000000000000000000000000000000000000000000000000000000000 DUP2 MSTORE PUSH1 0x4 ADD PUSH2 0x237C SWAP1 PUSH2 0x5388 JUMP JUMPDEST PUSH1 0x40 MLOAD DUP1 SWAP2 SUB SWAP1 REVERT JUMPDEST PUSH1 0x1 PUSH1 0x3 PUSH0 DUP7 DUP2 MSTORE PUSH1 0x20 ADD SWAP1 DUP2 MSTORE PUSH1 0x20 ADD PUSH0 KECCAK256 PUSH0 ADD PUSH1 0xB PUSH2 0x100 EXP DUP2 SLOAD DUP2 PUSH1 0xFF MUL NOT AND SWAP1 DUP4 ISZERO ISZERO MUL OR SWAP1 SSTORE POP PUSH1 0x6 PUSH0 PUSH1 0x8 PUSH0 SWAP1 SLOAD SWAP1 PUSH2 0x100 EXP SWAP1 DIV PUSH1 0xFF AND PUSH1 0xFF AND PUSH1 0xFF AND DUP2 MSTORE PUSH1 0x20 ADD SWAP1 DUP2 MSTORE PUSH1 0x20 ADD PUSH0 KECCAK256 PUSH0 ADD PUSH1 0xA DUP2 DUP2 SWAP1 SLOAD SWAP1 PUSH2 0x100 EXP SWAP1 DIV PUSH2 0xFFFF AND DUP1 SWAP3 SWAP2 SWAP1 PUSH2 0x23F6 SWAP1 PUSH2 0x4F11 JUMP JUMPDEST SWAP2 SWAP1 PUSH2 0x100 EXP DUP2 SLOAD DUP2 PUSH2 0xFFFF MUL NOT AND SWAP1 DUP4 PUSH2 0xFFFF AND MUL OR SWAP1 SSTORE POP POP DUP4 PUSH32 0x4576AED55ED132DFAA5E03BBC10500227270D0B188AEC79A7BEE1202B29396E DUP5 PUSH1 0x40 MLOAD PUSH2 0x2441 SWAP2 SWAP1 PUSH2 0x53F8 JUMP JUMPDEST PUSH1 0x40 MLOAD DUP1 SWAP2 SUB SWAP1 LOG2 POP POP POP POP JUMP JUMPDEST PUSH0 DUP1 PUSH0 DUP1 PUSH0 DUP1 PUSH0 PUSH1 0x2 PUSH0 DUP10 PUSH20 0xFFFFFFFFFFFFFFFFFFFFFFFFFFFFFFFFFFFFFFFF AND PUSH20 0xFFFFFFFFFFFFFFFFFFFFFFFFFFFFFFFFFFFFFFFF AND DUP2 MSTORE PUSH1 0x20 ADD SWAP1 DUP2 MSTORE PUSH1 0x20 ADD PUSH0 KECCAK256 SWAP1 POP DUP1 PUSH0 ADD PUSH0 SWAP1 SLOAD SWAP1 PUSH2 0x100 EXP SWAP1 DIV PUSH4 0xFFFFFFFF AND DUP2 PUSH0 ADD PUSH1 0x4 SWAP1 SLOAD SWAP1 PUSH2 0x100 EXP SWAP1 DIV PUSH2 0xFFFF AND DUP3 PUSH0 ADD PUSH1 0x6 SWAP1 SLOAD SWAP1 PUSH2 0x100 EXP SWAP1 DIV PUSH1 0xFF AND DUP4 PUSH0 ADD PUSH1 0x7 SWAP1 SLOAD SWAP1 PUSH2 0x100 EXP SWAP1 DIV PUSH1 0xFF AND DUP5 PUSH0 ADD PUSH1 0x8 SWAP1 SLOAD SWAP1 PUSH2 0x100 EXP SWAP1 DIV PUSH1 0xFF AND DUP6 PUSH0 ADD PUSH1 0x9 SWAP1 SLOAD SWAP1 PUSH2 0x100 EXP SWAP1 DIV PUSH1 0x60 SHL SWAP7 POP SWAP7 POP SWAP7 POP SWAP7 POP SWAP7 POP SWAP7 POP POP SWAP2 SWAP4 SWAP6 POP SWAP2 SWAP4 SWAP6 JUMP JUMPDEST PUSH32 0x5164D5C7193030ABDA56AB2DA6B1ECFB83373A1A97075675AB8548CA2BE633D9 DUP2 JUMP JUMPDEST PUSH0 DUP1 PUSH0 DUP1 PUSH0 DUP1 PUSH0 DUP1 PUSH0 PUSH1 0x3 PUSH0 DUP12 DUP2 MSTORE PUSH1 0x20 ADD SWAP1 DUP2 MSTORE PUSH1 0x20 ADD PUSH0 KECCAK256 SWAP1 POP DUP1 PUSH0 ADD PUSH0 SWAP1 SLOAD SWAP1 PUSH2 0x100 EXP SWAP1 DIV PUSH4 0xFFFFFFFF AND DUP2 PUSH0 ADD PUSH1 0x4 SWAP1 SLOAD SWAP1 PUSH2 0x100 EXP SWAP1 DIV PUSH4 0xFFFFFFFF AND DUP3 PUSH0 ADD PUSH1 0x8 SWAP1 SLOAD SWAP1 PUSH2 0x100 EXP SWAP1 DIV PUSH2 0xFFFF AND DUP4 PUSH0 ADD PUSH1 0xA SWAP1 SLOAD SWAP1 PUSH2 0x100 EXP SWAP1 DIV PUSH1 0xFF AND DUP5 PUSH0 ADD PUSH1 0xB SWAP1 SLOAD SWAP1 PUSH2 0x100 EXP SWAP1 DIV PUSH1 0xFF AND DUP6 PUSH0 ADD PUSH1 0xC SWAP1 SLOAD SWAP1 PUSH2 0x100 EXP SWAP1 DIV PUSH20 0xFFFFFFFFFFFFFFFFFFFFFFFFFFFFFFFFFFFFFFFF AND DUP7 PUSH1 0x1 ADD SLOAD DUP8 PUSH1 0x2 ADD SLOAD SWAP9 POP SWAP9 POP SWAP9 POP SWAP9 POP SWAP9 POP SWAP9 POP SWAP9 POP SWAP9 POP POP SWAP2 SWAP4 SWAP6 SWAP8 POP SWAP2 SWAP4 SWAP6 SWAP8 JUMP JUMPDEST PUSH2 0x2602 DUP3 PUSH2 0x854 JUMP JUMPDEST PUSH2 0x260B DUP2 PUSH2 0x3028 JUMP JUMPDEST PUSH2 0x2615 DUP4 DUP4 PUSH2 0x312C JUMP JUMPDEST POP POP POP POP JUMP JUMPDEST PUSH2 0x2623 PUSH2 0x3542 JUMP JUMPDEST PUSH0 GAS SWAP1 POP PUSH1 0x2 PUSH0 CALLER PUSH20 0xFFFFFFFFFFFFFFFFFFFFFFFFFFFFFFFFFFFFFFFF AND PUSH20 0xFFFFFFFFFFFFFFFFFFFFFFFFFFFFFFFFFFFFFFFF AND DUP2 MSTORE PUSH1 0x20 ADD SWAP1 DUP2 MSTORE PUSH1 0x20 ADD PUSH0 KECCAK256 PUSH0 ADD PUSH1 0x8 SWAP1 SLOAD SWAP1 PUSH2 0x100 EXP SWAP1 DIV PUSH1 0xFF AND PUSH2 0x26B3 JUMPI PUSH1 0x40 MLOAD PUSH32 0x8C379A000000000000000000000000000000000000000000000000000000000 DUP2 MSTORE PUSH1 0x4 ADD PUSH2 0x26AA SWAP1 PUSH2 0x4D75 JUMP JUMPDEST PUSH1 0x40 MLOAD DUP1 SWAP2 SUB SWAP1 REVERT JUMPDEST PUSH1 0x3 PUSH0 DUP6 DUP2 MSTORE PUSH1 0x20 ADD SWAP1 DUP2 MSTORE PUSH1 0x20 ADD PUSH0 KECCAK256 PUSH0 ADD PUSH1 0xB SWAP1 SLOAD SWAP1 PUSH2 0x100 EXP SWAP1 DIV PUSH1 0xFF AND ISZERO PUSH2 0x2714 JUMPI PUSH1 0x40 MLOAD PUSH32 0x8C379A000000000000000000000000000000000000000000000000000000000 DUP2 MSTORE PUSH1 0x4 ADD PUSH2 0x270B SWAP1 PUSH2 0x5388 JUMP JUMPDEST PUSH1 0x40 MLOAD DUP1 SWAP2 SUB SWAP1 REVERT JUMPDEST PUSH1 0x3 PUSH0 DUP6 DUP2 MSTORE PUSH1 0x20 ADD SWAP1 DUP2 MSTORE PUSH1 0x20 ADD PUSH0 KECCAK256 PUSH0 ADD PUSH1 0x4 SWAP1 SLOAD SWAP1 PUSH2 0x100 EXP SWAP1 DIV PUSH4 0xFFFFFFFF AND PUSH4 0xFFFFFFFF AND TIMESTAMP GT ISZERO PUSH2 0x2780 JUMPI PUSH1 0x40 MLOAD PUSH32 0x8C379A000000000000000000000000000000000000000000000000000000000 DUP2 MSTORE PUSH1 0x4 ADD PUSH2 0x2777 SWAP1 PUSH2 0x5462 JUMP JUMPDEST PUSH1 0x40 MLOAD DUP1 SWAP2 SUB SWAP1 REVERT JUMPDEST PUSH0 PUSH2 0x2873 PUSH1 0x2 PUSH0 CALLER PUSH20 0xFFFFFFFFFFFFFFFFFFFFFFFFFFFFFFFFFFFFFFFF AND PUSH20 0xFFFFFFFFFFFFFFFFFFFFFFFFFFFFFFFFFFFFFFFF AND DUP2 MSTORE PUSH1 0x20 ADD SWAP1 DUP2 MSTORE PUSH1 0x20 ADD PUSH0 KECCAK256 PUSH0 ADD PUSH0 SWAP1 SLOAD SWAP1 PUSH2 0x100 EXP SWAP1 DIV PUSH4 0xFFFFFFFF AND PUSH1 0x2 PUSH0 CALLER PUSH20 0xFFFFFFFFFFFFFFFFFFFFFFFFFFFFFFFFFFFFFFFF AND PUSH20 0xFFFFFFFFFFFFFFFFFFFFFFFFFFFFFFFFFFFFFFFF AND DUP2 MSTORE PUSH1 0x20 ADD SWAP1 DUP2 MSTORE PUSH1 0x20 ADD PUSH0 KECCAK256 PUSH0 ADD PUSH1 0x4 SWAP1 SLOAD SWAP1 PUSH2 0x100 EXP SWAP1 DIV PUSH2 0xFFFF AND PUSH1 0x2 PUSH0 CALLER PUSH20 0xFFFFFFFFFFFFFFFFFFFFFFFFFFFFFFFFFFFFFFFF AND PUSH20 0xFFFFFFFFFFFFFFFFFFFFFFFFFFFFFFFFFFFFFFFF AND DUP2 MSTORE PUSH1 0x20 ADD SWAP1 DUP2 MSTORE PUSH1 0x20 ADD PUSH0 KECCAK256 PUSH0 ADD PUSH1 0x6 SWAP1 SLOAD SWAP1 PUSH2 0x100 EXP SWAP1 DIV PUSH1 0xFF AND PUSH2 0x3591 JUMP JUMPDEST SWAP1 POP PUSH2 0x287F GASPRICE DUP3 PUSH2 0x3627 JUMP JUMPDEST PUSH2 0x28BE JUMPI PUSH1 0x40 MLOAD PUSH32 0x8C379A000000000000000000000000000000000000000000000000000000000 DUP2 MSTORE PUSH1 0x4 ADD PUSH2 0x28B5 SWAP1 PUSH2 0x54CA JUMP JUMPDEST PUSH1 0x40 MLOAD DUP1 SWAP2 SUB SWAP1 REVERT JUMPDEST PUSH0 DUP6 DUP6 PUSH1 0x40 MLOAD PUSH1 0x20 ADD PUSH2 0x28D2 SWAP3 SWAP2 SWAP1 PUSH2 0x5542 JUMP JUMPDEST PUSH1 0x40 MLOAD PUSH1 0x20 DUP2 DUP4 SUB SUB DUP2 MSTORE SWAP1 PUSH1 0x40 MSTORE DUP1 MLOAD SWAP1 PUSH1 0x20 ADD KECCAK256 SWAP1 POP PUSH2 0x28F5 DUP2 DUP6 CALLER PUSH2 0x3656 JUMP JUMPDEST PUSH2 0x2934 JUMPI PUSH1 0x40 MLOAD PUSH32 0x8C379A000000000000000000000000000000000000000000000000000000000 DUP2 MSTORE PUSH1 0x4 ADD PUSH2 0x292B SWAP1 PUSH2 0x55B3 JUMP JUMPDEST PUSH1 0x40 MLOAD DUP1 SWAP2 SUB SWAP1 REVERT JUMPDEST PUSH1 0x2 PUSH0 CALLER PUSH20 0xFFFFFFFFFFFFFFFFFFFFFFFFFFFFFFFFFFFFFFFF AND PUSH20 0xFFFFFFFFFFFFFFFFFFFFFFFFFFFFFFFFFFFFFFFF AND DUP2 MSTORE PUSH1 0x20 ADD SWAP1 DUP2 MSTORE PUSH1 0x20 ADD PUSH0 KECCAK256 PUSH0 ADD PUSH1 0x4 DUP2 DUP2 SWAP1 SLOAD SWAP1 PUSH2 0x100 EXP SWAP1 DIV PUSH2 0xFFFF AND DUP1 SWAP3 SWAP2 SWAP1 PUSH2 0x2991 SWAP1 PUSH2 0x4F11 JUMP JUMPDEST SWAP2 SWAP1 PUSH2 0x100 EXP DUP2 SLOAD DUP2 PUSH2 0xFFFF MUL NOT AND SWAP1 DUP4 PUSH2 0xFFFF AND MUL OR SWAP1 SSTORE POP POP TIMESTAMP PUSH1 0x2 PUSH0 CALLER PUSH20 0xFFFFFFFFFFFFFFFFFFFFFFFFFFFFFFFFFFFFFFFF AND PUSH20 0xFFFFFFFFFFFFFFFFFFFFFFFFFFFFFFFFFFFFFFFF AND DUP2 MSTORE PUSH1 0x20 ADD SWAP1 DUP2 MSTORE PUSH1 0x20 ADD PUSH0 KECCAK256 PUSH0 ADD PUSH0 PUSH2 0x100 EXP DUP2 SLOAD DUP2 PUSH4 0xFFFFFFFF MUL NOT AND SWAP1 DUP4 PUSH4 0xFFFFFFFF AND MUL OR SWAP1 SSTORE POP PUSH0 GAS DUP5 PUSH2 0x2A16 SWAP2 SWAP1 PUSH2 0x4F99 JUMP JUMPDEST SWAP1 POP PUSH0 PUSH3 0x124F8 SWAP1 POP DUP2 DUP2 GT ISZERO PUSH2 0x2ACE JUMPI DUP2 DUP2 PUSH2 0x2A33 SWAP2 SWAP1 PUSH2 0x4F99 JUMP JUMPDEST PUSH1 0x8 PUSH1 0x5 DUP3 DUP3 DUP3 SWAP1 SLOAD SWAP1 PUSH2 0x100 EXP SWAP1 DIV PUSH4 0xFFFFFFFF AND PUSH2 0x2A53 SWAP2 SWAP1 PUSH2 0x500D JUMP JUMPDEST SWAP3 POP PUSH2 0x100 EXP DUP2 SLOAD DUP2 PUSH4 0xFFFFFFFF MUL NOT AND SWAP1 DUP4 PUSH4 0xFFFFFFFF AND MUL OR SWAP1 SSTORE POP CALLER PUSH20 0xFFFFFFFFFFFFFFFFFFFFFFFFFFFFFFFFFFFFFFFF AND PUSH32 0xA1F6272BD30CBBDCA1AA08DF89CB0345FCA6BA3D2AB5591F820C0565BFDE8635 DUP4 DUP4 PUSH2 0x2AB5 SWAP2 SWAP1 PUSH2 0x4F99 JUMP JUMPDEST PUSH1 0x4 PUSH1 0x40 MLOAD PUSH2 0x2AC5 SWAP3 SWAP2 SWAP1 PUSH2 0x560A JUMP JUMPDEST PUSH1 0x40 MLOAD DUP1 SWAP2 SUB SWAP1 LOG2 JUMPDEST CALLER PUSH20 0xFFFFFFFFFFFFFFFFFFFFFFFFFFFFFFFFFFFFFFFF AND DUP9 PUSH32 0x9F79486AD9EA94F6976D399420AF3C64DF0882CC5BA39B2235AFBAD75BDC0C83 DUP10 PUSH1 0x40 MLOAD PUSH2 0x2B15 SWAP2 SWAP1 PUSH2 0x53F8 JUMP JUMPDEST PUSH1 0x40 MLOAD DUP1 SWAP2 SUB SWAP1 LOG3 POP POP POP POP POP PUSH2 0x2B2A PUSH2 0x36C8 JUMP JUMPDEST POP POP POP JUMP JUMPDEST PUSH1 0x6 PUSH1 0x20 MSTORE DUP1 PUSH0 MSTORE PUSH1 0x40 PUSH0 KECCAK256 PUSH0 SWAP2 POP SWAP1 POP DUP1 PUSH0 ADD PUSH0 SWAP1 SLOAD SWAP1 PUSH2 0x100 EXP SWAP1 DIV PUSH4 0xFFFFFFFF AND SWAP1 DUP1 PUSH0 ADD PUSH1 0x4 SWAP1 SLOAD SWAP1 PUSH2 0x100 EXP SWAP1 DIV PUSH4 0xFFFFFFFF AND SWAP1 DUP1 PUSH0 ADD PUSH1 0x8 SWAP1 SLOAD SWAP1 PUSH2 0x100 EXP SWAP1 DIV PUSH2 0xFFFF AND SWAP1 DUP1 PUSH0 ADD PUSH1 0xA SWAP1 SLOAD SWAP1 PUSH2 0x100 EXP SWAP1 DIV PUSH2 0xFFFF AND SWAP1 DUP1 PUSH0 ADD PUSH1 0xC SWAP1 SLOAD SWAP1 PUSH2 0x100 EXP SWAP1 DIV PUSH2 0xFFFF AND SWAP1 DUP1 PUSH0 ADD PUSH1 0xE SWAP1 SLOAD SWAP1 PUSH2 0x100 EXP SWAP1 DIV PUSH1 0xFF AND SWAP1 POP DUP7 JUMP JUMPDEST PUSH1 0x60 DUP1 PUSH0 PUSH1 0x2 DUP2 GT ISZERO PUSH2 0x2BCE JUMPI PUSH2 0x2BCD PUSH2 0x4EB7 JUMP JUMPDEST JUMPDEST DUP4 PUSH1 0x2 DUP2 GT ISZERO PUSH2 0x2BE1 JUMPI PUSH2 0x2BE0 PUSH2 0x4EB7 JUMP JUMPDEST JUMPDEST SUB PUSH2 0x2C71 JUMPI PUSH1 0x9 DUP1 SLOAD DUP1 PUSH1 0x20 MUL PUSH1 0x20 ADD PUSH1 0x40 MLOAD SWAP1 DUP2 ADD PUSH1 0x40 MSTORE DUP1 SWAP3 SWAP2 SWAP1 DUP2 DUP2 MSTORE PUSH1 0x20 ADD DUP3 DUP1 SLOAD DUP1 ISZERO PUSH2 0x2C65 JUMPI PUSH1 0x20 MUL DUP3 ADD SWAP2 SWAP1 PUSH0 MSTORE PUSH1 0x20 PUSH0 KECCAK256 SWAP1 JUMPDEST DUP2 PUSH0 SWAP1 SLOAD SWAP1 PUSH2 0x100 EXP SWAP1 DIV PUSH20 0xFFFFFFFFFFFFFFFFFFFFFFFFFFFFFFFFFFFFFFFF AND PUSH20 0xFFFFFFFFFFFFFFFFFFFFFFFFFFFFFFFFFFFFFFFF AND DUP2 MSTORE PUSH1 0x20 ADD SWAP1 PUSH1 0x1 ADD SWAP1 DUP1 DUP4 GT PUSH2 0x2C1C JUMPI JUMPDEST POP POP POP POP POP SWAP1 POP PUSH2 0x2DB0 JUMP JUMPDEST PUSH1 0x1 PUSH1 0x2 DUP2 GT ISZERO PUSH2 0x2C85 JUMPI PUSH2 0x2C84 PUSH2 0x4EB7 JUMP JUMPDEST JUMPDEST DUP4 PUSH1 0x2 DUP2 GT ISZERO PUSH2 0x2C98 JUMPI PUSH2 0x2C97 PUSH2 0x4EB7 JUMP JUMPDEST JUMPDEST SUB PUSH2 0x2D28 JUMPI PUSH1 0xA DUP1 SLOAD DUP1 PUSH1 0x20 MUL PUSH1 0x20 ADD PUSH1 0x40 MLOAD SWAP1 DUP2 ADD PUSH1 0x40 MSTORE DUP1 SWAP3 SWAP2 SWAP1 DUP2 DUP2 MSTORE PUSH1 0x20 ADD DUP3 DUP1 SLOAD DUP1 ISZERO PUSH2 0x2D1C JUMPI PUSH1 0x20 MUL DUP3 ADD SWAP2 SWAP1 PUSH0 MSTORE PUSH1 0x20 PUSH0 KECCAK256 SWAP1 JUMPDEST DUP2 PUSH0 SWAP1 SLOAD SWAP1 PUSH2 0x100 EXP SWAP1 DIV PUSH20 0xFFFFFFFFFFFFFFFFFFFFFFFFFFFFFFFFFFFFFFFF AND PUSH20 0xFFFFFFFFFFFFFFFFFFFFFFFFFFFFFFFFFFFFFFFF AND DUP2 MSTORE PUSH1 0x20 ADD SWAP1 PUSH1 0x1 ADD SWAP1 DUP1 DUP4 GT PUSH2 0x2CD3 JUMPI JUMPDEST POP POP POP POP POP SWAP1 POP PUSH2 0x2DAF JUMP JUMPDEST PUSH1 0xB DUP1 SLOAD DUP1 PUSH1 0x20 MUL PUSH1 0x20 ADD PUSH1 0x40 MLOAD SWAP1 DUP2 ADD PUSH1 0x40 MSTORE DUP1 SWAP3 SWAP2 SWAP1 DUP2 DUP2 MSTORE PUSH1 0x20 ADD DUP3 DUP1 SLOAD DUP1 ISZERO PUSH2 0x2DA7 JUMPI PUSH1 0x20 MUL DUP3 ADD SWAP2 SWAP1 PUSH0 MSTORE PUSH1 0x20 PUSH0 KECCAK256 SWAP1 JUMPDEST DUP2 PUSH0 SWAP1 SLOAD SWAP1 PUSH2 0x100 EXP SWAP1 DIV PUSH20 0xFFFFFFFFFFFFFFFFFFFFFFFFFFFFFFFFFFFFFFFF AND PUSH20 0xFFFFFFFFFFFFFFFFFFFFFFFFFFFFFFFFFFFFFFFF AND DUP2 MSTORE PUSH1 0x20 ADD SWAP1 PUSH1 0x1 ADD SWAP1 DUP1 DUP4 GT PUSH2 0x2D5E JUMPI JUMPDEST POP POP POP POP POP SWAP1 POP JUMPDEST JUMPDEST PUSH2 0x2DCE DUP2 PUSH1 0x2 DUP6 PUSH1 0x2 DUP2 GT ISZERO PUSH2 0x2DC9 JUMPI PUSH2 0x2DC8 PUSH2 0x4EB7 JUMP JUMPDEST JUMPDEST PUSH2 0x36D1 JUMP JUMPDEST SWAP2 POP POP SWAP2 SWAP1 POP JUMP JUMPDEST PUSH1 0x8 PUSH1 0x5 SWAP1 SLOAD SWAP1 PUSH2 0x100 EXP SWAP1 DIV PUSH4 0xFFFFFFFF AND DUP2 JUMP JUMPDEST PUSH1 0x5 PUSH1 0x20 MSTORE DUP1 PUSH0 MSTORE PUSH1 0x40 PUSH0 KECCAK256 PUSH0 SWAP2 POP SWAP1 POP SLOAD DUP2 JUMP JUMPDEST PUSH0 DUP1 SHL PUSH2 0x2E0D DUP2 PUSH2 0x3028 JUMP JUMPDEST PUSH1 0x2 PUSH0 DUP4 PUSH20 0xFFFFFFFFFFFFFFFFFFFFFFFFFFFFFFFFFFFFFFFF AND PUSH20 0xFFFFFFFFFFFFFFFFFFFFFFFFFFFFFFFFFFFFFFFF AND DUP2 MSTORE PUSH1 0x20 ADD SWAP1 DUP2 MSTORE PUSH1 0x20 ADD PUSH0 KECCAK256 PUSH0 ADD PUSH1 0x8 SWAP1 SLOAD SWAP1 PUSH2 0x100 EXP SWAP1 DIV PUSH1 0xFF AND PUSH2 0x2E99 JUMPI PUSH1 0x40 MLOAD PUSH32 0x8C379A000000000000000000000000000000000000000000000000000000000 DUP2 MSTORE PUSH1 0x4 ADD PUSH2 0x2E90 SWAP1 PUSH2 0x4D75 JUMP JUMPDEST PUSH1 0x40 MLOAD DUP1 SWAP2 SUB SWAP1 REVERT JUMPDEST PUSH0 PUSH1 0x2 PUSH0 DUP5 PUSH20 0xFFFFFFFFFFFFFFFFFFFFFFFFFFFFFFFFFFFFFFFF AND PUSH20 0xFFFFFFFFFFFFFFFFFFFFFFFFFFFFFFFFFFFFFFFF AND DUP2 MSTORE PUSH1 0x20 ADD SWAP1 DUP2 MSTORE PUSH1 0x20 ADD PUSH0 KECCAK256 PUSH0 ADD PUSH1 0x8 PUSH2 0x100 EXP DUP2 SLOAD DUP2 PUSH1 0xFF MUL NOT AND SWAP1 DUP4 ISZERO ISZERO MUL OR SWAP1 SSTORE POP PUSH1 0x6 PUSH0 PUSH1 0x8 PUSH0 SWAP1 SLOAD SWAP1 PUSH2 0x100 EXP SWAP1 DIV PUSH1 0xFF AND PUSH1 0xFF AND PUSH1 0xFF AND DUP2 MSTORE PUSH1 0x20 ADD SWAP1 DUP2 MSTORE PUSH1 0x20 ADD PUSH0 KECCAK256 PUSH0 ADD PUSH1 0xC DUP2 DUP2 SWAP1 SLOAD SWAP1 PUSH2 0x100 EXP SWAP1 DIV PUSH2 0xFFFF AND DUP1 SWAP3 SWAP2 SWAP1 PUSH2 0x2F35 SWAP1 PUSH2 0x5631 JUMP JUMPDEST SWAP2 SWAP1 PUSH2 0x100 EXP DUP2 SLOAD DUP2 PUSH2 0xFFFF MUL NOT AND SWAP1 DUP4 PUSH2 0xFFFF AND MUL OR SWAP1 SSTORE POP POP PUSH2 0x2FBB DUP3 PUSH1 0x2 PUSH0 DUP6 PUSH20 0xFFFFFFFFFFFFFFFFFFFFFFFFFFFFFFFFFFFFFFFF AND PUSH20 0xFFFFFFFFFFFFFFFFFFFFFFFFFFFFFFFFFFFFFFFF AND DUP2 MSTORE PUSH1 0x20 ADD SWAP1 DUP2 MSTORE PUSH1 0x20 ADD PUSH0 KECCAK256 PUSH0 ADD PUSH1 0x7 SWAP1 SLOAD SWAP1 PUSH2 0x100 EXP SWAP1 DIV PUSH1 0xFF AND PUSH1 0xFF AND PUSH1 0x2 DUP2 GT ISZERO PUSH2 0x2FB6 JUMPI PUSH2 0x2FB5 PUSH2 0x4EB7 JUMP JUMPDEST JUMPDEST PUSH2 0x396E JUMP JUMPDEST POP POP JUMP JUMPDEST PUSH0 PUSH32 0x1FFC9A700000000000000000000000000000000000000000000000000000000 PUSH28 0xFFFFFFFFFFFFFFFFFFFFFFFFFFFFFFFFFFFFFFFFFFFFFFFFFFFFFFFF NOT AND DUP3 PUSH28 0xFFFFFFFFFFFFFFFFFFFFFFFFFFFFFFFFFFFFFFFFFFFFFFFFFFFFFFFF NOT AND EQ SWAP1 POP SWAP2 SWAP1 POP JUMP JUMPDEST PUSH2 0x3039 DUP2 PUSH2 0x3034 PUSH2 0x3125 JUMP JUMPDEST PUSH2 0x3B57 JUMP JUMPDEST POP JUMP JUMPDEST PUSH0 PUSH2 0x3047 DUP4 DUP4 PUSH2 0x2236 JUMP JUMPDEST PUSH2 0x311B JUMPI PUSH1 0x1 PUSH0 DUP1 DUP6 DUP2 MSTORE PUSH1 0x20 ADD SWAP1 DUP2 MSTORE PUSH1 0x20 ADD PUSH0 KECCAK256 PUSH0 ADD PUSH0 DUP5 PUSH20 0xFFFFFFFFFFFFFFFFFFFFFFFFFFFFFFFFFFFFFFFF AND PUSH20 0xFFFFFFFFFFFFFFFFFFFFFFFFFFFFFFFFFFFFFFFF AND DUP2 MSTORE PUSH1 0x20 ADD SWAP1 DUP2 MSTORE PUSH1 0x20 ADD PUSH0 KECCAK256 PUSH0 PUSH2 0x100 EXP DUP2 SLOAD DUP2 PUSH1 0xFF MUL NOT AND SWAP1 DUP4 ISZERO ISZERO MUL OR SWAP1 SSTORE POP PUSH2 0x30B8 PUSH2 0x3125 JUMP JUMPDEST PUSH20 0xFFFFFFFFFFFFFFFFFFFFFFFFFFFFFFFFFFFFFFFF AND DUP3 PUSH20 0xFFFFFFFFFFFFFFFFFFFFFFFFFFFFFFFFFFFFFFFF AND DUP5 PUSH32 0x2F8788117E7EFF1D82E926EC794901D17C78024A50270940304540A733656F0D PUSH1 0x40 MLOAD PUSH1 0x40 MLOAD DUP1 SWAP2 SUB SWAP1 LOG4 PUSH1 0x1 SWAP1 POP PUSH2 0x311F JUMP JUMPDEST PUSH0 SWAP1 POP JUMPDEST SWAP3 SWAP2 POP POP JUMP JUMPDEST PUSH0 CALLER SWAP1 POP SWAP1 JUMP JUMPDEST PUSH0 PUSH2 0x3137 DUP4 DUP4 PUSH2 0x2236 JUMP JUMPDEST ISZERO PUSH2 0x320B JUMPI PUSH0 DUP1 PUSH0 DUP6 DUP2 MSTORE PUSH1 0x20 ADD SWAP1 DUP2 MSTORE PUSH1 0x20 ADD PUSH0 KECCAK256 PUSH0 ADD PUSH0 DUP5 PUSH20 0xFFFFFFFFFFFFFFFFFFFFFFFFFFFFFFFFFFFFFFFF AND PUSH20 0xFFFFFFFFFFFFFFFFFFFFFFFFFFFFFFFFFFFFFFFF AND DUP2 MSTORE PUSH1 0x20 ADD SWAP1 DUP2 MSTORE PUSH1 0x20 ADD PUSH0 KECCAK256 PUSH0 PUSH2 0x100 EXP DUP2 SLOAD DUP2 PUSH1 0xFF MUL NOT AND SWAP1 DUP4 ISZERO ISZERO MUL OR SWAP1 SSTORE POP PUSH2 0x31A8 PUSH2 0x3125 JUMP JUMPDEST PUSH20 0xFFFFFFFFFFFFFFFFFFFFFFFFFFFFFFFFFFFFFFFF AND DUP3 PUSH20 0xFFFFFFFFFFFFFFFFFFFFFFFFFFFFFFFFFFFFFFFF AND DUP5 PUSH32 0xF6391F5C32D9C69D2A47EA670B442974B53935D1EDC7FD64EB21E047A839171B PUSH1 0x40 MLOAD PUSH1 0x40 MLOAD DUP1 SWAP2 SUB SWAP1 LOG4 PUSH1 0x1 SWAP1 POP PUSH2 0x320F JUMP JUMPDEST PUSH0 SWAP1 POP JUMPDEST SWAP3 SWAP2 POP POP JUMP JUMPDEST PUSH0 PUSH1 0x6 PUSH0 PUSH1 0x8 PUSH0 SWAP1 SLOAD SWAP1 PUSH2 0x100 EXP SWAP1 DIV PUSH1 0xFF AND PUSH1 0xFF AND PUSH1 0xFF AND DUP2 MSTORE PUSH1 0x20 ADD SWAP1 DUP2 MSTORE PUSH1 0x20 ADD PUSH0 KECCAK256 SWAP1 POP DUP1 PUSH0 ADD PUSH1 0x4 SWAP1 SLOAD SWAP1 PUSH2 0x100 EXP SWAP1 DIV PUSH4 0xFFFFFFFF AND PUSH4 0xFFFFFFFF AND DUP3 PUSH4 0xFFFFFFFF AND GT ISZERO PUSH2 0x353E JUMPI PUSH0 DUP2 PUSH0 ADD PUSH1 0xE PUSH2 0x100 EXP DUP2 SLOAD DUP2 PUSH1 0xFF MUL NOT AND SWAP1 DUP4 ISZERO ISZERO MUL OR SWAP1 SSTORE POP PUSH1 0x8 PUSH0 DUP2 DUP2 SWAP1 SLOAD SWAP1 PUSH2 0x100 EXP SWAP1 DIV PUSH1 0xFF AND DUP1 SWAP3 SWAP2 SWAP1 PUSH2 0x329D SWAP1 PUSH2 0x5658 JUMP JUMPDEST SWAP2 SWAP1 PUSH2 0x100 EXP DUP2 SLOAD DUP2 PUSH1 0xFF MUL NOT AND SWAP1 DUP4 PUSH1 0xFF AND MUL OR SWAP1 SSTORE POP POP PUSH1 0x40 MLOAD DUP1 PUSH1 0xC0 ADD PUSH1 0x40 MSTORE DUP1 PUSH1 0x1 DUP4 PUSH0 ADD PUSH1 0x4 SWAP1 SLOAD SWAP1 PUSH2 0x100 EXP SWAP1 DIV PUSH4 0xFFFFFFFF AND PUSH2 0x32E1 SWAP2 SWAP1 PUSH2 0x500D JUMP JUMPDEST PUSH4 0xFFFFFFFF AND DUP2 MSTORE PUSH1 0x20 ADD PUSH3 0x15180 PUSH1 0x1 DUP5 PUSH0 ADD PUSH1 0x4 SWAP1 SLOAD SWAP1 PUSH2 0x100 EXP SWAP1 DIV PUSH4 0xFFFFFFFF AND PUSH2 0x3310 SWAP2 SWAP1 PUSH2 0x500D JUMP JUMPDEST PUSH2 0x331A SWAP2 SWAP1 PUSH2 0x500D JUMP JUMPDEST PUSH4 0xFFFFFFFF AND DUP2 MSTORE PUSH1 0x20 ADD PUSH0 PUSH2 0xFFFF AND DUP2 MSTORE PUSH1 0x20 ADD PUSH0 PUSH2 0xFFFF AND DUP2 MSTORE PUSH1 0x20 ADD PUSH1 0xB DUP1 SLOAD SWAP1 POP PUSH1 0xA DUP1 SLOAD SWAP1 POP PUSH1 0x9 DUP1 SLOAD SWAP1 POP PUSH2 0x3355 SWAP2 SWAP1 PUSH2 0x515C JUMP JUMPDEST PUSH2 0x335F SWAP2 SWAP1 PUSH2 0x515C JUMP JUMPDEST PUSH2 0xFFFF AND DUP2 MSTORE PUSH1 0x20 ADD PUSH1 0x1 ISZERO ISZERO DUP2 MSTORE POP PUSH1 0x6 PUSH0 PUSH1 0x8 PUSH0 SWAP1 SLOAD SWAP1 PUSH2 0x100 EXP SWAP1 DIV PUSH1 0xFF AND PUSH1 0xFF AND PUSH1 0xFF AND DUP2 MSTORE PUSH1 0x20 ADD SWAP1 DUP2 MSTORE PUSH1 0x20 ADD PUSH0 KECCAK256 PUSH0 DUP3 ADD MLOAD DUP2 PUSH0 ADD PUSH0 PUSH2 0x100 EXP DUP2 SLOAD DUP2 PUSH4 0xFFFFFFFF MUL NOT AND SWAP1 DUP4 PUSH4 0xFFFFFFFF AND MUL OR SWAP1 SSTORE POP PUSH1 0x20 DUP3 ADD MLOAD DUP2 PUSH0 ADD PUSH1 0x4 PUSH2 0x100 EXP DUP2 SLOAD DUP2 PUSH4 0xFFFFFFFF MUL NOT AND SWAP1 DUP4 PUSH4 0xFFFFFFFF AND MUL OR SWAP1 SSTORE POP PUSH1 0x40 DUP3 ADD MLOAD DUP2 PUSH0 ADD PUSH1 0x8 PUSH2 0x100 EXP DUP2 SLOAD DUP2 PUSH2 0xFFFF MUL NOT AND SWAP1 DUP4 PUSH2 0xFFFF AND MUL OR SWAP1 SSTORE POP PUSH1 0x60 DUP3 ADD MLOAD DUP2 PUSH0 ADD PUSH1 0xA PUSH2 0x100 EXP DUP2 SLOAD DUP2 PUSH2 0xFFFF MUL NOT AND SWAP1 DUP4 PUSH2 0xFFFF AND MUL OR SWAP1 SSTORE POP PUSH1 0x80 DUP3 ADD MLOAD DUP2 PUSH0 ADD PUSH1 0xC PUSH2 0x100 EXP DUP2 SLOAD DUP2 PUSH2 0xFFFF MUL NOT AND SWAP1 DUP4 PUSH2 0xFFFF AND MUL OR SWAP1 SSTORE POP PUSH1 0xA0 DUP3 ADD MLOAD DUP2 PUSH0 ADD PUSH1 0xE PUSH2 0x100 EXP DUP2 SLOAD DUP2 PUSH1 0xFF MUL NOT AND SWAP1 DUP4 ISZERO ISZERO MUL OR SWAP1 SSTORE POP SWAP1 POP POP DUP2 PUSH1 0x8 PUSH1 0x1 PUSH2 0x100 EXP DUP2 SLOAD DUP2 PUSH4 0xFFFFFFFF MUL NOT AND SWAP1 DUP4 PUSH4 0xFFFFFFFF AND MUL OR SWAP1 SSTORE POP PUSH32 0x9AE28B17C86E47121E7542173BC1DBDB1A41933F8AC1721648F6AA8BAF274CA4 PUSH1 0x8 PUSH0 SWAP1 SLOAD SWAP1 PUSH2 0x100 EXP SWAP1 DIV PUSH1 0xFF AND PUSH1 0x6 PUSH0 PUSH1 0x8 PUSH0 SWAP1 SLOAD SWAP1 PUSH2 0x100 EXP SWAP1 DIV PUSH1 0xFF AND PUSH1 0xFF AND PUSH1 0xFF AND DUP2 MSTORE PUSH1 0x20 ADD SWAP1 DUP2 MSTORE PUSH1 0x20 ADD PUSH0 KECCAK256 PUSH0 ADD PUSH0 SWAP1 SLOAD SWAP1 PUSH2 0x100 EXP SWAP1 DIV PUSH4 0xFFFFFFFF AND PUSH1 0x6 PUSH0 PUSH1 0x8 PUSH0 SWAP1 SLOAD SWAP1 PUSH2 0x100 EXP SWAP1 DIV PUSH1 0xFF AND PUSH1 0xFF AND PUSH1 0xFF AND DUP2 MSTORE PUSH1 0x20 ADD SWAP1 DUP2 MSTORE PUSH1 0x20 ADD PUSH0 KECCAK256 PUSH0 ADD PUSH1 0x4 SWAP1 SLOAD SWAP1 PUSH2 0x100 EXP SWAP1 DIV PUSH4 0xFFFFFFFF AND PUSH1 0x40 MLOAD PUSH2 0x3535 SWAP4 SWAP3 SWAP2 SWAP1 PUSH2 0x5680 JUMP JUMPDEST PUSH1 0x40 MLOAD DUP1 SWAP2 SUB SWAP1 LOG1 JUMPDEST POP POP JUMP JUMPDEST PUSH1 0x2 PUSH1 0x1 SLOAD SUB PUSH2 0x3587 JUMPI PUSH1 0x40 MLOAD PUSH32 0x8C379A000000000000000000000000000000000000000000000000000000000 DUP2 MSTORE PUSH1 0x4 ADD PUSH2 0x357E SWAP1 PUSH2 0x56FF JUMP JUMPDEST PUSH1 0x40 MLOAD DUP1 SWAP2 SUB SWAP1 REVERT JUMPDEST PUSH1 0x2 PUSH1 0x1 DUP2 SWAP1 SSTORE POP JUMP JUMPDEST PUSH0 DUP1 TIMESTAMP SWAP1 POP PUSH3 0x15180 DUP2 PUSH2 0x35A5 SWAP2 SWAP1 PUSH2 0x571D JUMP JUMPDEST PUSH4 0xFFFFFFFF AND DUP6 PUSH4 0xFFFFFFFF AND GT ISZERO PUSH2 0x35C2 JUMPI PUSH1 0x1 SWAP2 POP POP PUSH2 0x3620 JUMP JUMPDEST PUSH1 0xC8 DUP4 PUSH1 0xFF AND LT PUSH2 0x35D7 JUMPI PUSH1 0x2 SWAP2 POP POP PUSH2 0x3620 JUMP JUMPDEST PUSH2 0x3E8 DUP5 PUSH2 0xFFFF AND GT ISZERO PUSH2 0x35EF JUMPI PUSH1 0x3 SWAP2 POP POP PUSH2 0x3620 JUMP JUMPDEST PUSH3 0x278D00 DUP2 PUSH2 0x35FE SWAP2 SWAP1 PUSH2 0x571D JUMP JUMPDEST PUSH4 0xFFFFFFFF AND DUP6 PUSH4 0xFFFFFFFF AND LT ISZERO PUSH2 0x361B JUMPI PUSH1 0x4 SWAP2 POP POP PUSH2 0x3620 JUMP JUMPDEST PUSH0 SWAP2 POP POP JUMPDEST SWAP4 SWAP3 POP POP POP JUMP JUMPDEST PUSH0 PUSH5 0xBA43B7400 DUP4 GT DUP1 ISZERO PUSH2 0x363E JUMPI POP PUSH0 DUP3 PUSH1 0xFF AND EQ JUMPDEST ISZERO PUSH2 0x364B JUMPI PUSH0 SWAP1 POP PUSH2 0x3650 JUMP JUMPDEST PUSH1 0x1 SWAP1 POP JUMPDEST SWAP3 SWAP2 POP POP JUMP JUMPDEST PUSH0 DUP1 DUP5 PUSH1 0x40 MLOAD PUSH1 0x20 ADD PUSH2 0x3669 SWAP2 SWAP1 PUSH2 0x57BE JUMP JUMPDEST PUSH1 0x40 MLOAD PUSH1 0x20 DUP2 DUP4 SUB SUB DUP2 MSTORE SWAP1 PUSH1 0x40 MSTORE DUP1 MLOAD SWAP1 PUSH1 0x20 ADD KECCAK256 SWAP1 POP PUSH0 PUSH2 0x368C DUP3 DUP7 PUSH2 0x3BA8 JUMP JUMPDEST SWAP1 POP DUP4 PUSH20 0xFFFFFFFFFFFFFFFFFFFFFFFFFFFFFFFFFFFFFFFF AND DUP2 PUSH20 0xFFFFFFFFFFFFFFFFFFFFFFFFFFFFFFFFFFFFFFFF AND EQ SWAP3 POP POP POP SWAP4 SWAP3 POP POP POP JUMP JUMPDEST PUSH1 0x1 DUP1 DUP2 SWAP1 SSTORE POP JUMP JUMPDEST PUSH1 0x60 PUSH0 DUP1 PUSH1 0xA PUSH2 0xFFFF AND PUSH8 0xFFFFFFFFFFFFFFFF DUP2 GT ISZERO PUSH2 0x36F4 JUMPI PUSH2 0x36F3 PUSH2 0x41F4 JUMP JUMPDEST JUMPDEST PUSH1 0x40 MLOAD SWAP1 DUP1 DUP3 MSTORE DUP1 PUSH1 0x20 MUL PUSH1 0x20 ADD DUP3 ADD PUSH1 0x40 MSTORE DUP1 ISZERO PUSH2 0x3722 JUMPI DUP2 PUSH1 0x20 ADD PUSH1 0x20 DUP3 MUL DUP1 CALLDATASIZE DUP4 CALLDATACOPY DUP1 DUP3 ADD SWAP2 POP POP SWAP1 POP JUMPDEST POP SWAP1 POP PUSH0 JUMPDEST DUP7 MLOAD DUP2 LT DUP1 ISZERO PUSH2 0x373B JUMPI POP PUSH1 0xA PUSH2 0xFFFF AND DUP4 LT JUMPDEST ISZERO PUSH2 0x3894 JUMPI PUSH0 DUP8 DUP3 DUP2 MLOAD DUP2 LT PUSH2 0x3754 JUMPI PUSH2 0x3753 PUSH2 0x4E8A JUMP JUMPDEST JUMPDEST PUSH1 0x20 MUL PUSH1 0x20 ADD ADD MLOAD SWAP1 POP PUSH0 DUP8 PUSH0 DUP4 PUSH20 0xFFFFFFFFFFFFFFFFFFFFFFFFFFFFFFFFFFFFFFFF AND PUSH20 0xFFFFFFFFFFFFFFFFFFFFFFFFFFFFFFFFFFFFFFFF AND DUP2 MSTORE PUSH1 0x20 ADD SWAP1 DUP2 MSTORE PUSH1 0x20 ADD PUSH0 KECCAK256 SWAP1 POP DUP1 PUSH0 ADD PUSH1 0x8 SWAP1 SLOAD SWAP1 PUSH2 0x100 EXP SWAP1 DIV PUSH1 0xFF AND DUP1 ISZERO PUSH2 0x37CF JUMPI POP DUP7 PUSH1 0xFF AND DUP2 PUSH0 ADD PUSH1 0x7 SWAP1 SLOAD SWAP1 PUSH2 0x100 EXP SWAP1 DIV PUSH1 0xFF AND PUSH1 0xFF AND EQ JUMPDEST ISZERO PUSH2 0x387F JUMPI PUSH0 PUSH2 0x3813 DUP3 PUSH0 ADD PUSH0 SWAP1 SLOAD SWAP1 PUSH2 0x100 EXP SWAP1 DIV PUSH4 0xFFFFFFFF AND DUP4 PUSH0 ADD PUSH1 0x4 SWAP1 SLOAD SWAP1 PUSH2 0x100 EXP SWAP1 DIV PUSH2 0xFFFF AND DUP5 PUSH0 ADD PUSH1 0x6 SWAP1 SLOAD SWAP1 PUSH2 0x100 EXP SWAP1 DIV PUSH1 0xFF AND PUSH2 0x3591 JUMP JUMPDEST SWAP1 POP PUSH1 0x2 DUP2 PUSH1 0xFF AND GT PUSH2 0x387D JUMPI DUP3 DUP6 DUP8 DUP2 MLOAD DUP2 LT PUSH2 0x3834 JUMPI PUSH2 0x3833 PUSH2 0x4E8A JUMP JUMPDEST JUMPDEST PUSH1 0x20 MUL PUSH1 0x20 ADD ADD SWAP1 PUSH20 0xFFFFFFFFFFFFFFFFFFFFFFFFFFFFFFFFFFFFFFFF AND SWAP1 DUP2 PUSH20 0xFFFFFFFFFFFFFFFFFFFFFFFFFFFFFFFFFFFFFFFF AND DUP2 MSTORE POP POP DUP6 DUP1 PUSH2 0x3879 SWAP1 PUSH2 0x50AD JUMP JUMPDEST SWAP7 POP POP JUMPDEST POP JUMPDEST POP POP DUP1 DUP1 PUSH2 0x388C SWAP1 PUSH2 0x50AD JUMP JUMPDEST SWAP2 POP POP PUSH2 0x3727 JUMP JUMPDEST POP PUSH0 DUP3 PUSH8 0xFFFFFFFFFFFFFFFF DUP2 GT ISZERO PUSH2 0x38B0 JUMPI PUSH2 0x38AF PUSH2 0x41F4 JUMP JUMPDEST JUMPDEST PUSH1 0x40 MLOAD SWAP1 DUP1 DUP3 MSTORE DUP1 PUSH1 0x20 MUL PUSH1 0x20 ADD DUP3 ADD PUSH1 0x40 MSTORE DUP1 ISZERO PUSH2 0x38DE JUMPI DUP2 PUSH1 0x20 ADD PUSH1 0x20 DUP3 MUL DUP1 CALLDATASIZE DUP4 CALLDATACOPY DUP1 DUP3 ADD SWAP2 POP POP SWAP1 POP JUMPDEST POP SWAP1 POP PUSH0 JUMPDEST DUP4 DUP2 LT ISZERO PUSH2 0x3960 JUMPI DUP3 DUP2 DUP2 MLOAD DUP2 LT PUSH2 0x38FE JUMPI PUSH2 0x38FD PUSH2 0x4E8A JUMP JUMPDEST JUMPDEST PUSH1 0x20 MUL PUSH1 0x20 ADD ADD MLOAD DUP3 DUP3 DUP2 MLOAD DUP2 LT PUSH2 0x3919 JUMPI PUSH2 0x3918 PUSH2 0x4E8A JUMP JUMPDEST JUMPDEST PUSH1 0x20 MUL PUSH1 0x20 ADD ADD SWAP1 PUSH20 0xFFFFFFFFFFFFFFFFFFFFFFFFFFFFFFFFFFFFFFFF AND SWAP1 DUP2 PUSH20 0xFFFFFFFFFFFFFFFFFFFFFFFFFFFFFFFFFFFFFFFF AND DUP2 MSTORE POP POP DUP1 DUP1 PUSH1 0x1 ADD SWAP2 POP POP PUSH2 0x38E3 JUMP JUMPDEST POP DUP1 SWAP4 POP POP POP POP SWAP4 SWAP3 POP POP POP JUMP JUMPDEST PUSH0 DUP1 PUSH1 0x2 DUP2 GT ISZERO PUSH2 0x3982 JUMPI PUSH2 0x3981 PUSH2 0x4EB7 JUMP JUMPDEST JUMPDEST DUP3 PUSH1 0x2 DUP2 GT ISZERO PUSH2 0x3995 JUMPI PUSH2 0x3994 PUSH2 0x4EB7 JUMP JUMPDEST JUMPDEST SUB PUSH2 0x39A3 JUMPI PUSH1 0x9 SWAP1 POP PUSH2 0x39DE JUMP JUMPDEST PUSH1 0x1 PUSH1 0x2 DUP2 GT ISZERO PUSH2 0x39B7 JUMPI PUSH2 0x39B6 PUSH2 0x4EB7 JUMP JUMPDEST JUMPDEST DUP3 PUSH1 0x2 DUP2 GT ISZERO PUSH2 0x39CA JUMPI PUSH2 0x39C9 PUSH2 0x4EB7 JUMP JUMPDEST JUMPDEST SUB PUSH2 0x39D8 JUMPI PUSH1 0xA SWAP1 POP PUSH2 0x39DD JUMP JUMPDEST PUSH1 0xB SWAP1 POP JUMPDEST JUMPDEST PUSH0 JUMPDEST DUP2 DUP1 SLOAD SWAP1 POP DUP2 LT ISZERO PUSH2 0x3B51 JUMPI DUP4 PUSH20 0xFFFFFFFFFFFFFFFFFFFFFFFFFFFFFFFFFFFFFFFF AND DUP3 DUP3 DUP2 SLOAD DUP2 LT PUSH2 0x3A16 JUMPI PUSH2 0x3A15 PUSH2 0x4E8A JUMP JUMPDEST JUMPDEST SWAP1 PUSH0 MSTORE PUSH1 0x20 PUSH0 KECCAK256 ADD PUSH0 SWAP1 SLOAD SWAP1 PUSH2 0x100 EXP SWAP1 DIV PUSH20 0xFFFFFFFFFFFFFFFFFFFFFFFFFFFFFFFFFFFFFFFF AND PUSH20 0xFFFFFFFFFFFFFFFFFFFFFFFFFFFFFFFFFFFFFFFF AND SUB PUSH2 0x3B44 JUMPI DUP2 PUSH1 0x1 DUP4 DUP1 SLOAD SWAP1 POP PUSH2 0x3A6B SWAP2 SWAP1 PUSH2 0x4F99 JUMP JUMPDEST DUP2 SLOAD DUP2 LT PUSH2 0x3A7C JUMPI PUSH2 0x3A7B PUSH2 0x4E8A JUMP JUMPDEST JUMPDEST SWAP1 PUSH0 MSTORE PUSH1 0x20 PUSH0 KECCAK256 ADD PUSH0 SWAP1 SLOAD SWAP1 PUSH2 0x100 EXP SWAP1 DIV PUSH20 0xFFFFFFFFFFFFFFFFFFFFFFFFFFFFFFFFFFFFFFFF AND DUP3 DUP3 DUP2 SLOAD DUP2 LT PUSH2 0x3AB7 JUMPI PUSH2 0x3AB6 PUSH2 0x4E8A JUMP JUMPDEST JUMPDEST SWAP1 PUSH0 MSTORE PUSH1 0x20 PUSH0 KECCAK256 ADD PUSH0 PUSH2 0x100 EXP DUP2 SLOAD DUP2 PUSH20 0xFFFFFFFFFFFFFFFFFFFFFFFFFFFFFFFFFFFFFFFF MUL NOT AND SWAP1 DUP4 PUSH20 0xFFFFFFFFFFFFFFFFFFFFFFFFFFFFFFFFFFFFFFFF AND MUL OR SWAP1 SSTORE POP DUP2 DUP1 SLOAD DUP1 PUSH2 0x3B0D JUMPI PUSH2 0x3B0C PUSH2 0x57E3 JUMP JUMPDEST JUMPDEST PUSH1 0x1 SWAP1 SUB DUP2 DUP2 SWAP1 PUSH0 MSTORE PUSH1 0x20 PUSH0 KECCAK256 ADD PUSH0 PUSH2 0x100 EXP DUP2 SLOAD SWAP1 PUSH20 0xFFFFFFFFFFFFFFFFFFFFFFFFFFFFFFFFFFFFFFFF MUL NOT AND SWAP1 SSTORE SWAP1 SSTORE PUSH2 0x3B51 JUMP JUMPDEST DUP1 DUP1 PUSH1 0x1 ADD SWAP2 POP POP PUSH2 0x39E0 JUMP JUMPDEST POP POP POP POP JUMP JUMPDEST PUSH2 0x3B61 DUP3 DUP3 PUSH2 0x2236 JUMP JUMPDEST PUSH2 0x3BA4 JUMPI DUP1 DUP3 PUSH1 0x40 MLOAD PUSH32 0xE2517D3F00000000000000000000000000000000000000000000000000000000 DUP2 MSTORE PUSH1 0x4 ADD PUSH2 0x3B9B SWAP3 SWAP2 SWAP1 PUSH2 0x5810 JUMP JUMPDEST PUSH1 0x40 MLOAD DUP1 SWAP2 SUB SWAP1 REVERT JUMPDEST POP POP JUMP JUMPDEST PUSH0 DUP1 PUSH0 DUP1 PUSH2 0x3BB5 DUP6 PUSH2 0x3C12 JUMP JUMPDEST SWAP3 POP SWAP3 POP SWAP3 POP PUSH1 0x1 DUP7 DUP3 DUP6 DUP6 PUSH1 0x40 MLOAD PUSH0 DUP2 MSTORE PUSH1 0x20 ADD PUSH1 0x40 MSTORE PUSH1 0x40 MLOAD PUSH2 0x3BDD SWAP5 SWAP4 SWAP3 SWAP2 SWAP1 PUSH2 0x5837 JUMP JUMPDEST PUSH1 0x20 PUSH1 0x40 MLOAD PUSH1 0x20 DUP2 SUB SWAP1 DUP1 DUP5 SUB SWAP1 DUP6 GAS STATICCALL ISZERO DUP1 ISZERO PUSH2 0x3BFD JUMPI RETURNDATASIZE PUSH0 DUP1 RETURNDATACOPY RETURNDATASIZE PUSH0 REVERT JUMPDEST POP POP POP PUSH1 0x20 PUSH1 0x40 MLOAD SUB MLOAD SWAP4 POP POP POP POP SWAP3 SWAP2 POP POP JUMP JUMPDEST PUSH0 DUP1 PUSH0 PUSH1 0x41 DUP5 MLOAD EQ PUSH2 0x3C59 JUMPI PUSH1 0x40 MLOAD PUSH32 0x8C379A000000000000000000000000000000000000000000000000000000000 DUP2 MSTORE PUSH1 0x4 ADD PUSH2 0x3C50 SWAP1 PUSH2 0x58C4 JUMP JUMPDEST PUSH1 0x40 MLOAD DUP1 SWAP2 SUB SWAP1 REVERT JUMPDEST PUSH1 0x20 DUP5 ADD MLOAD SWAP3 POP PUSH1 0x40 DUP5 ADD MLOAD SWAP2 POP PUSH1 0x60 DUP5 ADD MLOAD PUSH0 BYTE SWAP1 POP PUSH1 0x1B DUP2 PUSH1 0xFF AND LT ISZERO PUSH2 0x3C8C JUMPI PUSH1 0x1B DUP2 PUSH2 0x3C89 SWAP2 SWAP1 PUSH2 0x58E2 JUMP JUMPDEST SWAP1 POP JUMPDEST SWAP2 SWAP4 SWAP1 SWAP3 POP JUMP JUMPDEST DUP3 DUP1 SLOAD DUP3 DUP3 SSTORE SWAP1 PUSH0 MSTORE PUSH1 0x20 PUSH0 KECCAK256 SWAP1 DUP2 ADD SWAP3 DUP3 ISZERO PUSH2 0x3D09 JUMPI SWAP2 PUSH1 0x20 MUL DUP3 ADD JUMPDEST DUP3 DUP2 GT ISZERO PUSH2 0x3D08 JUMPI DUP3 MLOAD DUP3 PUSH0 PUSH2 0x100 EXP DUP2 SLOAD DUP2 PUSH20 0xFFFFFFFFFFFFFFFFFFFFFFFFFFFFFFFFFFFFFFFF MUL NOT AND SWAP1 DUP4 PUSH20 0xFFFFFFFFFFFFFFFFFFFFFFFFFFFFFFFFFFFFFFFF AND MUL OR SWAP1 SSTORE POP SWAP2 PUSH1 0x20 ADD SWAP2 SWAP1 PUSH1 0x1 ADD SWAP1 PUSH2 0x3CB1 JUMP JUMPDEST JUMPDEST POP SWAP1 POP PUSH2 0x3D16 SWAP2 SWAP1 PUSH2 0x3DC1 JUMP JUMPDEST POP SWAP1 JUMP JUMPDEST DUP3 DUP1 SLOAD DUP3 DUP3 SSTORE SWAP1 PUSH0 MSTORE PUSH1 0x20 PUSH0 KECCAK256 SWAP1 PUSH1 0xF ADD PUSH1 0x10 SWAP1 DIV DUP2 ADD SWAP3 DUP3 ISZERO PUSH2 0x3DB0 JUMPI SWAP2 PUSH1 0x20 MUL DUP3 ADD PUSH0 JUMPDEST DUP4 DUP3 GT ISZERO PUSH2 0x3D80 JUMPI DUP4 MLOAD DUP4 DUP3 PUSH2 0x100 EXP DUP2 SLOAD DUP2 PUSH2 0xFFFF MUL NOT AND SWAP1 DUP4 PUSH2 0xFFFF AND MUL OR SWAP1 SSTORE POP SWAP3 PUSH1 0x20 ADD SWAP3 PUSH1 0x2 ADD PUSH1 0x20 DUP2 PUSH1 0x1 ADD DIV SWAP3 DUP4 ADD SWAP3 PUSH1 0x1 SUB MUL PUSH2 0x3D40 JUMP JUMPDEST DUP1 ISZERO PUSH2 0x3DAE JUMPI DUP3 DUP2 PUSH2 0x100 EXP DUP2 SLOAD SWAP1 PUSH2 0xFFFF MUL NOT AND SWAP1 SSTORE PUSH1 0x2 ADD PUSH1 0x20 DUP2 PUSH1 0x1 ADD DIV SWAP3 DUP4 ADD SWAP3 PUSH1 0x1 SUB MUL PUSH2 0x3D80 JUMP JUMPDEST POP JUMPDEST POP SWAP1 POP PUSH2 0x3DBD SWAP2 SWAP1 PUSH2 0x3DC1 JUMP JUMPDEST POP SWAP1 JUMP JUMPDEST JUMPDEST DUP1 DUP3 GT ISZERO PUSH2 0x3DD8 JUMPI PUSH0 DUP2 PUSH0 SWAP1 SSTORE POP PUSH1 0x1 ADD PUSH2 0x3DC2 JUMP JUMPDEST POP SWAP1 JUMP JUMPDEST PUSH0 PUSH1 0x40 MLOAD SWAP1 POP SWAP1 JUMP JUMPDEST PUSH0 DUP1 REVERT JUMPDEST PUSH0 DUP1 REVERT JUMPDEST PUSH0 PUSH32 0xFFFFFFFF00000000000000000000000000000000000000000000000000000000 DUP3 AND SWAP1 POP SWAP2 SWAP1 POP JUMP JUMPDEST PUSH2 0x3E21 DUP2 PUSH2 0x3DED JUMP JUMPDEST DUP2 EQ PUSH2 0x3E2B JUMPI PUSH0 DUP1 REVERT JUMPDEST POP JUMP JUMPDEST PUSH0 DUP2 CALLDATALOAD SWAP1 POP PUSH2 0x3E3C DUP2 PUSH2 0x3E18 JUMP JUMPDEST SWAP3 SWAP2 POP POP JUMP JUMPDEST PUSH0 PUSH1 0x20 DUP3 DUP5 SUB SLT ISZERO PUSH2 0x3E57 JUMPI PUSH2 0x3E56 PUSH2 0x3DE5 JUMP JUMPDEST JUMPDEST PUSH0 PUSH2 0x3E64 DUP5 DUP3 DUP6 ADD PUSH2 0x3E2E JUMP JUMPDEST SWAP2 POP POP SWAP3 SWAP2 POP POP JUMP JUMPDEST PUSH0 DUP2 ISZERO ISZERO SWAP1 POP SWAP2 SWAP1 POP JUMP JUMPDEST PUSH2 0x3E81 DUP2 PUSH2 0x3E6D JUMP JUMPDEST DUP3 MSTORE POP POP JUMP JUMPDEST PUSH0 PUSH1 0x20 DUP3 ADD SWAP1 POP PUSH2 0x3E9A PUSH0 DUP4 ADD DUP5 PUSH2 0x3E78 JUMP JUMPDEST SWAP3 SWAP2 POP POP JUMP JUMPDEST PUSH0 PUSH1 0xFF DUP3 AND SWAP1 POP SWAP2 SWAP1 POP JUMP JUMPDEST PUSH2 0x3EB5 DUP2 PUSH2 0x3EA0 JUMP JUMPDEST DUP3 MSTORE POP POP JUMP JUMPDEST PUSH0 PUSH1 0x20 DUP3 ADD SWAP1 POP PUSH2 0x3ECE PUSH0 DUP4 ADD DUP5 PUSH2 0x3EAC JUMP JUMPDEST SWAP3 SWAP2 POP POP JUMP JUMPDEST PUSH0 DUP2 SWAP1 POP SWAP2 SWAP1 POP JUMP JUMPDEST PUSH2 0x3EE6 DUP2 PUSH2 0x3ED4 JUMP JUMPDEST DUP3 MSTORE POP POP JUMP JUMPDEST PUSH0 PUSH1 0x20 DUP3 ADD SWAP1 POP PUSH2 0x3EFF PUSH0 DUP4 ADD DUP5 PUSH2 0x3EDD JUMP JUMPDEST SWAP3 SWAP2 POP POP JUMP JUMPDEST PUSH2 0x3F0E DUP2 PUSH2 0x3ED4 JUMP JUMPDEST DUP2 EQ PUSH2 0x3F18 JUMPI PUSH0 DUP1 REVERT JUMPDEST POP JUMP JUMPDEST PUSH0 DUP2 CALLDATALOAD SWAP1 POP PUSH2 0x3F29 DUP2 PUSH2 0x3F05 JUMP JUMPDEST SWAP3 SWAP2 POP POP JUMP JUMPDEST PUSH0 PUSH1 0x20 DUP3 DUP5 SUB SLT ISZERO PUSH2 0x3F44 JUMPI PUSH2 0x3F43 PUSH2 0x3DE5 JUMP JUMPDEST JUMPDEST PUSH0 PUSH2 0x3F51 DUP5 DUP3 DUP6 ADD PUSH2 0x3F1B JUMP JUMPDEST SWAP2 POP POP SWAP3 SWAP2 POP POP JUMP JUMPDEST PUSH0 PUSH20 0xFFFFFFFFFFFFFFFFFFFFFFFFFFFFFFFFFFFFFFFF DUP3 AND SWAP1 POP SWAP2 SWAP1 POP JUMP JUMPDEST PUSH0 PUSH2 0x3F83 DUP3 PUSH2 0x3F5A JUMP JUMPDEST SWAP1 POP SWAP2 SWAP1 POP JUMP JUMPDEST PUSH2 0x3F93 DUP2 PUSH2 0x3F79 JUMP JUMPDEST DUP2 EQ PUSH2 0x3F9D JUMPI PUSH0 DUP1 REVERT JUMPDEST POP JUMP JUMPDEST PUSH0 DUP2 CALLDATALOAD SWAP1 POP PUSH2 0x3FAE DUP2 PUSH2 0x3F8A JUMP JUMPDEST SWAP3 SWAP2 POP POP JUMP JUMPDEST PUSH0 PUSH1 0x20 DUP3 DUP5 SUB SLT ISZERO PUSH2 0x3FC9 JUMPI PUSH2 0x3FC8 PUSH2 0x3DE5 JUMP JUMPDEST JUMPDEST PUSH0 PUSH2 0x3FD6 DUP5 DUP3 DUP6 ADD PUSH2 0x3FA0 JUMP JUMPDEST SWAP2 POP POP SWAP3 SWAP2 POP POP JUMP JUMPDEST PUSH0 PUSH4 0xFFFFFFFF DUP3 AND SWAP1 POP SWAP2 SWAP1 POP JUMP JUMPDEST PUSH2 0x3FF7 DUP2 PUSH2 0x3FDF JUMP JUMPDEST DUP3 MSTORE POP POP JUMP JUMPDEST PUSH0 PUSH2 0xFFFF DUP3 AND SWAP1 POP SWAP2 SWAP1 POP JUMP JUMPDEST PUSH2 0x4013 DUP2 PUSH2 0x3FFD JUMP JUMPDEST DUP3 MSTORE POP POP JUMP JUMPDEST PUSH0 PUSH32 0xFFFFFFFFFFFFFFFFFFFFFFFFFFFFFFFFFFFFFFFF000000000000000000000000 DUP3 AND SWAP1 POP SWAP2 SWAP1 POP JUMP JUMPDEST PUSH2 0x404D DUP2 PUSH2 0x4019 JUMP JUMPDEST DUP3 MSTORE POP POP JUMP JUMPDEST PUSH0 PUSH1 0xC0 DUP3 ADD SWAP1 POP PUSH2 0x4066 PUSH0 DUP4 ADD DUP10 PUSH2 0x3FEE JUMP JUMPDEST PUSH2 0x4073 PUSH1 0x20 DUP4 ADD DUP9 PUSH2 0x400A JUMP JUMPDEST PUSH2 0x4080 PUSH1 0x40 DUP4 ADD DUP8 PUSH2 0x3EAC JUMP JUMPDEST PUSH2 0x408D PUSH1 0x60 DUP4 ADD DUP7 PUSH2 0x3EAC JUMP JUMPDEST PUSH2 0x409A PUSH1 0x80 DUP4 ADD DUP6 PUSH2 0x3E78 JUMP JUMPDEST PUSH2 0x40A7 PUSH1 0xA0 DUP4 ADD DUP5 PUSH2 0x4044 JUMP JUMPDEST SWAP8 SWAP7 POP POP POP POP POP POP POP JUMP JUMPDEST PUSH0 DUP2 SWAP1 POP SWAP2 SWAP1 POP JUMP JUMPDEST PUSH2 0x40C4 DUP2 PUSH2 0x40B2 JUMP JUMPDEST DUP2 EQ PUSH2 0x40CE JUMPI PUSH0 DUP1 REVERT JUMPDEST POP JUMP JUMPDEST PUSH0 DUP2 CALLDATALOAD SWAP1 POP PUSH2 0x40DF DUP2 PUSH2 0x40BB JUMP JUMPDEST SWAP3 SWAP2 POP POP JUMP JUMPDEST PUSH0 DUP1 PUSH0 PUSH1 0x60 DUP5 DUP7 SUB SLT ISZERO PUSH2 0x40FC JUMPI PUSH2 0x40FB PUSH2 0x3DE5 JUMP JUMPDEST JUMPDEST PUSH0 PUSH2 0x4109 DUP7 DUP3 DUP8 ADD PUSH2 0x3FA0 JUMP JUMPDEST SWAP4 POP POP PUSH1 0x20 PUSH2 0x411A DUP7 DUP3 DUP8 ADD PUSH2 0x40D1 JUMP JUMPDEST SWAP3 POP POP PUSH1 0x40 PUSH2 0x412B DUP7 DUP3 DUP8 ADD PUSH2 0x3F1B JUMP JUMPDEST SWAP2 POP POP SWAP3 POP SWAP3 POP SWAP3 JUMP JUMPDEST PUSH0 DUP1 PUSH1 0x40 DUP4 DUP6 SUB SLT ISZERO PUSH2 0x414B JUMPI PUSH2 0x414A PUSH2 0x3DE5 JUMP JUMPDEST JUMPDEST PUSH0 PUSH2 0x4158 DUP6 DUP3 DUP7 ADD PUSH2 0x3F1B JUMP JUMPDEST SWAP3 POP POP PUSH1 0x20 PUSH2 0x4169 DUP6 DUP3 DUP7 ADD PUSH2 0x3FA0 JUMP JUMPDEST SWAP2 POP POP SWAP3 POP SWAP3 SWAP1 POP JUMP JUMPDEST PUSH0 PUSH1 0xE0 DUP3 ADD SWAP1 POP PUSH2 0x4186 PUSH0 DUP4 ADD DUP11 PUSH2 0x3EAC JUMP JUMPDEST PUSH2 0x4193 PUSH1 0x20 DUP4 ADD DUP10 PUSH2 0x3FEE JUMP JUMPDEST PUSH2 0x41A0 PUSH1 0x40 DUP4 ADD DUP9 PUSH2 0x3FEE JUMP JUMPDEST PUSH2 0x41AD PUSH1 0x60 DUP4 ADD DUP8 PUSH2 0x400A JUMP JUMPDEST PUSH2 0x41BA PUSH1 0x80 DUP4 ADD DUP7 PUSH2 0x400A JUMP JUMPDEST PUSH2 0x41C7 PUSH1 0xA0 DUP4 ADD DUP6 PUSH2 0x400A JUMP JUMPDEST PUSH2 0x41D4 PUSH1 0xC0 DUP4 ADD DUP5 PUSH2 0x3E78 JUMP JUMPDEST SWAP9 SWAP8 POP POP POP POP POP POP POP POP JUMP JUMPDEST PUSH0 DUP1 REVERT JUMPDEST PUSH0 PUSH1 0x1F NOT PUSH1 0x1F DUP4 ADD AND SWAP1 POP SWAP2 SWAP1 POP JUMP JUMPDEST PUSH32 0x4E487B7100000000000000000000000000000000000000000000000000000000 PUSH0 MSTORE PUSH1 0x41 PUSH1 0x4 MSTORE PUSH1 0x24 PUSH0 REVERT JUMPDEST PUSH2 0x422A DUP3 PUSH2 0x41E4 JUMP JUMPDEST DUP2 ADD DUP2 DUP2 LT PUSH8 0xFFFFFFFFFFFFFFFF DUP3 GT OR ISZERO PUSH2 0x4249 JUMPI PUSH2 0x4248 PUSH2 0x41F4 JUMP JUMPDEST JUMPDEST DUP1 PUSH1 0x40 MSTORE POP POP POP JUMP JUMPDEST PUSH0 PUSH2 0x425B PUSH2 0x3DDC JUMP JUMPDEST SWAP1 POP PUSH2 0x4267 DUP3 DUP3 PUSH2 0x4221 JUMP JUMPDEST SWAP2 SWAP1 POP JUMP JUMPDEST PUSH0 PUSH8 0xFFFFFFFFFFFFFFFF DUP3 GT ISZERO PUSH2 0x4286 JUMPI PUSH2 0x4285 PUSH2 0x41F4 JUMP JUMPDEST JUMPDEST PUSH1 0x20 DUP3 MUL SWAP1 POP PUSH1 0x20 DUP2 ADD SWAP1 POP SWAP2 SWAP1 POP JUMP JUMPDEST PUSH0 DUP1 REVERT JUMPDEST PUSH0 PUSH2 0x42AD PUSH2 0x42A8 DUP5 PUSH2 0x426C JUMP JUMPDEST PUSH2 0x4252 JUMP JUMPDEST SWAP1 POP DUP1 DUP4 DUP3 MSTORE PUSH1 0x20 DUP3 ADD SWAP1 POP PUSH1 0x20 DUP5 MUL DUP4 ADD DUP6 DUP2 GT ISZERO PUSH2 0x42D0 JUMPI PUSH2 0x42CF PUSH2 0x4297 JUMP JUMPDEST JUMPDEST DUP4 JUMPDEST DUP2 DUP2 LT ISZERO PUSH2 0x42F9 JUMPI DUP1 PUSH2 0x42E5 DUP9 DUP3 PUSH2 0x3FA0 JUMP JUMPDEST DUP5 MSTORE PUSH1 0x20 DUP5 ADD SWAP4 POP POP PUSH1 0x20 DUP2 ADD SWAP1 POP PUSH2 0x42D2 JUMP JUMPDEST POP POP POP SWAP4 SWAP3 POP POP POP JUMP JUMPDEST PUSH0 DUP3 PUSH1 0x1F DUP4 ADD SLT PUSH2 0x4317 JUMPI PUSH2 0x4316 PUSH2 0x41E0 JUMP JUMPDEST JUMPDEST DUP2 CALLDATALOAD PUSH2 0x4327 DUP5 DUP3 PUSH1 0x20 DUP7 ADD PUSH2 0x429B JUMP JUMPDEST SWAP2 POP POP SWAP3 SWAP2 POP POP JUMP JUMPDEST PUSH0 PUSH8 0xFFFFFFFFFFFFFFFF DUP3 GT ISZERO PUSH2 0x434A JUMPI PUSH2 0x4349 PUSH2 0x41F4 JUMP JUMPDEST JUMPDEST PUSH1 0x20 DUP3 MUL SWAP1 POP PUSH1 0x20 DUP2 ADD SWAP1 POP SWAP2 SWAP1 POP JUMP JUMPDEST PUSH1 0x3 DUP2 LT PUSH2 0x4367 JUMPI PUSH0 DUP1 REVERT JUMPDEST POP JUMP JUMPDEST PUSH0 DUP2 CALLDATALOAD SWAP1 POP PUSH2 0x4378 DUP2 PUSH2 0x435B JUMP JUMPDEST SWAP3 SWAP2 POP POP JUMP JUMPDEST PUSH0 PUSH2 0x4390 PUSH2 0x438B DUP5 PUSH2 0x4330 JUMP JUMPDEST PUSH2 0x4252 JUMP JUMPDEST SWAP1 POP DUP1 DUP4 DUP3 MSTORE PUSH1 0x20 DUP3 ADD SWAP1 POP PUSH1 0x20 DUP5 MUL DUP4 ADD DUP6 DUP2 GT ISZERO PUSH2 0x43B3 JUMPI PUSH2 0x43B2 PUSH2 0x4297 JUMP JUMPDEST JUMPDEST DUP4 JUMPDEST DUP2 DUP2 LT ISZERO PUSH2 0x43DC JUMPI DUP1 PUSH2 0x43C8 DUP9 DUP3 PUSH2 0x436A JUMP JUMPDEST DUP5 MSTORE PUSH1 0x20 DUP5 ADD SWAP4 POP POP PUSH1 0x20 DUP2 ADD SWAP1 POP PUSH2 0x43B5 JUMP JUMPDEST POP POP POP SWAP4 SWAP3 POP POP POP JUMP JUMPDEST PUSH0 DUP3 PUSH1 0x1F DUP4 ADD SLT PUSH2 0x43FA JUMPI PUSH2 0x43F9 PUSH2 0x41E0 JUMP JUMPDEST JUMPDEST DUP2 CALLDATALOAD PUSH2 0x440A DUP5 DUP3 PUSH1 0x20 DUP7 ADD PUSH2 0x437E JUMP JUMPDEST SWAP2 POP POP SWAP3 SWAP2 POP POP JUMP JUMPDEST PUSH0 PUSH8 0xFFFFFFFFFFFFFFFF DUP3 GT ISZERO PUSH2 0x442D JUMPI PUSH2 0x442C PUSH2 0x41F4 JUMP JUMPDEST JUMPDEST PUSH1 0x20 DUP3 MUL SWAP1 POP PUSH1 0x20 DUP2 ADD SWAP1 POP SWAP2 SWAP1 POP JUMP JUMPDEST PUSH0 PUSH2 0x4450 PUSH2 0x444B DUP5 PUSH2 0x4413 JUMP JUMPDEST PUSH2 0x4252 JUMP JUMPDEST SWAP1 POP DUP1 DUP4 DUP3 MSTORE PUSH1 0x20 DUP3 ADD SWAP1 POP PUSH1 0x20 DUP5 MUL DUP4 ADD DUP6 DUP2 GT ISZERO PUSH2 0x4473 JUMPI PUSH2 0x4472 PUSH2 0x4297 JUMP JUMPDEST JUMPDEST DUP4 JUMPDEST DUP2 DUP2 LT ISZERO PUSH2 0x449C JUMPI DUP1 PUSH2 0x4488 DUP9 DUP3 PUSH2 0x3F1B JUMP JUMPDEST DUP5 MSTORE PUSH1 0x20 DUP5 ADD SWAP4 POP POP PUSH1 0x20 DUP2 ADD SWAP1 POP PUSH2 0x4475 JUMP JUMPDEST POP POP POP SWAP4 SWAP3 POP POP POP JUMP JUMPDEST PUSH0 DUP3 PUSH1 0x1F DUP4 ADD SLT PUSH2 0x44BA JUMPI PUSH2 0x44B9 PUSH2 0x41E0 JUMP JUMPDEST JUMPDEST DUP2 CALLDATALOAD PUSH2 0x44CA DUP5 DUP3 PUSH1 0x20 DUP7 ADD PUSH2 0x443E JUMP JUMPDEST SWAP2 POP POP SWAP3 SWAP2 POP POP JUMP JUMPDEST PUSH0 DUP1 PUSH0 PUSH1 0x60 DUP5 DUP7 SUB SLT ISZERO PUSH2 0x44EA JUMPI PUSH2 0x44E9 PUSH2 0x3DE5 JUMP JUMPDEST JUMPDEST PUSH0 DUP5 ADD CALLDATALOAD PUSH8 0xFFFFFFFFFFFFFFFF DUP2 GT ISZERO PUSH2 0x4507 JUMPI PUSH2 0x4506 PUSH2 0x3DE9 JUMP JUMPDEST JUMPDEST PUSH2 0x4513 DUP7 DUP3 DUP8 ADD PUSH2 0x4303 JUMP JUMPDEST SWAP4 POP POP PUSH1 0x20 DUP5 ADD CALLDATALOAD PUSH8 0xFFFFFFFFFFFFFFFF DUP2 GT ISZERO PUSH2 0x4534 JUMPI PUSH2 0x4533 PUSH2 0x3DE9 JUMP JUMPDEST JUMPDEST PUSH2 0x4540 DUP7 DUP3 DUP8 ADD PUSH2 0x43E6 JUMP JUMPDEST SWAP3 POP POP PUSH1 0x40 DUP5 ADD CALLDATALOAD PUSH8 0xFFFFFFFFFFFFFFFF DUP2 GT ISZERO PUSH2 0x4561 JUMPI PUSH2 0x4560 PUSH2 0x3DE9 JUMP JUMPDEST JUMPDEST PUSH2 0x456D DUP7 DUP3 DUP8 ADD PUSH2 0x44A6 JUMP JUMPDEST SWAP2 POP POP SWAP3 POP SWAP3 POP SWAP3 JUMP JUMPDEST PUSH0 DUP1 REVERT JUMPDEST PUSH0 PUSH8 0xFFFFFFFFFFFFFFFF DUP3 GT ISZERO PUSH2 0x4595 JUMPI PUSH2 0x4594 PUSH2 0x41F4 JUMP JUMPDEST JUMPDEST PUSH2 0x459E DUP3 PUSH2 0x41E4 JUMP JUMPDEST SWAP1 POP PUSH1 0x20 DUP2 ADD SWAP1 POP SWAP2 SWAP1 POP JUMP JUMPDEST DUP3 DUP2 DUP4 CALLDATACOPY PUSH0 DUP4 DUP4 ADD MSTORE POP POP POP JUMP JUMPDEST PUSH0 PUSH2 0x45CB PUSH2 0x45C6 DUP5 PUSH2 0x457B JUMP JUMPDEST PUSH2 0x4252 JUMP JUMPDEST SWAP1 POP DUP3 DUP2 MSTORE PUSH1 0x20 DUP2 ADD DUP5 DUP5 DUP5 ADD GT ISZERO PUSH2 0x45E7 JUMPI PUSH2 0x45E6 PUSH2 0x4577 JUMP JUMPDEST JUMPDEST PUSH2 0x45F2 DUP5 DUP3 DUP6 PUSH2 0x45AB JUMP JUMPDEST POP SWAP4 SWAP3 POP POP POP JUMP JUMPDEST PUSH0 DUP3 PUSH1 0x1F DUP4 ADD SLT PUSH2 0x460E JUMPI PUSH2 0x460D PUSH2 0x41E0 JUMP JUMPDEST JUMPDEST DUP2 CALLDATALOAD PUSH2 0x461E DUP5 DUP3 PUSH1 0x20 DUP7 ADD PUSH2 0x45B9 JUMP JUMPDEST SWAP2 POP POP SWAP3 SWAP2 POP POP JUMP JUMPDEST PUSH0 DUP1 PUSH0 DUP1 PUSH1 0x80 DUP6 DUP8 SUB SLT ISZERO PUSH2 0x463F JUMPI PUSH2 0x463E PUSH2 0x3DE5 JUMP JUMPDEST JUMPDEST PUSH0 PUSH2 0x464C DUP8 DUP3 DUP9 ADD PUSH2 0x436A JUMP JUMPDEST SWAP5 POP POP PUSH1 0x20 DUP6 ADD CALLDATALOAD PUSH8 0xFFFFFFFFFFFFFFFF DUP2 GT ISZERO PUSH2 0x466D JUMPI PUSH2 0x466C PUSH2 0x3DE9 JUMP JUMPDEST JUMPDEST PUSH2 0x4679 DUP8 DUP3 DUP9 ADD PUSH2 0x45FA JUMP JUMPDEST SWAP4 POP POP PUSH1 0x40 PUSH2 0x468A DUP8 DUP3 DUP9 ADD PUSH2 0x40D1 JUMP JUMPDEST SWAP3 POP POP PUSH1 0x60 PUSH2 0x469B DUP8 DUP3 DUP9 ADD PUSH2 0x3F1B JUMP JUMPDEST SWAP2 POP POP SWAP3 SWAP6 SWAP2 SWAP5 POP SWAP3 POP JUMP JUMPDEST PUSH2 0x46B0 DUP2 PUSH2 0x40B2 JUMP JUMPDEST DUP3 MSTORE POP POP JUMP JUMPDEST PUSH0 PUSH1 0x20 DUP3 ADD SWAP1 POP PUSH2 0x46C9 PUSH0 DUP4 ADD DUP5 PUSH2 0x46A7 JUMP JUMPDEST SWAP3 SWAP2 POP POP JUMP JUMPDEST PUSH0 DUP1 PUSH0 PUSH1 0x60 DUP5 DUP7 SUB SLT ISZERO PUSH2 0x46E6 JUMPI PUSH2 0x46E5 PUSH2 0x3DE5 JUMP JUMPDEST JUMPDEST PUSH0 PUSH2 0x46F3 DUP7 DUP3 DUP8 ADD PUSH2 0x3FA0 JUMP JUMPDEST SWAP4 POP POP PUSH1 0x20 PUSH2 0x4704 DUP7 DUP3 DUP8 ADD PUSH2 0x436A JUMP JUMPDEST SWAP3 POP POP PUSH1 0x40 PUSH2 0x4715 DUP7 DUP3 DUP8 ADD PUSH2 0x3F1B JUMP JUMPDEST SWAP2 POP POP SWAP3 POP SWAP3 POP SWAP3 JUMP JUMPDEST PUSH0 PUSH8 0xFFFFFFFFFFFFFFFF DUP3 GT ISZERO PUSH2 0x4739 JUMPI PUSH2 0x4738 PUSH2 0x41F4 JUMP JUMPDEST JUMPDEST PUSH1 0x20 DUP3 MUL SWAP1 POP PUSH1 0x20 DUP2 ADD SWAP1 POP SWAP2 SWAP1 POP JUMP JUMPDEST PUSH0 PUSH2 0x475C PUSH2 0x4757 DUP5 PUSH2 0x471F JUMP JUMPDEST PUSH2 0x4252 JUMP JUMPDEST SWAP1 POP DUP1 DUP4 DUP3 MSTORE PUSH1 0x20 DUP3 ADD SWAP1 POP PUSH1 0x20 DUP5 MUL DUP4 ADD DUP6 DUP2 GT ISZERO PUSH2 0x477F JUMPI PUSH2 0x477E PUSH2 0x4297 JUMP JUMPDEST JUMPDEST DUP4 JUMPDEST DUP2 DUP2 LT ISZERO PUSH2 0x47A8 JUMPI DUP1 PUSH2 0x4794 DUP9 DUP3 PUSH2 0x40D1 JUMP JUMPDEST DUP5 MSTORE PUSH1 0x20 DUP5 ADD SWAP4 POP POP PUSH1 0x20 DUP2 ADD SWAP1 POP PUSH2 0x4781 JUMP JUMPDEST POP POP POP SWAP4 SWAP3 POP POP POP JUMP JUMPDEST PUSH0 DUP3 PUSH1 0x1F DUP4 ADD SLT PUSH2 0x47C6 JUMPI PUSH2 0x47C5 PUSH2 0x41E0 JUMP JUMPDEST JUMPDEST DUP2 CALLDATALOAD PUSH2 0x47D6 DUP5 DUP3 PUSH1 0x20 DUP7 ADD PUSH2 0x474A JUMP JUMPDEST SWAP2 POP POP SWAP3 SWAP2 POP POP JUMP JUMPDEST PUSH0 DUP1 PUSH0 DUP1 PUSH0 PUSH1 0xA0 DUP7 DUP9 SUB SLT ISZERO PUSH2 0x47F8 JUMPI PUSH2 0x47F7 PUSH2 0x3DE5 JUMP JUMPDEST JUMPDEST PUSH0 PUSH2 0x4805 DUP9 DUP3 DUP10 ADD PUSH2 0x3F1B JUMP JUMPDEST SWAP6 POP POP PUSH1 0x20 DUP7 ADD CALLDATALOAD PUSH8 0xFFFFFFFFFFFFFFFF DUP2 GT ISZERO PUSH2 0x4826 JUMPI PUSH2 0x4825 PUSH2 0x3DE9 JUMP JUMPDEST JUMPDEST PUSH2 0x4832 DUP9 DUP3 DUP10 ADD PUSH2 0x4303 JUMP JUMPDEST SWAP5 POP POP PUSH1 0x40 DUP7 ADD CALLDATALOAD PUSH8 0xFFFFFFFFFFFFFFFF DUP2 GT ISZERO PUSH2 0x4853 JUMPI PUSH2 0x4852 PUSH2 0x3DE9 JUMP JUMPDEST JUMPDEST PUSH2 0x485F DUP9 DUP3 DUP10 ADD PUSH2 0x47B2 JUMP JUMPDEST SWAP4 POP POP PUSH1 0x60 PUSH2 0x4870 DUP9 DUP3 DUP10 ADD PUSH2 0x3F1B JUMP JUMPDEST SWAP3 POP POP PUSH1 0x80 PUSH2 0x4881 DUP9 DUP3 DUP10 ADD PUSH2 0x3F1B JUMP JUMPDEST SWAP2 POP POP SWAP3 SWAP6 POP SWAP3 SWAP6 SWAP1 SWAP4 POP JUMP JUMPDEST PUSH0 PUSH1 0xA0 DUP3 ADD SWAP1 POP PUSH2 0x48A1 PUSH0 DUP4 ADD DUP9 PUSH2 0x3FEE JUMP JUMPDEST PUSH2 0x48AE PUSH1 0x20 DUP4 ADD DUP8 PUSH2 0x3EAC JUMP JUMPDEST PUSH2 0x48BB PUSH1 0x40 DUP4 ADD DUP7 PUSH2 0x400A JUMP JUMPDEST PUSH2 0x48C8 PUSH1 0x60 DUP4 ADD DUP6 PUSH2 0x400A JUMP JUMPDEST PUSH2 0x48D5 PUSH1 0x80 DUP4 ADD DUP5 PUSH2 0x400A JUMP JUMPDEST SWAP7 SWAP6 POP POP POP POP POP POP JUMP JUMPDEST PUSH0 PUSH1 0x20 DUP3 DUP5 SUB SLT ISZERO PUSH2 0x48F4 JUMPI PUSH2 0x48F3 PUSH2 0x3DE5 JUMP JUMPDEST JUMPDEST PUSH0 PUSH2 0x4901 DUP5 DUP3 DUP6 ADD PUSH2 0x40D1 JUMP JUMPDEST SWAP2 POP POP SWAP3 SWAP2 POP POP JUMP JUMPDEST PUSH2 0x4913 DUP2 PUSH2 0x3F79 JUMP JUMPDEST DUP3 MSTORE POP POP JUMP JUMPDEST PUSH0 PUSH1 0x20 DUP3 ADD SWAP1 POP PUSH2 0x492C PUSH0 DUP4 ADD DUP5 PUSH2 0x490A JUMP JUMPDEST SWAP3 SWAP2 POP POP JUMP JUMPDEST PUSH0 PUSH1 0x80 DUP3 ADD SWAP1 POP PUSH2 0x4945 PUSH0 DUP4 ADD DUP8 PUSH2 0x3EDD JUMP JUMPDEST PUSH2 0x4952 PUSH1 0x20 DUP4 ADD DUP7 PUSH2 0x4044 JUMP JUMPDEST PUSH2 0x495F PUSH1 0x40 DUP4 ADD DUP6 PUSH2 0x4044 JUMP JUMPDEST PUSH2 0x496C PUSH1 0x60 DUP4 ADD DUP5 PUSH2 0x3FEE JUMP JUMPDEST SWAP6 SWAP5 POP POP POP POP POP JUMP JUMPDEST PUSH0 PUSH1 0x20 DUP3 ADD SWAP1 POP PUSH2 0x4988 PUSH0 DUP4 ADD DUP5 PUSH2 0x3FEE JUMP JUMPDEST SWAP3 SWAP2 POP POP JUMP JUMPDEST PUSH0 PUSH2 0x100 DUP3 ADD SWAP1 POP PUSH2 0x49A2 PUSH0 DUP4 ADD DUP12 PUSH2 0x3FEE JUMP JUMPDEST PUSH2 0x49AF PUSH1 0x20 DUP4 ADD DUP11 PUSH2 0x3FEE JUMP JUMPDEST PUSH2 0x49BC PUSH1 0x40 DUP4 ADD DUP10 PUSH2 0x400A JUMP JUMPDEST PUSH2 0x49C9 PUSH1 0x60 DUP4 ADD DUP9 PUSH2 0x3EAC JUMP JUMPDEST PUSH2 0x49D6 PUSH1 0x80 DUP4 ADD DUP8 PUSH2 0x3E78 JUMP JUMPDEST PUSH2 0x49E3 PUSH1 0xA0 DUP4 ADD DUP7 PUSH2 0x490A JUMP JUMPDEST PUSH2 0x49F0 PUSH1 0xC0 DUP4 ADD DUP6 PUSH2 0x3EDD JUMP JUMPDEST PUSH2 0x49FD PUSH1 0xE0 DUP4 ADD DUP5 PUSH2 0x3EDD JUMP JUMPDEST SWAP10 SWAP9 POP POP POP POP POP POP POP POP POP JUMP JUMPDEST PUSH0 PUSH1 0x60 DUP3 ADD SWAP1 POP PUSH2 0x4A1D PUSH0 DUP4 ADD DUP7 PUSH2 0x46A7 JUMP JUMPDEST PUSH2 0x4A2A PUSH1 0x20 DUP4 ADD DUP6 PUSH2 0x46A7 JUMP JUMPDEST PUSH2 0x4A37 PUSH1 0x40 DUP4 ADD DUP5 PUSH2 0x46A7 JUMP JUMPDEST SWAP5 SWAP4 POP POP POP POP JUMP JUMPDEST PUSH0 PUSH8 0xFFFFFFFFFFFFFFFF DUP3 GT ISZERO PUSH2 0x4A59 JUMPI PUSH2 0x4A58 PUSH2 0x41F4 JUMP JUMPDEST JUMPDEST PUSH2 0x4A62 DUP3 PUSH2 0x41E4 JUMP JUMPDEST SWAP1 POP PUSH1 0x20 DUP2 ADD SWAP1 POP SWAP2 SWAP1 POP JUMP JUMPDEST PUSH0 PUSH2 0x4A81 PUSH2 0x4A7C DUP5 PUSH2 0x4A3F JUMP JUMPDEST PUSH2 0x4252 JUMP JUMPDEST SWAP1 POP DUP3 DUP2 MSTORE PUSH1 0x20 DUP2 ADD DUP5 DUP5 DUP5 ADD GT ISZERO PUSH2 0x4A9D JUMPI PUSH2 0x4A9C PUSH2 0x4577 JUMP JUMPDEST JUMPDEST PUSH2 0x4AA8 DUP5 DUP3 DUP6 PUSH2 0x45AB JUMP JUMPDEST POP SWAP4 SWAP3 POP POP POP JUMP JUMPDEST PUSH0 DUP3 PUSH1 0x1F DUP4 ADD SLT PUSH2 0x4AC4 JUMPI PUSH2 0x4AC3 PUSH2 0x41E0 JUMP JUMPDEST JUMPDEST DUP2 CALLDATALOAD PUSH2 0x4AD4 DUP5 DUP3 PUSH1 0x20 DUP7 ADD PUSH2 0x4A6F JUMP JUMPDEST SWAP2 POP POP SWAP3 SWAP2 POP POP JUMP JUMPDEST PUSH0 DUP1 PUSH0 PUSH1 0x60 DUP5 DUP7 SUB SLT ISZERO PUSH2 0x4AF4 JUMPI PUSH2 0x4AF3 PUSH2 0x3DE5 JUMP JUMPDEST JUMPDEST PUSH0 PUSH2 0x4B01 DUP7 DUP3 DUP8 ADD PUSH2 0x40D1 JUMP JUMPDEST SWAP4 POP POP PUSH1 0x20 DUP5 ADD CALLDATALOAD PUSH8 0xFFFFFFFFFFFFFFFF DUP2 GT ISZERO PUSH2 0x4B22 JUMPI PUSH2 0x4B21 PUSH2 0x3DE9 JUMP JUMPDEST JUMPDEST PUSH2 0x4B2E DUP7 DUP3 DUP8 ADD PUSH2 0x4AB0 JUMP JUMPDEST SWAP3 POP POP PUSH1 0x40 DUP5 ADD CALLDATALOAD PUSH8 0xFFFFFFFFFFFFFFFF DUP2 GT ISZERO PUSH2 0x4B4F JUMPI PUSH2 0x4B4E PUSH2 0x3DE9 JUMP JUMPDEST JUMPDEST PUSH2 0x4B5B DUP7 DUP3 DUP8 ADD PUSH2 0x4AB0 JUMP JUMPDEST SWAP2 POP POP SWAP3 POP SWAP3 POP SWAP3 JUMP JUMPDEST PUSH2 0x4B6E DUP2 PUSH2 0x3EA0 JUMP JUMPDEST DUP2 EQ PUSH2 0x4B78 JUMPI PUSH0 DUP1 REVERT JUMPDEST POP JUMP JUMPDEST PUSH0 DUP2 CALLDATALOAD SWAP1 POP PUSH2 0x4B89 DUP2 PUSH2 0x4B65 JUMP JUMPDEST SWAP3 SWAP2 POP POP JUMP JUMPDEST PUSH0 PUSH1 0x20 DUP3 DUP5 SUB SLT ISZERO PUSH2 0x4BA4 JUMPI PUSH2 0x4BA3 PUSH2 0x3DE5 JUMP JUMPDEST JUMPDEST PUSH0 PUSH2 0x4BB1 DUP5 DUP3 DUP6 ADD PUSH2 0x4B7B JUMP JUMPDEST SWAP2 POP POP SWAP3 SWAP2 POP POP JUMP JUMPDEST PUSH0 PUSH1 0xC0 DUP3 ADD SWAP1 POP PUSH2 0x4BCD PUSH0 DUP4 ADD DUP10 PUSH2 0x3FEE JUMP JUMPDEST PUSH2 0x4BDA PUSH1 0x20 DUP4 ADD DUP9 PUSH2 0x3FEE JUMP JUMPDEST PUSH2 0x4BE7 PUSH1 0x40 DUP4 ADD DUP8 PUSH2 0x400A JUMP JUMPDEST PUSH2 0x4BF4 PUSH1 0x60 DUP4 ADD DUP7 PUSH2 0x400A JUMP JUMPDEST PUSH2 0x4C01 PUSH1 0x80 DUP4 ADD DUP6 PUSH2 0x400A JUMP JUMPDEST PUSH2 0x4C0E PUSH1 0xA0 DUP4 ADD DUP5 PUSH2 0x3E78 JUMP JUMPDEST SWAP8 SWAP7 POP POP POP POP POP POP POP JUMP JUMPDEST PUSH0 PUSH1 0x20 DUP3 DUP5 SUB SLT ISZERO PUSH2 0x4C2E JUMPI PUSH2 0x4C2D PUSH2 0x3DE5 JUMP JUMPDEST JUMPDEST PUSH0 PUSH2 0x4C3B DUP5 DUP3 DUP6 ADD PUSH2 0x436A JUMP JUMPDEST SWAP2 POP POP SWAP3 SWAP2 POP POP JUMP JUMPDEST PUSH0 DUP2 MLOAD SWAP1 POP SWAP2 SWAP1 POP JUMP JUMPDEST PUSH0 DUP3 DUP3 MSTORE PUSH1 0x20 DUP3 ADD SWAP1 POP SWAP3 SWAP2 POP POP JUMP JUMPDEST PUSH0 DUP2 SWAP1 POP PUSH1 0x20 DUP3 ADD SWAP1 POP SWAP2 SWAP1 POP JUMP JUMPDEST PUSH2 0x4C76 DUP2 PUSH2 0x3F79 JUMP JUMPDEST DUP3 MSTORE POP POP JUMP JUMPDEST PUSH0 PUSH2 0x4C87 DUP4 DUP4 PUSH2 0x4C6D JUMP JUMPDEST PUSH1 0x20 DUP4 ADD SWAP1 POP SWAP3 SWAP2 POP POP JUMP JUMPDEST PUSH0 PUSH1 0x20 DUP3 ADD SWAP1 POP SWAP2 SWAP1 POP JUMP JUMPDEST PUSH0 PUSH2 0x4CA9 DUP3 PUSH2 0x4C44 JUMP JUMPDEST PUSH2 0x4CB3 DUP2 DUP6 PUSH2 0x4C4E JUMP JUMPDEST SWAP4 POP PUSH2 0x4CBE DUP4 PUSH2 0x4C5E JUMP JUMPDEST DUP1 PUSH0 JUMPDEST DUP4 DUP2 LT ISZERO PUSH2 0x4CEE JUMPI DUP2 MLOAD PUSH2 0x4CD5 DUP9 DUP3 PUSH2 0x4C7C JUMP JUMPDEST SWAP8 POP PUSH2 0x4CE0 DUP4 PUSH2 0x4C93 JUMP JUMPDEST SWAP3 POP POP PUSH1 0x1 DUP2 ADD SWAP1 POP PUSH2 0x4CC1 JUMP JUMPDEST POP DUP6 SWAP4 POP POP POP POP SWAP3 SWAP2 POP POP JUMP JUMPDEST PUSH0 PUSH1 0x20 DUP3 ADD SWAP1 POP DUP2 DUP2 SUB PUSH0 DUP4 ADD MSTORE PUSH2 0x4D13 DUP2 DUP5 PUSH2 0x4C9F JUMP JUMPDEST SWAP1 POP SWAP3 SWAP2 POP POP JUMP JUMPDEST PUSH0 DUP3 DUP3 MSTORE PUSH1 0x20 DUP3 ADD SWAP1 POP SWAP3 SWAP2 POP POP JUMP JUMPDEST PUSH32 0x4F7261636C65206E6F7420616374697665000000000000000000000000000000 PUSH0 DUP3 ADD MSTORE POP JUMP JUMPDEST PUSH0 PUSH2 0x4D5F PUSH1 0x11 DUP4 PUSH2 0x4D1B JUMP JUMPDEST SWAP2 POP PUSH2 0x4D6A DUP3 PUSH2 0x4D2B JUMP JUMPDEST PUSH1 0x20 DUP3 ADD SWAP1 POP SWAP2 SWAP1 POP JUMP JUMPDEST PUSH0 PUSH1 0x20 DUP3 ADD SWAP1 POP DUP2 DUP2 SUB PUSH0 DUP4 ADD MSTORE PUSH2 0x4D8C DUP2 PUSH2 0x4D53 JUMP JUMPDEST SWAP1 POP SWAP2 SWAP1 POP JUMP JUMPDEST PUSH0 PUSH1 0x40 DUP3 ADD SWAP1 POP PUSH2 0x4DA6 PUSH0 DUP4 ADD DUP6 PUSH2 0x46A7 JUMP JUMPDEST PUSH2 0x4DB3 PUSH1 0x20 DUP4 ADD DUP5 PUSH2 0x3EDD JUMP JUMPDEST SWAP4 SWAP3 POP POP POP JUMP JUMPDEST PUSH32 0x4172726179206C656E677468206D69736D617463680000000000000000000000 PUSH0 DUP3 ADD MSTORE POP JUMP JUMPDEST PUSH0 PUSH2 0x4DEE PUSH1 0x15 DUP4 PUSH2 0x4D1B JUMP JUMPDEST SWAP2 POP PUSH2 0x4DF9 DUP3 PUSH2 0x4DBA JUMP JUMPDEST PUSH1 0x20 DUP3 ADD SWAP1 POP SWAP2 SWAP1 POP JUMP JUMPDEST PUSH0 PUSH1 0x20 DUP3 ADD SWAP1 POP DUP2 DUP2 SUB PUSH0 DUP4 ADD MSTORE PUSH2 0x4E1B DUP2 PUSH2 0x4DE2 JUMP JUMPDEST SWAP1 POP SWAP2 SWAP1 POP JUMP JUMPDEST PUSH32 0x42617463682073697A6520657863656564656400000000000000000000000000 PUSH0 DUP3 ADD MSTORE POP JUMP JUMPDEST PUSH0 PUSH2 0x4E56 PUSH1 0x13 DUP4 PUSH2 0x4D1B JUMP JUMPDEST SWAP2 POP PUSH2 0x4E61 DUP3 PUSH2 0x4E22 JUMP JUMPDEST PUSH1 0x20 DUP3 ADD SWAP1 POP SWAP2 SWAP1 POP JUMP JUMPDEST PUSH0 PUSH1 0x20 DUP3 ADD SWAP1 POP DUP2 DUP2 SUB PUSH0 DUP4 ADD MSTORE PUSH2 0x4E83 DUP2 PUSH2 0x4E4A JUMP JUMPDEST SWAP1 POP SWAP2 SWAP1 POP JUMP JUMPDEST PUSH32 0x4E487B7100000000000000000000000000000000000000000000000000000000 PUSH0 MSTORE PUSH1 0x32 PUSH1 0x4 MSTORE PUSH1 0x24 PUSH0 REVERT JUMPDEST PUSH32 0x4E487B7100000000000000000000000000000000000000000000000000000000 PUSH0 MSTORE PUSH1 0x21 PUSH1 0x4 MSTORE PUSH1 0x24 PUSH0 REVERT JUMPDEST PUSH32 0x4E487B7100000000000000000000000000000000000000000000000000000000 PUSH0 MSTORE PUSH1 0x11 PUSH1 0x4 MSTORE PUSH1 0x24 PUSH0 REVERT JUMPDEST PUSH0 PUSH2 0x4F1B DUP3 PUSH2 0x3FFD JUMP JUMPDEST SWAP2 POP PUSH2 0xFFFF DUP3 SUB PUSH2 0x4F2F JUMPI PUSH2 0x4F2E PUSH2 0x4EE4 JUMP JUMPDEST JUMPDEST PUSH1 0x1 DUP3 ADD SWAP1 POP SWAP2 SWAP1 POP JUMP JUMPDEST PUSH1 0x3 DUP2 LT PUSH2 0x4F4B JUMPI PUSH2 0x4F4A PUSH2 0x4EB7 JUMP JUMPDEST JUMPDEST POP JUMP JUMPDEST PUSH0 DUP2 SWAP1 POP PUSH2 0x4F5B DUP3 PUSH2 0x4F3A JUMP JUMPDEST SWAP2 SWAP1 POP JUMP JUMPDEST PUSH0 PUSH2 0x4F6A DUP3 PUSH2 0x4F4E JUMP JUMPDEST SWAP1 POP SWAP2 SWAP1 POP JUMP JUMPDEST PUSH2 0x4F7A DUP2 PUSH2 0x4F60 JUMP JUMPDEST DUP3 MSTORE POP POP JUMP JUMPDEST PUSH0 PUSH1 0x20 DUP3 ADD SWAP1 POP PUSH2 0x4F93 PUSH0 DUP4 ADD DUP5 PUSH2 0x4F71 JUMP JUMPDEST SWAP3 SWAP2 POP POP JUMP JUMPDEST PUSH0 PUSH2 0x4FA3 DUP3 PUSH2 0x40B2 JUMP JUMPDEST SWAP2 POP PUSH2 0x4FAE DUP4 PUSH2 0x40B2 JUMP JUMPDEST SWAP3 POP DUP3 DUP3 SUB SWAP1 POP DUP2 DUP2 GT ISZERO PUSH2 0x4FC6 JUMPI PUSH2 0x4FC5 PUSH2 0x4EE4 JUMP JUMPDEST JUMPDEST SWAP3 SWAP2 POP POP JUMP JUMPDEST PUSH0 PUSH2 0x4FD6 DUP3 PUSH2 0x40B2 JUMP JUMPDEST SWAP2 POP PUSH2 0x4FE1 DUP4 PUSH2 0x40B2 JUMP JUMPDEST SWAP3 POP DUP3 DUP3 MUL PUSH2 0x4FEF DUP2 PUSH2 0x40B2 JUMP JUMPDEST SWAP2 POP DUP3 DUP3 DIV DUP5 EQ DUP4 ISZERO OR PUSH2 0x5006 JUMPI PUSH2 0x5005 PUSH2 0x4EE4 JUMP JUMPDEST JUMPDEST POP SWAP3 SWAP2 POP POP JUMP JUMPDEST PUSH0 PUSH2 0x5017 DUP3 PUSH2 0x3FDF JUMP JUMPDEST SWAP2 POP PUSH2 0x5022 DUP4 PUSH2 0x3FDF JUMP JUMPDEST SWAP3 POP DUP3 DUP3 ADD SWAP1 POP PUSH4 0xFFFFFFFF DUP2 GT ISZERO PUSH2 0x503E JUMPI PUSH2 0x503D PUSH2 0x4EE4 JUMP JUMPDEST JUMPDEST SWAP3 SWAP2 POP POP JUMP JUMPDEST PUSH0 DUP2 SWAP1 POP SWAP2 SWAP1 POP JUMP JUMPDEST PUSH0 DUP2 SWAP1 POP SWAP2 SWAP1 POP JUMP JUMPDEST PUSH0 PUSH2 0x5070 PUSH2 0x506B PUSH2 0x5066 DUP5 PUSH2 0x5044 JUMP JUMPDEST PUSH2 0x504D JUMP JUMPDEST PUSH2 0x3EA0 JUMP JUMPDEST SWAP1 POP SWAP2 SWAP1 POP JUMP JUMPDEST PUSH2 0x5080 DUP2 PUSH2 0x5056 JUMP JUMPDEST DUP3 MSTORE POP POP JUMP JUMPDEST PUSH0 PUSH1 0x40 DUP3 ADD SWAP1 POP PUSH2 0x5099 PUSH0 DUP4 ADD DUP6 PUSH2 0x46A7 JUMP JUMPDEST PUSH2 0x50A6 PUSH1 0x20 DUP4 ADD DUP5 PUSH2 0x5077 JUMP JUMPDEST SWAP4 SWAP3 POP POP POP JUMP JUMPDEST PUSH0 PUSH2 0x50B7 DUP3 PUSH2 0x40B2 JUMP JUMPDEST SWAP2 POP PUSH32 0xFFFFFFFFFFFFFFFFFFFFFFFFFFFFFFFFFFFFFFFFFFFFFFFFFFFFFFFFFFFFFFFF DUP3 SUB PUSH2 0x50E9 JUMPI PUSH2 0x50E8 PUSH2 0x4EE4 JUMP JUMPDEST JUMPDEST PUSH1 0x1 DUP3 ADD SWAP1 POP SWAP2 SWAP1 POP JUMP JUMPDEST PUSH0 DUP2 MLOAD SWAP1 POP SWAP2 SWAP1 POP JUMP JUMPDEST PUSH0 DUP2 SWAP1 POP SWAP3 SWAP2 POP POP JUMP JUMPDEST DUP3 DUP2 DUP4 MCOPY PUSH0 DUP4 DUP4 ADD MSTORE POP POP POP JUMP JUMPDEST PUSH0 PUSH2 0x5120 DUP3 PUSH2 0x50F4 JUMP JUMPDEST PUSH2 0x512A DUP2 DUP6 PUSH2 0x50FE JUMP JUMPDEST SWAP4 POP PUSH2 0x513A DUP2 DUP6 PUSH1 0x20 DUP7 ADD PUSH2 0x5108 JUMP JUMPDEST DUP1 DUP5 ADD SWAP2 POP POP SWAP3 SWAP2 POP POP JUMP JUMPDEST PUSH0 PUSH2 0x5151 DUP3 DUP5 PUSH2 0x5116 JUMP JUMPDEST SWAP2 POP DUP2 SWAP1 POP SWAP3 SWAP2 POP POP JUMP JUMPDEST PUSH0 PUSH2 0x5166 DUP3 PUSH2 0x40B2 JUMP JUMPDEST SWAP2 POP PUSH2 0x5171 DUP4 PUSH2 0x40B2 JUMP JUMPDEST SWAP3 POP DUP3 DUP3 ADD SWAP1 POP DUP1 DUP3 GT ISZERO PUSH2 0x5189 JUMPI PUSH2 0x5188 PUSH2 0x4EE4 JUMP JUMPDEST JUMPDEST SWAP3 SWAP2 POP POP JUMP JUMPDEST PUSH0 DUP2 SWAP1 POP SWAP2 SWAP1 POP JUMP JUMPDEST PUSH0 PUSH2 0x51B2 PUSH2 0x51AD PUSH2 0x51A8 DUP5 PUSH2 0x518F JUMP JUMPDEST PUSH2 0x504D JUMP JUMPDEST PUSH2 0x3EA0 JUMP JUMPDEST SWAP1 POP SWAP2 SWAP1 POP JUMP JUMPDEST PUSH2 0x51C2 DUP2 PUSH2 0x5198 JUMP JUMPDEST DUP3 MSTORE POP POP JUMP JUMPDEST PUSH0 PUSH1 0x40 DUP3 ADD SWAP1 POP PUSH2 0x51DB PUSH0 DUP4 ADD DUP6 PUSH2 0x46A7 JUMP JUMPDEST PUSH2 0x51E8 PUSH1 0x20 DUP4 ADD DUP5 PUSH2 0x51B9 JUMP JUMPDEST SWAP4 SWAP3 POP POP POP JUMP JUMPDEST PUSH0 PUSH1 0x40 DUP3 ADD SWAP1 POP PUSH2 0x5202 PUSH0 DUP4 ADD DUP6 PUSH2 0x4F71 JUMP JUMPDEST PUSH2 0x520F PUSH1 0x20 DUP4 ADD DUP5 PUSH2 0x3EDD JUMP JUMPDEST SWAP4 SWAP3 POP POP POP JUMP JUMPDEST PUSH32 0x4F7261636C6520616C7265616479207265676973746572656400000000000000 PUSH0 DUP3 ADD MSTORE POP JUMP JUMPDEST PUSH0 PUSH2 0x524A PUSH1 0x19 DUP4 PUSH2 0x4D1B JUMP JUMPDEST SWAP2 POP PUSH2 0x5255 DUP3 PUSH2 0x5216 JUMP JUMPDEST PUSH1 0x20 DUP3 ADD SWAP1 POP SWAP2 SWAP1 POP JUMP JUMPDEST PUSH0 PUSH1 0x20 DUP3 ADD SWAP1 POP DUP2 DUP2 SUB PUSH0 DUP4 ADD MSTORE PUSH2 0x5277 DUP2 PUSH2 0x523E JUMP JUMPDEST SWAP1 POP SWAP2 SWAP1 POP JUMP JUMPDEST PUSH0 DUP2 SWAP1 POP SWAP2 SWAP1 POP JUMP JUMPDEST PUSH0 PUSH2 0x52A1 PUSH2 0x529C PUSH2 0x5297 DUP5 PUSH2 0x527E JUMP JUMPDEST PUSH2 0x504D JUMP JUMPDEST PUSH2 0x3EA0 JUMP JUMPDEST SWAP1 POP SWAP2 SWAP1 POP JUMP JUMPDEST PUSH2 0x52B1 DUP2 PUSH2 0x5287 JUMP JUMPDEST DUP3 MSTORE POP POP JUMP JUMPDEST PUSH0 PUSH1 0x40 DUP3 ADD SWAP1 POP PUSH2 0x52CA PUSH0 DUP4 ADD DUP6 PUSH2 0x46A7 JUMP JUMPDEST PUSH2 0x52D7 PUSH1 0x20 DUP4 ADD DUP5 PUSH2 0x52A8 JUMP JUMPDEST SWAP4 SWAP3 POP POP POP JUMP JUMPDEST PUSH0 DUP2 SWAP1 POP SWAP2 SWAP1 POP JUMP JUMPDEST PUSH0 PUSH2 0x5301 PUSH2 0x52FC PUSH2 0x52F7 DUP5 PUSH2 0x52DE JUMP JUMPDEST PUSH2 0x504D JUMP JUMPDEST PUSH2 0x3EA0 JUMP JUMPDEST SWAP1 POP SWAP2 SWAP1 POP JUMP JUMPDEST PUSH2 0x5311 DUP2 PUSH2 0x52E7 JUMP JUMPDEST DUP3 MSTORE POP POP JUMP JUMPDEST PUSH0 PUSH1 0x40 DUP3 ADD SWAP1 POP PUSH2 0x532A PUSH0 DUP4 ADD DUP6 PUSH2 0x46A7 JUMP JUMPDEST PUSH2 0x5337 PUSH1 0x20 DUP4 ADD DUP5 PUSH2 0x5308 JUMP JUMPDEST SWAP4 SWAP3 POP POP POP JUMP JUMPDEST PUSH32 0x5461736B20616C726561647920636F6D706C6574656400000000000000000000 PUSH0 DUP3 ADD MSTORE POP JUMP JUMPDEST PUSH0 PUSH2 0x5372 PUSH1 0x16 DUP4 PUSH2 0x4D1B JUMP JUMPDEST SWAP2 POP PUSH2 0x537D DUP3 PUSH2 0x533E JUMP JUMPDEST PUSH1 0x20 DUP3 ADD SWAP1 POP SWAP2 SWAP1 POP JUMP JUMPDEST PUSH0 PUSH1 0x20 DUP3 ADD SWAP1 POP DUP2 DUP2 SUB PUSH0 DUP4 ADD MSTORE PUSH2 0x539F DUP2 PUSH2 0x5366 JUMP JUMPDEST SWAP1 POP SWAP2 SWAP1 POP JUMP JUMPDEST PUSH0 DUP2 MLOAD SWAP1 POP SWAP2 SWAP1 POP JUMP JUMPDEST PUSH0 DUP3 DUP3 MSTORE PUSH1 0x20 DUP3 ADD SWAP1 POP SWAP3 SWAP2 POP POP JUMP JUMPDEST PUSH0 PUSH2 0x53CA DUP3 PUSH2 0x53A6 JUMP JUMPDEST PUSH2 0x53D4 DUP2 DUP6 PUSH2 0x53B0 JUMP JUMPDEST SWAP4 POP PUSH2 0x53E4 DUP2 DUP6 PUSH1 0x20 DUP7 ADD PUSH2 0x5108 JUMP JUMPDEST PUSH2 0x53ED DUP2 PUSH2 0x41E4 JUMP JUMPDEST DUP5 ADD SWAP2 POP POP SWAP3 SWAP2 POP POP JUMP JUMPDEST PUSH0 PUSH1 0x20 DUP3 ADD SWAP1 POP DUP2 DUP2 SUB PUSH0 DUP4 ADD MSTORE PUSH2 0x5410 DUP2 DUP5 PUSH2 0x53C0 JUMP JUMPDEST SWAP1 POP SWAP3 SWAP2 POP POP JUMP JUMPDEST PUSH32 0x5461736B20657870697265640000000000000000000000000000000000000000 PUSH0 DUP3 ADD MSTORE POP JUMP JUMPDEST PUSH0 PUSH2 0x544C PUSH1 0xC DUP4 PUSH2 0x4D1B JUMP JUMPDEST SWAP2 POP PUSH2 0x5457 DUP3 PUSH2 0x5418 JUMP JUMPDEST PUSH1 0x20 DUP3 ADD SWAP1 POP SWAP2 SWAP1 POP JUMP JUMPDEST PUSH0 PUSH1 0x20 DUP3 ADD SWAP1 POP DUP2 DUP2 SUB PUSH0 DUP4 ADD MSTORE PUSH2 0x5479 DUP2 PUSH2 0x5440 JUMP JUMPDEST SWAP1 POP SWAP2 SWAP1 POP JUMP JUMPDEST PUSH32 0x44656665727265642064756520746F2068696768206761732070726963657300 PUSH0 DUP3 ADD MSTORE POP JUMP JUMPDEST PUSH0 PUSH2 0x54B4 PUSH1 0x1F DUP4 PUSH2 0x4D1B JUMP JUMPDEST SWAP2 POP PUSH2 0x54BF DUP3 PUSH2 0x5480 JUMP JUMPDEST PUSH1 0x20 DUP3 ADD SWAP1 POP SWAP2 SWAP1 POP JUMP JUMPDEST PUSH0 PUSH1 0x20 DUP3 ADD SWAP1 POP DUP2 DUP2 SUB PUSH0 DUP4 ADD MSTORE PUSH2 0x54E1 DUP2 PUSH2 0x54A8 JUMP JUMPDEST SWAP1 POP SWAP2 SWAP1 POP JUMP JUMPDEST PUSH0 DUP2 SWAP1 POP SWAP2 SWAP1 POP JUMP JUMPDEST PUSH2 0x5502 PUSH2 0x54FD DUP3 PUSH2 0x40B2 JUMP JUMPDEST PUSH2 0x54E8 JUMP JUMPDEST DUP3 MSTORE POP POP JUMP JUMPDEST PUSH0 DUP2 SWAP1 POP SWAP3 SWAP2 POP POP JUMP JUMPDEST PUSH0 PUSH2 0x551C DUP3 PUSH2 0x53A6 JUMP JUMPDEST PUSH2 0x5526 DUP2 DUP6 PUSH2 0x5508 JUMP JUMPDEST SWAP4 POP PUSH2 0x5536 DUP2 DUP6 PUSH1 0x20 DUP7 ADD PUSH2 0x5108 JUMP JUMPDEST DUP1 DUP5 ADD SWAP2 POP POP SWAP3 SWAP2 POP POP JUMP JUMPDEST PUSH0 PUSH2 0x554D DUP3 DUP6 PUSH2 0x54F1 JUMP JUMPDEST PUSH1 0x20 DUP3 ADD SWAP2 POP PUSH2 0x555D DUP3 DUP5 PUSH2 0x5512 JUMP JUMPDEST SWAP2 POP DUP2 SWAP1 POP SWAP4 SWAP3 POP POP POP JUMP JUMPDEST PUSH32 0x496E76616C6964207369676E6174757265000000000000000000000000000000 PUSH0 DUP3 ADD MSTORE POP JUMP JUMPDEST PUSH0 PUSH2 0x559D PUSH1 0x11 DUP4 PUSH2 0x4D1B JUMP JUMPDEST SWAP2 POP PUSH2 0x55A8 DUP3 PUSH2 0x5569 JUMP JUMPDEST PUSH1 0x20 DUP3 ADD SWAP1 POP SWAP2 SWAP1 POP JUMP JUMPDEST PUSH0 PUSH1 0x20 DUP3 ADD SWAP1 POP DUP2 DUP2 SUB PUSH0 DUP4 ADD MSTORE PUSH2 0x55CA DUP2 PUSH2 0x5591 JUMP JUMPDEST SWAP1 POP SWAP2 SWAP1 POP JUMP JUMPDEST PUSH0 DUP2 SWAP1 POP SWAP2 SWAP1 POP JUMP JUMPDEST PUSH0 PUSH2 0x55F4 PUSH2 0x55EF PUSH2 0x55EA DUP5 PUSH2 0x55D1 JUMP JUMPDEST PUSH2 0x504D JUMP JUMPDEST PUSH2 0x3EA0 JUMP JUMPDEST SWAP1 POP SWAP2 SWAP1 POP JUMP JUMPDEST PUSH2 0x5604 DUP2 PUSH2 0x55DA JUMP JUMPDEST DUP3 MSTORE POP POP JUMP JUMPDEST PUSH0 PUSH1 0x40 DUP3 ADD SWAP1 POP PUSH2 0x561D PUSH0 DUP4 ADD DUP6 PUSH2 0x46A7 JUMP JUMPDEST PUSH2 0x562A PUSH1 0x20 DUP4 ADD DUP5 PUSH2 0x55FB JUMP JUMPDEST SWAP4 SWAP3 POP POP POP JUMP JUMPDEST PUSH0 PUSH2 0x563B DUP3 PUSH2 0x3FFD JUMP JUMPDEST SWAP2 POP PUSH0 DUP3 SUB PUSH2 0x564D JUMPI PUSH2 0x564C PUSH2 0x4EE4 JUMP JUMPDEST JUMPDEST PUSH1 0x1 DUP3 SUB SWAP1 POP SWAP2 SWAP1 POP JUMP JUMPDEST PUSH0 PUSH2 0x5662 DUP3 PUSH2 0x3EA0 JUMP JUMPDEST SWAP2 POP PUSH1 0xFF DUP3 SUB PUSH2 0x5675 JUMPI PUSH2 0x5674 PUSH2 0x4EE4 JUMP JUMPDEST JUMPDEST PUSH1 0x1 DUP3 ADD SWAP1 POP SWAP2 SWAP1 POP JUMP JUMPDEST PUSH0 PUSH1 0x60 DUP3 ADD SWAP1 POP PUSH2 0x5693 PUSH0 DUP4 ADD DUP7 PUSH2 0x3EAC JUMP JUMPDEST PUSH2 0x56A0 PUSH1 0x20 DUP4 ADD DUP6 PUSH2 0x3FEE JUMP JUMPDEST PUSH2 0x56AD PUSH1 0x40 DUP4 ADD DUP5 PUSH2 0x3FEE JUMP JUMPDEST SWAP5 SWAP4 POP POP POP POP JUMP JUMPDEST PUSH32 0x5265656E7472616E637947756172643A207265656E7472616E742063616C6C00 PUSH0 DUP3 ADD MSTORE POP JUMP JUMPDEST PUSH0 PUSH2 0x56E9 PUSH1 0x1F DUP4 PUSH2 0x4D1B JUMP JUMPDEST SWAP2 POP PUSH2 0x56F4 DUP3 PUSH2 0x56B5 JUMP JUMPDEST PUSH1 0x20 DUP3 ADD SWAP1 POP SWAP2 SWAP1 POP JUMP JUMPDEST PUSH0 PUSH1 0x20 DUP3 ADD SWAP1 POP DUP2 DUP2 SUB PUSH0 DUP4 ADD MSTORE PUSH2 0x5716 DUP2 PUSH2 0x56DD JUMP JUMPDEST SWAP1 POP SWAP2 SWAP1 POP JUMP JUMPDEST PUSH0 PUSH2 0x5727 DUP3 PUSH2 0x3FDF JUMP JUMPDEST SWAP2 POP PUSH2 0x5732 DUP4 PUSH2 0x3FDF JUMP JUMPDEST SWAP3 POP DUP3 DUP3 SUB SWAP1 POP PUSH4 0xFFFFFFFF DUP2 GT ISZERO PUSH2 0x574E JUMPI PUSH2 0x574D PUSH2 0x4EE4 JUMP JUMPDEST JUMPDEST SWAP3 SWAP2 POP POP JUMP JUMPDEST PUSH32 0x19457468657265756D205369676E6564204D6573736167653A0A333200000000 PUSH0 DUP3 ADD MSTORE POP JUMP JUMPDEST PUSH0 PUSH2 0x5788 PUSH1 0x1C DUP4 PUSH2 0x50FE JUMP JUMPDEST SWAP2 POP PUSH2 0x5793 DUP3 PUSH2 0x5754 JUMP JUMPDEST PUSH1 0x1C DUP3 ADD SWAP1 POP SWAP2 SWAP1 POP JUMP JUMPDEST PUSH0 DUP2 SWAP1 POP SWAP2 SWAP1 POP JUMP JUMPDEST PUSH2 0x57B8 PUSH2 0x57B3 DUP3 PUSH2 0x3ED4 JUMP JUMPDEST PUSH2 0x579E JUMP JUMPDEST DUP3 MSTORE POP POP JUMP JUMPDEST PUSH0 PUSH2 0x57C8 DUP3 PUSH2 0x577C JUMP JUMPDEST SWAP2 POP PUSH2 0x57D4 DUP3 DUP5 PUSH2 0x57A7 JUMP JUMPDEST PUSH1 0x20 DUP3 ADD SWAP2 POP DUP2 SWAP1 POP SWAP3 SWAP2 POP POP JUMP JUMPDEST PUSH32 0x4E487B7100000000000000000000000000000000000000000000000000000000 PUSH0 MSTORE PUSH1 0x31 PUSH1 0x4 MSTORE PUSH1 0x24 PUSH0 REVERT JUMPDEST PUSH0 PUSH1 0x40 DUP3 ADD SWAP1 POP PUSH2 0x5823 PUSH0 DUP4 ADD DUP6 PUSH2 0x490A JUMP JUMPDEST PUSH2 0x5830 PUSH1 0x20 DUP4 ADD DUP5 PUSH2 0x3EDD JUMP JUMPDEST SWAP4 SWAP3 POP POP POP JUMP JUMPDEST PUSH0 PUSH1 0x80 DUP3 ADD SWAP1 POP PUSH2 0x584A PUSH0 DUP4 ADD DUP8 PUSH2 0x3EDD JUMP JUMPDEST PUSH2 0x5857 PUSH1 0x20 DUP4 ADD DUP7 PUSH2 0x3EAC JUMP JUMPDEST PUSH2 0x5864 PUSH1 0x40 DUP4 ADD DUP6 PUSH2 0x3EDD JUMP JUMPDEST PUSH2 0x5871 PUSH1 0x60 DUP4 ADD DUP5 PUSH2 0x3EDD JUMP JUMPDEST SWAP6 SWAP5 POP POP POP POP POP JUMP JUMPDEST PUSH32 0x496E76616C6964207369676E6174757265206C656E6774680000000000000000 PUSH0 DUP3 ADD MSTORE POP JUMP JUMPDEST PUSH0 PUSH2 0x58AE PUSH1 0x18 DUP4 PUSH2 0x4D1B JUMP JUMPDEST SWAP2 POP PUSH2 0x58B9 DUP3 PUSH2 0x587A JUMP JUMPDEST PUSH1 0x20 DUP3 ADD SWAP1 POP SWAP2 SWAP1 POP JUMP JUMPDEST PUSH0 PUSH1 0x20 DUP3 ADD SWAP1 POP DUP2 DUP2 SUB PUSH0 DUP4 ADD MSTORE PUSH2 0x58DB DUP2 PUSH2 0x58A2 JUMP JUMPDEST SWAP1 POP SWAP2 SWAP1 POP JUMP JUMPDEST PUSH0 PUSH2 0x58EC DUP3 PUSH2 0x3EA0 JUMP JUMPDEST SWAP2 POP PUSH2 0x58F7 DUP4 PUSH2 0x3EA0 JUMP JUMPDEST SWAP3 POP DUP3 DUP3 ADD SWAP1 POP PUSH1 0xFF DUP2 GT ISZERO PUSH2 0x5910 JUMPI PUSH2 0x590F PUSH2 0x4EE4 JUMP JUMPDEST JUMPDEST SWAP3 SWAP2 POP POP JUMP INVALID LOG2 PUSH5 0x6970667358 0x22 SLT KECCAK256 0xCF 0x21 SELFBALANCE 0xBE POP 0xA5 0xD 0xBB 0xC9 GAS ISZERO 0x1F SHR 0x25 0xCF DUP8 0xED SDIV PUSH11 0x2F8B939533B26F70588E97 SELFDESTRUCT SWAP11 PUSH5 0x736F6C6343 STOP ADDMOD BYTE STOP CALLER "
		},
		"gasEstimates": {
			"creation": {
				"codeDepositCost": "4572000",
				"executionCost": "infinite",
				"totalCost": "infinite"
			},
			"external": {
				"ATTESTATION_PROVIDER()": "416",
				"COMPUTATION_NODE()": "415",
				"DATA_PROVIDER()": "392",
				"DEFAULT_ADMIN_ROLE()": "419",
				"RESERVE_AUDITOR()": "392",
				"activeAttestationOracles(uint256)": "5011",
				"activeDataOracles(uint256)": "5056",
				"activeReserveOracles(uint256)": "5077",
				"batchRegisterOracles(address[],uint8[],bytes32[])": "infinite",
				"completeTask(uint256,bytes,bytes)": "infinite",
				"createTask(uint8,string,uint256,bytes32)": "infinite",
				"currentSegmentId()": "2535",
				"deactivateOracle(address)": "infinite",
				"getActiveOraclesCount()": "infinite",
				"getCurrentTemporalSegment()": "infinite",
				"getDSMPerformance()": "infinite",
				"getOptimalOraclesForTask(uint8)": "infinite",
				"getOracleInfo(address)": "infinite",
				"getRoleAdmin(bytes32)": "infinite",
				"getTaskInfo(uint256)": "infinite",
				"grantRole(bytes32,address)": "infinite",
				"hasRole(bytes32,address)": "3167",
				"lastSegmentUpdate()": "2585",
				"nodePublicKeys(address)": "2912",
				"offchainComputations(bytes32)": "infinite",
				"oracleNodes(address)": "infinite",
				"postOffchainComputation(bytes32,address[],uint256[],bytes32,bytes32)": "infinite",
				"registerOracle(address,uint8,bytes32)": "infinite",
				"renounceRole(bytes32,address)": "infinite",
				"revokeRole(bytes32,address)": "infinite",
				"submitResponse(uint256,bytes,bytes)": "infinite",
				"supportsInterface(bytes4)": "764",
				"taskCounter()": "2470",
				"tasks(uint256)": "infinite",
				"temporalSegments(uint8)": "infinite",
				"totalGasSaved()": "2605",
				"updateReputation(address,uint256,bytes32)": "infinite"
			},
			"internal": {
				"_recoverSigner(bytes32,bytes memory)": "infinite",
				"_removeFromActiveLists(address,enum HydroOracle.OracleType)": "infinite",
				"_splitSignature(bytes memory)": "infinite",
				"_verifySignature(bytes32,bytes memory,address)": "infinite",
				"updateTemporalSegment(uint32)": "infinite"
			}
		},
		"methodIdentifiers": {
			"ATTESTATION_PROVIDER()": "19ad44fc",
			"COMPUTATION_NODE()": "4e2b46fc",
			"DATA_PROVIDER()": "c396cbf4",
			"DEFAULT_ADMIN_ROLE()": "a217fddf",
			"RESERVE_AUDITOR()": "69de70cd",
			"activeAttestationOracles(uint256)": "989b7531",
			"activeDataOracles(uint256)": "8f91cc55",
			"activeReserveOracles(uint256)": "822fb61a",
			"batchRegisterOracles(address[],uint8[],bytes32[])": "2fec3175",
			"completeTask(uint256,bytes,bytes)": "b87832af",
			"createTask(uint8,string,uint256,bytes32)": "41c8c32d",
			"currentSegmentId()": "058dd22e",
			"deactivateOracle(address)": "ed69c604",
			"getActiveOraclesCount()": "b6df0348",
			"getCurrentTemporalSegment()": "2fcc207b",
			"getDSMPerformance()": "70dda1c4",
			"getOptimalOraclesForTask(uint8)": "df886f6f",
			"getOracleInfo(address)": "bfdb6b04",
			"getRoleAdmin(bytes32)": "248a9ca3",
			"getTaskInfo(uint256)": "d1a1b999",
			"grantRole(bytes32,address)": "2f2ff15d",
			"hasRole(bytes32,address)": "91d14854",
			"lastSegmentUpdate()": "87886960",
			"nodePublicKeys(address)": "e6da3781",
			"offchainComputations(bytes32)": "83868a68",
			"oracleNodes(address)": "2849463e",
			"postOffchainComputation(bytes32,address[],uint256[],bytes32,bytes32)": "6fbc6240",
			"registerOracle(address,uint8,bytes32)": "50dddc49",
			"renounceRole(bytes32,address)": "36568abe",
			"revokeRole(bytes32,address)": "d547741f",
			"submitResponse(uint256,bytes,bytes)": "d634e854",
			"supportsInterface(bytes4)": "01ffc9a7",
			"taskCounter()": "58671730",
			"tasks(uint256)": "8d977672",
			"temporalSegments(uint8)": "dea931c1",
			"totalGasSaved()": "e312148d",
			"updateReputation(address,uint256,bytes32)": "29dea1b5"
		}
	},
	"abi": [
		{
			"inputs": [],
			"stateMutability": "nonpayable",
			"type": "constructor"
		},
		{
			"inputs": [],
			"name": "AccessControlBadConfirmation",
			"type": "error"
		},
		{
			"inputs": [
				{
					"internalType": "address",
					"name": "account",
					"type": "address"
				},
				{
					"internalType": "bytes32",
					"name": "neededRole",
					"type": "bytes32"
				}
			],
			"name": "AccessControlUnauthorizedAccount",
			"type": "error"
		},
		{
			"anonymous": false,
			"inputs": [
				{
					"indexed": true,
					"internalType": "address",
					"name": "user",
					"type": "address"
				},
				{
					"indexed": false,
					"internalType": "uint256",
					"name": "gasSaved",
					"type": "uint256"
				},
				{
					"indexed": false,
					"internalType": "uint8",
					"name": "operationType",
					"type": "uint8"
				}
			],
			"name": "DSMGasOptimized",
			"type": "event"
		},
		{
			"anonymous": false,
			"inputs": [
				{
					"indexed": true,
					"internalType": "bytes32",
					"name": "computationId",
					"type": "bytes32"
				},
				{
					"indexed": false,
					"internalType": "address[]",
					"name": "selectedOracles",
					"type": "address[]"
				}
			],
			"name": "OffchainComputationPosted",
			"type": "event"
		},
		{
			"anonymous": false,
			"inputs": [
				{
					"indexed": true,
					"internalType": "address",
					"name": "oracle",
					"type": "address"
				},
				{
					"indexed": false,
					"internalType": "enum HydroOracle.OracleType",
					"name": "oracleType",
					"type": "uint8"
				}
			],
			"name": "OracleRegistered",
			"type": "event"
		},
		{
			"anonymous": false,
			"inputs": [
				{
					"indexed": true,
					"internalType": "address",
					"name": "oracle",
					"type": "address"
				},
				{
					"indexed": false,
					"internalType": "uint256",
					"name": "newReputation",
					"type": "uint256"
				},
				{
					"indexed": false,
					"internalType": "bytes32",
					"name": "proof",
					"type": "bytes32"
				}
			],
			"name": "ReputationUpdated",
			"type": "event"
		},
		{
			"anonymous": false,
			"inputs": [
				{
					"indexed": true,
					"internalType": "uint256",
					"name": "taskId",
					"type": "uint256"
				},
				{
					"indexed": true,
					"internalType": "address",
					"name": "oracle",
					"type": "address"
				},
				{
					"indexed": false,
					"internalType": "bytes",
					"name": "response",
					"type": "bytes"
				}
			],
			"name": "ResponseSubmitted",
			"type": "event"
		},
		{
			"anonymous": false,
			"inputs": [
				{
					"indexed": true,
					"internalType": "bytes32",
					"name": "role",
					"type": "bytes32"
				},
				{
					"indexed": true,
					"internalType": "bytes32",
					"name": "previousAdminRole",
					"type": "bytes32"
				},
				{
					"indexed": true,
					"internalType": "bytes32",
					"name": "newAdminRole",
					"type": "bytes32"
				}
			],
			"name": "RoleAdminChanged",
			"type": "event"
		},
		{
			"anonymous": false,
			"inputs": [
				{
					"indexed": true,
					"internalType": "bytes32",
					"name": "role",
					"type": "bytes32"
				},
				{
					"indexed": true,
					"internalType": "address",
					"name": "account",
					"type": "address"
				},
				{
					"indexed": true,
					"internalType": "address",
					"name": "sender",
					"type": "address"
				}
			],
			"name": "RoleGranted",
			"type": "event"
		},
		{
			"anonymous": false,
			"inputs": [
				{
					"indexed": true,
					"internalType": "bytes32",
					"name": "role",
					"type": "bytes32"
				},
				{
					"indexed": true,
					"internalType": "address",
					"name": "account",
					"type": "address"
				},
				{
					"indexed": true,
					"internalType": "address",
					"name": "sender",
					"type": "address"
				}
			],
			"name": "RoleRevoked",
			"type": "event"
		},
		{
			"anonymous": false,
			"inputs": [
				{
					"indexed": true,
					"internalType": "uint256",
					"name": "taskId",
					"type": "uint256"
				},
				{
					"indexed": false,
					"internalType": "bytes",
					"name": "finalResponse",
					"type": "bytes"
				}
			],
			"name": "TaskCompleted",
			"type": "event"
		},
		{
			"anonymous": false,
			"inputs": [
				{
					"indexed": true,
					"internalType": "uint256",
					"name": "taskId",
					"type": "uint256"
				},
				{
					"indexed": false,
					"internalType": "enum HydroOracle.OracleType",
					"name": "oracleType",
					"type": "uint8"
				},
				{
					"indexed": false,
					"internalType": "bytes32",
					"name": "offchainComputationId",
					"type": "bytes32"
				}
			],
			"name": "TaskCreated",
			"type": "event"
		},
		{
			"anonymous": false,
			"inputs": [
				{
					"indexed": false,
					"internalType": "uint8",
					"name": "segmentId",
					"type": "uint8"
				},
				{
					"indexed": false,
					"internalType": "uint32",
					"name": "startTime",
					"type": "uint32"
				},
				{
					"indexed": false,
					"internalType": "uint32",
					"name": "endTime",
					"type": "uint32"
				}
			],
			"name": "TemporalSegmentUpdated",
			"type": "event"
		},
		{
			"inputs": [],
			"name": "ATTESTATION_PROVIDER",
			"outputs": [
				{
					"internalType": "bytes32",
					"name": "",
					"type": "bytes32"
				}
			],
			"stateMutability": "view",
			"type": "function"
		},
		{
			"inputs": [],
			"name": "COMPUTATION_NODE",
			"outputs": [
				{
					"internalType": "bytes32",
					"name": "",
					"type": "bytes32"
				}
			],
			"stateMutability": "view",
			"type": "function"
		},
		{
			"inputs": [],
			"name": "DATA_PROVIDER",
			"outputs": [
				{
					"internalType": "bytes32",
					"name": "",
					"type": "bytes32"
				}
			],
			"stateMutability": "view",
			"type": "function"
		},
		{
			"inputs": [],
			"name": "DEFAULT_ADMIN_ROLE",
			"outputs": [
				{
					"internalType": "bytes32",
					"name": "",
					"type": "bytes32"
				}
			],
			"stateMutability": "view",
			"type": "function"
		},
		{
			"inputs": [],
			"name": "RESERVE_AUDITOR",
			"outputs": [
				{
					"internalType": "bytes32",
					"name": "",
					"type": "bytes32"
				}
			],
			"stateMutability": "view",
			"type": "function"
		},
		{
			"inputs": [
				{
					"internalType": "uint256",
					"name": "",
					"type": "uint256"
				}
			],
			"name": "activeAttestationOracles",
			"outputs": [
				{
					"internalType": "address",
					"name": "",
					"type": "address"
				}
			],
			"stateMutability": "view",
			"type": "function"
		},
		{
			"inputs": [
				{
					"internalType": "uint256",
					"name": "",
					"type": "uint256"
				}
			],
			"name": "activeDataOracles",
			"outputs": [
				{
					"internalType": "address",
					"name": "",
					"type": "address"
				}
			],
			"stateMutability": "view",
			"type": "function"
		},
		{
			"inputs": [
				{
					"internalType": "uint256",
					"name": "",
					"type": "uint256"
				}
			],
			"name": "activeReserveOracles",
			"outputs": [
				{
					"internalType": "address",
					"name": "",
					"type": "address"
				}
			],
			"stateMutability": "view",
			"type": "function"
		},
		{
			"inputs": [
				{
					"internalType": "address[]",
					"name": "oracleAddresses",
					"type": "address[]"
				},
				{
					"internalType": "enum HydroOracle.OracleType[]",
					"name": "oracleTypes",
					"type": "uint8[]"
				},
				{
					"internalType": "bytes32[]",
					"name": "ipfsProfileHashes",
					"type": "bytes32[]"
				}
			],
			"name": "batchRegisterOracles",
			"outputs": [],
			"stateMutability": "nonpayable",
			"type": "function"
		},
		{
			"inputs": [
				{
					"internalType": "uint256",
					"name": "taskId",
					"type": "uint256"
				},
				{
					"internalType": "bytes",
					"name": "finalResponse",
					"type": "bytes"
				},
				{
					"internalType": "bytes",
					"name": "",
					"type": "bytes"
				}
			],
			"name": "completeTask",
			"outputs": [],
			"stateMutability": "nonpayable",
			"type": "function"
		},
		{
			"inputs": [
				{
					"internalType": "enum HydroOracle.OracleType",
					"name": "requiredType",
					"type": "uint8"
				},
				{
					"internalType": "string",
					"name": "dataSource",
					"type": "string"
				},
				{
					"internalType": "uint256",
					"name": "timeout",
					"type": "uint256"
				},
				{
					"internalType": "bytes32",
					"name": "offchainComputationId",
					"type": "bytes32"
				}
			],
			"name": "createTask",
			"outputs": [
				{
					"internalType": "uint256",
					"name": "",
					"type": "uint256"
				}
			],
			"stateMutability": "nonpayable",
			"type": "function"
		},
		{
			"inputs": [],
			"name": "currentSegmentId",
			"outputs": [
				{
					"internalType": "uint8",
					"name": "",
					"type": "uint8"
				}
			],
			"stateMutability": "view",
			"type": "function"
		},
		{
			"inputs": [
				{
					"internalType": "address",
					"name": "oracleAddress",
					"type": "address"
				}
			],
			"name": "deactivateOracle",
			"outputs": [],
			"stateMutability": "nonpayable",
			"type": "function"
		},
		{
			"inputs": [],
			"name": "getActiveOraclesCount",
			"outputs": [
				{
					"internalType": "uint256",
					"name": "dataOracles",
					"type": "uint256"
				},
				{
					"internalType": "uint256",
					"name": "attestationOracles",
					"type": "uint256"
				},
				{
					"internalType": "uint256",
					"name": "reserveOracles",
					"type": "uint256"
				}
			],
			"stateMutability": "view",
			"type": "function"
		},
		{
			"inputs": [],
			"name": "getCurrentTemporalSegment",
			"outputs": [
				{
					"internalType": "uint8",
					"name": "segmentId",
					"type": "uint8"
				},
				{
					"internalType": "uint32",
					"name": "startTime",
					"type": "uint32"
				},
				{
					"internalType": "uint32",
					"name": "endTime",
					"type": "uint32"
				},
				{
					"internalType": "uint16",
					"name": "activeTasks",
					"type": "uint16"
				},
				{
					"internalType": "uint16",
					"name": "completedTasks",
					"type": "uint16"
				},
				{
					"internalType": "uint16",
					"name": "activeOracles",
					"type": "uint16"
				},
				{
					"internalType": "bool",
					"name": "active",
					"type": "bool"
				}
			],
			"stateMutability": "view",
			"type": "function"
		},
		{
			"inputs": [],
			"name": "getDSMPerformance",
			"outputs": [
				{
					"internalType": "uint32",
					"name": "gasSaved",
					"type": "uint32"
				},
				{
					"internalType": "uint8",
					"name": "activeSegmentId",
					"type": "uint8"
				},
				{
					"internalType": "uint16",
					"name": "activeTasks",
					"type": "uint16"
				},
				{
					"internalType": "uint16",
					"name": "completedTasks",
					"type": "uint16"
				},
				{
					"internalType": "uint16",
					"name": "activeOracles",
					"type": "uint16"
				}
			],
			"stateMutability": "view",
			"type": "function"
		},
		{
			"inputs": [
				{
					"internalType": "enum HydroOracle.OracleType",
					"name": "requiredType",
					"type": "uint8"
				}
			],
			"name": "getOptimalOraclesForTask",
			"outputs": [
				{
					"internalType": "address[]",
					"name": "",
					"type": "address[]"
				}
			],
			"stateMutability": "view",
			"type": "function"
		},
		{
			"inputs": [
				{
					"internalType": "address",
					"name": "oracleAddress",
					"type": "address"
				}
			],
			"name": "getOracleInfo",
			"outputs": [
				{
					"internalType": "uint32",
					"name": "lastActiveTime",
					"type": "uint32"
				},
				{
					"internalType": "uint16",
					"name": "completedTasks",
					"type": "uint16"
				},
				{
					"internalType": "uint8",
					"name": "reputationTier",
					"type": "uint8"
				},
				{
					"internalType": "uint8",
					"name": "nodeType",
					"type": "uint8"
				},
				{
					"internalType": "bool",
					"name": "isActive",
					"type": "bool"
				},
				{
					"internalType": "bytes20",
					"name": "ipfsProfileHash",
					"type": "bytes20"
				}
			],
			"stateMutability": "view",
			"type": "function"
		},
		{
			"inputs": [
				{
					"internalType": "bytes32",
					"name": "role",
					"type": "bytes32"
				}
			],
			"name": "getRoleAdmin",
			"outputs": [
				{
					"internalType": "bytes32",
					"name": "",
					"type": "bytes32"
				}
			],
			"stateMutability": "view",
			"type": "function"
		},
		{
			"inputs": [
				{
					"internalType": "uint256",
					"name": "taskId",
					"type": "uint256"
				}
			],
			"name": "getTaskInfo",
			"outputs": [
				{
					"internalType": "uint32",
					"name": "createdAt",
					"type": "uint32"
				},
				{
					"internalType": "uint32",
					"name": "deadline",
					"type": "uint32"
				},
				{
					"internalType": "uint16",
					"name": "requiredType",
					"type": "uint16"
				},
				{
					"internalType": "uint8",
					"name": "priority",
					"type": "uint8"
				},
				{
					"internalType": "bool",
					"name": "completed",
					"type": "bool"
				},
				{
					"internalType": "address",
					"name": "requester",
					"type": "address"
				},
				{
					"internalType": "bytes32",
					"name": "dataSourceHash",
					"type": "bytes32"
				},
				{
					"internalType": "bytes32",
					"name": "computationHash",
					"type": "bytes32"
				}
			],
			"stateMutability": "view",
			"type": "function"
		},
		{
			"inputs": [
				{
					"internalType": "bytes32",
					"name": "role",
					"type": "bytes32"
				},
				{
					"internalType": "address",
					"name": "account",
					"type": "address"
				}
			],
			"name": "grantRole",
			"outputs": [],
			"stateMutability": "nonpayable",
			"type": "function"
		},
		{
			"inputs": [
				{
					"internalType": "bytes32",
					"name": "role",
					"type": "bytes32"
				},
				{
					"internalType": "address",
					"name": "account",
					"type": "address"
				}
			],
			"name": "hasRole",
			"outputs": [
				{
					"internalType": "bool",
					"name": "",
					"type": "bool"
				}
			],
			"stateMutability": "view",
			"type": "function"
		},
		{
			"inputs": [],
			"name": "lastSegmentUpdate",
			"outputs": [
				{
					"internalType": "uint32",
					"name": "",
					"type": "uint32"
				}
			],
			"stateMutability": "view",
			"type": "function"
		},
		{
			"inputs": [
				{
					"internalType": "address",
					"name": "",
					"type": "address"
				}
			],
			"name": "nodePublicKeys",
			"outputs": [
				{
					"internalType": "bytes32",
					"name": "",
					"type": "bytes32"
				}
			],
			"stateMutability": "view",
			"type": "function"
		},
		{
			"inputs": [
				{
					"internalType": "bytes32",
					"name": "",
					"type": "bytes32"
				}
			],
			"name": "offchainComputations",
			"outputs": [
				{
					"internalType": "bytes32",
					"name": "computationId",
					"type": "bytes32"
				},
				{
					"internalType": "bytes20",
					"name": "qosProof",
					"type": "bytes20"
				},
				{
					"internalType": "bytes20",
					"name": "securityProof",
					"type": "bytes20"
				},
				{
					"internalType": "uint32",
					"name": "timestamp",
					"type": "uint32"
				}
			],
			"stateMutability": "view",
			"type": "function"
		},
		{
			"inputs": [
				{
					"internalType": "address",
					"name": "",
					"type": "address"
				}
			],
			"name": "oracleNodes",
			"outputs": [
				{
					"internalType": "uint32",
					"name": "lastActiveTime",
					"type": "uint32"
				},
				{
					"internalType": "uint16",
					"name": "completedTasks",
					"type": "uint16"
				},
				{
					"internalType": "uint8",
					"name": "reputationTier",
					"type": "uint8"
				},
				{
					"internalType": "uint8",
					"name": "nodeType",
					"type": "uint8"
				},
				{
					"internalType": "bool",
					"name": "isActive",
					"type": "bool"
				},
				{
					"internalType": "bytes20",
					"name": "ipfsProfileHash",
					"type": "bytes20"
				}
			],
			"stateMutability": "view",
			"type": "function"
		},
		{
			"inputs": [
				{
					"internalType": "bytes32",
					"name": "computationId",
					"type": "bytes32"
				},
				{
					"internalType": "address[]",
					"name": "selectedOracles",
					"type": "address[]"
				},
				{
					"internalType": "uint256[]",
					"name": "reputationScores",
					"type": "uint256[]"
				},
				{
					"internalType": "bytes32",
					"name": "qosProof",
					"type": "bytes32"
				},
				{
					"internalType": "bytes32",
					"name": "securityProof",
					"type": "bytes32"
				}
			],
			"name": "postOffchainComputation",
			"outputs": [],
			"stateMutability": "nonpayable",
			"type": "function"
		},
		{
			"inputs": [
				{
					"internalType": "address",
					"name": "oracleAddress",
					"type": "address"
				},
				{
					"internalType": "enum HydroOracle.OracleType",
					"name": "oracleType",
					"type": "uint8"
				},
				{
					"internalType": "bytes32",
					"name": "ipfsProfileHash",
					"type": "bytes32"
				}
			],
			"name": "registerOracle",
			"outputs": [],
			"stateMutability": "nonpayable",
			"type": "function"
		},
		{
			"inputs": [
				{
					"internalType": "bytes32",
					"name": "role",
					"type": "bytes32"
				},
				{
					"internalType": "address",
					"name": "callerConfirmation",
					"type": "address"
				}
			],
			"name": "renounceRole",
			"outputs": [],
			"stateMutability": "nonpayable",
			"type": "function"
		},
		{
			"inputs": [
				{
					"internalType": "bytes32",
					"name": "role",
					"type": "bytes32"
				},
				{
					"internalType": "address",
					"name": "account",
					"type": "address"
				}
			],
			"name": "revokeRole",
			"outputs": [],
			"stateMutability": "nonpayable",
			"type": "function"
		},
		{
			"inputs": [
				{
					"internalType": "uint256",
					"name": "taskId",
					"type": "uint256"
				},
				{
					"internalType": "bytes",
					"name": "response",
					"type": "bytes"
				},
				{
					"internalType": "bytes",
					"name": "signature",
					"type": "bytes"
				}
			],
			"name": "submitResponse",
			"outputs": [],
			"stateMutability": "nonpayable",
			"type": "function"
		},
		{
			"inputs": [
				{
					"internalType": "bytes4",
					"name": "interfaceId",
					"type": "bytes4"
				}
			],
			"name": "supportsInterface",
			"outputs": [
				{
					"internalType": "bool",
					"name": "",
					"type": "bool"
				}
			],
			"stateMutability": "view",
			"type": "function"
		},
		{
			"inputs": [],
			"name": "taskCounter",
			"outputs": [
				{
					"internalType": "uint256",
					"name": "",
					"type": "uint256"
				}
			],
			"stateMutability": "view",
			"type": "function"
		},
		{
			"inputs": [
				{
					"internalType": "uint256",
					"name": "",
					"type": "uint256"
				}
			],
			"name": "tasks",
			"outputs": [
				{
					"internalType": "uint32",
					"name": "createdAt",
					"type": "uint32"
				},
				{
					"internalType": "uint32",
					"name": "deadline",
					"type": "uint32"
				},
				{
					"internalType": "uint16",
					"name": "requiredType",
					"type": "uint16"
				},
				{
					"internalType": "uint8",
					"name": "priority",
					"type": "uint8"
				},
				{
					"internalType": "bool",
					"name": "completed",
					"type": "bool"
				},
				{
					"internalType": "address",
					"name": "requester",
					"type": "address"
				},
				{
					"internalType": "bytes32",
					"name": "dataSourceHash",
					"type": "bytes32"
				},
				{
					"internalType": "bytes32",
					"name": "computationHash",
					"type": "bytes32"
				}
			],
			"stateMutability": "view",
			"type": "function"
		},
		{
			"inputs": [
				{
					"internalType": "uint8",
					"name": "",
					"type": "uint8"
				}
			],
			"name": "temporalSegments",
			"outputs": [
				{
					"internalType": "uint32",
					"name": "startTime",
					"type": "uint32"
				},
				{
					"internalType": "uint32",
					"name": "endTime",
					"type": "uint32"
				},
				{
					"internalType": "uint16",
					"name": "activeTasks",
					"type": "uint16"
				},
				{
					"internalType": "uint16",
					"name": "completedTasks",
					"type": "uint16"
				},
				{
					"internalType": "uint16",
					"name": "activeOracles",
					"type": "uint16"
				},
				{
					"internalType": "bool",
					"name": "active",
					"type": "bool"
				}
			],
			"stateMutability": "view",
			"type": "function"
		},
		{
			"inputs": [],
			"name": "totalGasSaved",
			"outputs": [
				{
					"internalType": "uint32",
					"name": "",
					"type": "uint32"
				}
			],
			"stateMutability": "view",
			"type": "function"
		},
		{
			"inputs": [
				{
					"internalType": "address",
					"name": "oracleAddress",
					"type": "address"
				},
				{
					"internalType": "uint256",
					"name": "newReputation",
					"type": "uint256"
				},
				{
					"internalType": "bytes32",
					"name": "computationProof",
					"type": "bytes32"
				}
			],
			"name": "updateReputation",
			"outputs": [],
			"stateMutability": "nonpayable",
			"type": "function"
		}
	]
}