{
	"data": {
		"bytecode": {
			"linkReferences": {},
			"object": "61018b61004d600b8282823980515f1a6073146041577f4e487b71000000000000000000000000000000000000000000000000000000005f525f60045260245ffd5b305f52607381538281f3fe7300000000000000000000000000000000000000003014608060405260043610610055575f3560e01c806349faa4d414610059578063c372a4ea14610077578063c3af6cc214610095578063f107aa15146100b3575b5f80fd5b6100616100d1565b60405161006e9190610105565b60405180910390f35b61007f6100d6565b60405161008c919061013c565b60405180910390f35b61009d6100dd565b6040516100aa9190610105565b60405180910390f35b6100bb6100e2565b6040516100c8919061013c565b60405180910390f35b601981565b6201518081565b600a81565b62278d0081565b5f61ffff82169050919050565b6100ff816100e9565b82525050565b5f6020820190506101185f8301846100f6565b92915050565b5f63ffffffff82169050919050565b6101368161011e565b82525050565b5f60208201905061014f5f83018461012d565b9291505056fea26469706673582212200f6f66f2ccbdb48c3f140f29b3c6191a1e4336209cef521902679f4bdca8b7c564736f6c634300081a0033",
			"opcodes": "PUSH2 0x18B PUSH2 0x4D PUSH1 0xB DUP3 DUP3 DUP3 CODECOPY DUP1 MLOAD PUSH0 BYTE PUSH1 0x73 EQ PUSH1 0x41 JUMPI PUSH32 0x4E487B7100000000000000000000000000000000000000000000000000000000 PUSH0 MSTORE PUSH0 PUSH1 0x4 MSTORE PUSH1 0x24 PUSH0 REVERT JUMPDEST ADDRESS PUSH0 MSTORE PUSH1 0x73 DUP2 MSTORE8 DUP3 DUP2 RETURN INVALID PUSH20 0x0 ADDRESS EQ PUSH1 0x80 PUSH1 0x40 MSTORE PUSH1 0x4 CALLDATASIZE LT PUSH2 0x55 JUMPI PUSH0 CALLDATALOAD PUSH1 0xE0 SHR DUP1 PUSH4 0x49FAA4D4 EQ PUSH2 0x59 JUMPI DUP1 PUSH4 0xC372A4EA EQ PUSH2 0x77 JUMPI DUP1 PUSH4 0xC3AF6CC2 EQ PUSH2 0x95 JUMPI DUP1 PUSH4 0xF107AA15 EQ PUSH2 0xB3 JUMPI JUMPDEST PUSH0 DUP1 REVERT JUMPDEST PUSH2 0x61 PUSH2 0xD1 JUMP JUMPDEST PUSH1 0x40 MLOAD PUSH2 0x6E SWAP2 SWAP1 PUSH2 0x105 JUMP JUMPDEST PUSH1 0x40 MLOAD DUP1 SWAP2 SUB SWAP1 RETURN JUMPDEST PUSH2 0x7F PUSH2 0xD6 JUMP JUMPDEST PUSH1 0x40 MLOAD PUSH2 0x8C SWAP2 SWAP1 PUSH2 0x13C JUMP JUMPDEST PUSH1 0x40 MLOAD DUP1 SWAP2 SUB SWAP1 RETURN JUMPDEST PUSH2 0x9D PUSH2 0xDD JUMP JUMPDEST PUSH1 0x40 MLOAD PUSH2 0xAA SWAP2 SWAP1 PUSH2 0x105 JUMP JUMPDEST PUSH1 0x40 MLOAD DUP1 SWAP2 SUB SWAP1 RETURN JUMPDEST PUSH2 0xBB PUSH2 0xE2 JUMP JUMPDEST PUSH1 0x40 MLOAD PUSH2 0xC8 SWAP2 SWAP1 PUSH2 0x13C JUMP JUMPDEST PUSH1 0x40 MLOAD DUP1 SWAP2 SUB SWAP1 RETURN JUMPDEST PUSH1 0x19 DUP2 JUMP JUMPDEST PUSH3 0x15180 DUP2 JUMP JUMPDEST PUSH1 0xA DUP2 JUMP JUMPDEST PUSH3 0x278D00 DUP2 JUMP JUMPDEST PUSH0 PUSH2 0xFFFF DUP3 AND SWAP1 POP SWAP2 SWAP1 POP JUMP JUMPDEST PUSH2 0xFF DUP2 PUSH2 0xE9 JUMP JUMPDEST DUP3 MSTORE POP POP JUMP JUMPDEST PUSH0 PUSH1 0x20 DUP3 ADD SWAP1 POP PUSH2 0x118 PUSH0 DUP4 ADD DUP5 PUSH2 0xF6 JUMP JUMPDEST SWAP3 SWAP2 POP POP JUMP JUMPDEST PUSH0 PUSH4 0xFFFFFFFF DUP3 AND SWAP1 POP SWAP2 SWAP1 POP JUMP JUMPDEST PUSH2 0x136 DUP2 PUSH2 0x11E JUMP JUMPDEST DUP3 MSTORE POP POP JUMP JUMPDEST PUSH0 PUSH1 0x20 DUP3 ADD SWAP1 POP PUSH2 0x14F PUSH0 DUP4 ADD DUP5 PUSH2 0x12D JUMP JUMPDEST SWAP3 SWAP2 POP POP JUMP INVALID LOG2 PUSH5 0x6970667358 0x22 SLT KECCAK256 0xF PUSH16 0x66F2CCBDB48C3F140F29B3C6191A1E43 CALLDATASIZE KECCAK256 SWAP13 0xEF MSTORE NOT MUL PUSH8 0x9F4BDCA8B7C56473 PUSH16 0x6C634300081A00330000000000000000 "
		},
		"gasEstimates": {
			"creation": {
				"codeDepositCost": "79000",
				"executionCost": "152",
				"totalCost": "79152"
			},
			"external": {
				"ACTIVE_TASK_WINDOW()": "315",
				"ARCHIVE_THRESHOLD()": "359",
				"BATCH_SIZE()": "293",
				"MAX_ORACLES_PER_TASK()": "337"
			},
			"internal": {
				"classifyOracle(uint32,uint16,uint8)": "infinite",
				"selectOptimalOracles(address[] memory,mapping(address => struct OracleDSM.OptimizedOracle storage ref),uint8)": "infinite",
				"shouldProcessImmediate(uint256,uint8)": "infinite"
			}
		},
		"methodIdentifiers": {
			"ACTIVE_TASK_WINDOW()": "c372a4ea",
			"ARCHIVE_THRESHOLD()": "f107aa15",
			"BATCH_SIZE()": "49faa4d4",
			"MAX_ORACLES_PER_TASK()": "c3af6cc2"
		}
	},
	"abi": [
		{
			"inputs": [],
			"name": "ACTIVE_TASK_WINDOW",
			"outputs": [
				{
					"internalType": "uint32",
					"name": "",
					"type": "uint32"
				}
			],
			"stateMutability": "view",
			"type": "function"
		},
		{
			"inputs": [],
			"name": "ARCHIVE_THRESHOLD",
			"outputs": [
				{
					"internalType": "uint32",
					"name": "",
					"type": "uint32"
				}
			],
			"stateMutability": "view",
			"type": "function"
		},
		{
			"inputs": [],
			"name": "BATCH_SIZE",
			"outputs": [
				{
					"internalType": "uint16",
					"name": "",
					"type": "uint16"
				}
			],
			"stateMutability": "view",
			"type": "function"
		},
		{
			"inputs": [],
			"name": "MAX_ORACLES_PER_TASK",
			"outputs": [
				{
					"internalType": "uint16",
					"name": "",
					"type": "uint16"
				}
			],
			"stateMutability": "view",
			"type": "function"
		}
	]
}